:100000000C9489000C9400130C9427130C94E303B4
:100010000C94E3030C94E3030C94B1000C94B10032
:100020000C94B1000C94B1000C94B1000C945B0FD3
:100030000C94B1000C94B1000C94B3000C94B1007A
:100040000C944E130C94B1000C9444160C94761638
:100050000C94B1000C94B1000C94B1000C94B1005C
:100060000C94B1000C94B100727400927400489426
:100070000078C4000000000800020100000304072B
:100080000000000000000000010204081020408071
:1000900001020408102001020408102004040404D2
:1000A0000404040402020202020203030303030322
:1000B00000000000230026002900000000002500A9
:1000C00028002B0000000000240027002A004E41D9
:1000D0004E494E495459494E46CDCCCC3D0AD723C2
:1000E0003C17B7D13877CC2B329595E6241FB14F0A
:1000F0000A000020410000C84200401C4620BCBE4F
:100100004CCA1B0E5AAEC59D7400EE00CE0CA6164E
:10011000160111241FBECFEFD8E0DEBFCDBF12E025
:10012000A0E0B1E0E4E7FBE302C005900D92A03E41
:10013000B107D9F726E0A0EEB2E001C01D92AF3CB6
:10014000B207E1F711E0C0E1D1E004C02297FE015F
:100150000E942C1BCA30D107C9F70E94EA160C94E2
:10016000AD1D0C9400001F920F920FB60F92112438
:100170002F933F934F935F936F937F938F939F93AF
:10018000AF93BF93EF93FF9381EE92E00E949F0A9B
:10019000FF91EF91BF91AF919F918F917F916F915F
:1001A0005F914F913F912F910F900FBE0F901F9035
:1001B0001895882359F08FEA87BD80916E00826080
:1001C00080936E0081E08093E002089580916E003C
:1001D0008D7F80936E001092E00208952FED35E040
:1001E00042E06AE087E893E00E94990F8FE29AE28A
:1001F000A0E08093530390935403A09355030E946F
:10020000981360934F03709350038093510390931E
:10021000520320E043E064E080E393E00E94B604F0
:1002200060E373E081EE92E00C945D0B80E393E079
:100230000C945D0440ED57E060E070E080EF95E0E5
:100240000E94BE1220E032EC41E050E060E376E034
:1002500080EF95E00E94D11280EF95E00E94BB12E2
:1002600068E071E080912106909122060E94371784
:100270006AE070E080E090E00E94C71340E060E038
:1002800080EF95E00E94DD1261E089E00E94651434
:1002900081E08093A20461E089E00E949E1461E005
:1002A00086E00E94651426E040E052EC61E070E0D8
:1002B00080E396E00E94E2156AE171E080E396E057
:1002C0000E94441763E371E080E396E00E944417C4
:1002D00087E893E00E94E011811107C067E471E0B4
:1002E00080E396E00E94441714C063E571E080E368
:1002F00096E00E9437174AE050E062EB71E080E33D
:1003000096E00E94EF176EE571E080E396E00E94B0
:10031000371740E050E069ED73E487E893E00E940E
:100320001A1060E875E281EE92E00E946E0B81E0A7
:100330000E94D90068EE73E080E090E00C94C7134F
:100340008091E002811104C081EE92E00E949F0A38
:1003500081EE92E00E948B0B882309F406C181EEA6
:1003600092E00E948E0BBC0181EE92E00E94740527
:10037000882309F4FAC080911C03882321F061E0EE
:1003800089E00E949E1420E030E040E251E4609158
:10039000090370910A0380910B0390910C030E9452
:1003A000981887FF0EC061E086E00E949E1464EFFB
:1003B00071E080E090E00E94C71360E086E00E9458
:1003C0009E148091E102809356038091E202809313
:1003D00057038091E302809358038091E602809353
:1003E0005B038091E50280935C038091E40280933B
:1003F0005D038091E7029091E80290935A03809305
:1004000059038091090390910A03A0910B03B091C5
:100410000C0380935E0390935F03A0936003B093FB
:10042000610380910D0390910E03A0910F03B09191
:1004300010038093620390936303A0936403B093CB
:1004400065038091E9029091EA02A091EB02B091DC
:10045000EC028093660390936703A0936803B093C4
:1004600069038091190380936A038091ED02909152
:10047000EE02A091EF02B091F00280936B03909393
:100480006C03A0936D03B0936E0380911A03809365
:100490006F038091050390910603A0910703B0912B
:1004A00008038093700390937103A0937203B09339
:1004B000730380911D038093740380911E038093C6
:1004C00075038091150390911603A0911703B091C5
:1004D00018038093760390937703A0937803B093E7
:1004E00079038091010390910203A0910303B091DD
:1004F000040380937A0390937B03A0937C03B093CF
:100500007D038091F9029091FA02A091FB02B091D3
:10051000FC0280937E0390937F03A0938003B093AB
:1005200081038091FD029091FE02A091FF02B091A3
:1005300000038093820390938303A0938403B0937A
:10054000850380911C038093860344E363E573E095
:1005500087E893E00E941F116091A20481E0682760
:100560006093A20489E00C949E140895CF93CFB7B2
:10057000F8948091A404811127C0E6EAF0E0849108
:10058000E2E9F0E09491E82FF0E0EE0FFF1FEC536A
:10059000FF4FA591B4918C91892321F461E08AE009
:1005A0000E949E1461E08AE00E9465148CB580610F
:1005B0008CBD8CB580648CBD61E08DE00E946514BB
:1005C00061E08BE00E9465148091A4048F5F8093AA
:1005D000A404CFBFCF9108959FB7F8948091A4044D
:1005E000882319F081508093A4048091A404811180
:1005F00005C08CB58F7B8CBD1092A3049FBF08955E
:100600002091E7043091E80428173907B9F4909154
:10061000A5048091A604981789F0E091A504F0E064
:10062000E955FB4F80812091A50430E02F5F3F4FBB
:100630002F7333272093A50490E008958FEF9FEF49
:1006400008951F93CF93DF93DC015C968D919C916D
:100650005D97009749F481E090E013969C938E9308
:10066000129780E090E03BC05196ED91FC9152973B
:1006700050962C915097322F30951FB75E964C9123
:100680005E9741FB772770F941FD6095F8944081B2
:10069000772311F0422B01C043234083EC012197C3
:1006A000F1F748E0508160FF02C0522B01C0532394
:1006B0005083EC012197F1F76695415099F78081BD
:1006C000772311F0832301C0822B80831FBF5C96A8
:1006D0008D919C915D970197F1F781E090E0DF911A
:1006E000CF911F91089508952091E7043091E80477
:1006F0002817390771F49091A5048091A6049817E2
:1007000041F0E091A504F0E0E955FB4F808190E0D5
:1007100008958FEF9FEF08952091E7043091E8044A
:100720002817390771F48091A6042091A50490E060
:10073000805C9F4F821B910960E470E00E94B61AB2
:10074000089580E090E00895E091E704F091E804D6
:10075000E817F90769F4A389B4899C918589809584
:1007600089238C931092E8041092E70481E00895A5
:1007700080E00895CF93DF93EC018A8D9B8D892BC8
:10078000F1F08091E7049091E8048C179D07B9F08F
:10079000009711F00E94A4038E8D8E7F8E8F109291
:1007A000A6041092A504D093E804C093E704EB8953
:1007B000FC8980819D89892B808381E001C080E054
:1007C000DF91CF9108951F920F920FB60F921124CF
:1007D0002F933F934F935F936F937F938F939F9349
:1007E000AF93BF93EF93FF93E091E704F091E80498
:1007F000309709F451C0868DA685B785958581FF10
:1008000004C08C91892329F447C08C91892309F075
:1008100043C0A389B4899C918589809589238C9351
:10082000868997890197F1F7208D318DA685B78547
:10083000758558E040E0C9010197F1F7842F90E0F9
:1008400095958795482F6C91672309F04068515022
:1008500091F7868D81FD40958091A60490E00196E8
:100860008F7399272091A504281749F0A091A60419
:10087000B0E0A955BB4F4C938093A60403C0868D6E
:100880008160868F828D938D0197F1F7A389B4895A
:100890008C919589892B8C93FF91EF91BF91AF91AA
:1008A0009F918F917F916F915F914F913F912F9188
:1008B0000F900FBE0F901F90189526E631E0FC01B7
:1008C000318320830C94A4031F93CF93DF93EC0117
:1008D000162F6E8D6695617081E06827812F0E94CA
:1008E0009E1461E0812F0E946514812F90E0FC012D
:1008F000E857FF4FE491E88BFC01E456FF4FE49189
:10090000F0E0EE0FFF1FE654FF4F859194919A8B14
:10091000898BDF91CF911F9108951F93CF93DF9320
:10092000EC01162F60E0812F0E9465148E8D81FDF1
:1009300004C061E0812F0E949E141C87812F90E0EB
:10094000FC01E857FF4FE491ED87FC01E456FF4FAF
:10095000E491F0E0EE0FFF1FE055FF4F8591949179
:100960009F878E87DF91CF911F910895FF920F93FC
:100970001F93CF93DF93EC01F62E522F1B821A8226
:1009800008EE13E020E030E00C831D832E833F83CC
:1009900086E691E0998388831F8A1E8A198E188EB5
:1009A0001B8E1A8E1D8E1C8E8E8D8E7F50FB81F9B4
:1009B0008E8F642FCE010E9464046F2DCE01DF91D3
:1009C000CF911F910F91FF900C948D04CF93DF93E3
:1009D000EC019A01AB011B8E1A8E198E188E1F8A9C
:1009E0001E8A60E079E08DE390E00E94EC1AC90174
:1009F0002430310520F0B9016350710902C061E073
:100A000070E07D8F6C8FEC85E63108F068C0B9012D
:100A1000769567956431710518F06351710902C0CC
:100A200061E070E07F8B6E8B069718F0C901059727
:100A300002C081E090E0998F888FC901880F991FCB
:100A4000820F931F96958795969587958D30910582
:100A500010F00C9702C081E090E09B8F8A8F20916C
:100A60006800E83050F091E0EE3008F490E081E06A
:100A700001C0880F9A95EAF701C084E0822B809329
:100A800068002C85283038F02E3040F0263148F4AC
:100A90008CE690E008C08DE690E005C08BE690E023
:100AA00002C080E090E09C8B8B8B283030F481E09A
:100AB00001C0880F2A95EAF70DC0822F90E02E30F2
:100AC00010F4089701C00E9791E001C0990F8A9524
:100AD000EAF7892F8D8B8C8D9D8D0197F1F7CE01D3
:100AE000DF91CF910C94BA032F923F924F925F9275
:100AF0006F927F928F929F92AF92BF92CF92DF922E
:100B0000EF92FF920F931F93CF93DF93CDB7DEB792
:100B10002A970FB6F894DEBF0FBECDBF8C017B01C4
:100B2000FB0101900020E9F7E61BF70B3597DB018D
:100B3000AE0FBF1F8C918A3241F421E0822F90E0EA
:100B40008E179F0710F42F5FF9CF62E771E0C7019E
:100B50000E94C11B892B09F468C26CE270E0C701D6
:100B60000E94A71B01961C010E94441B6B017C0183
:100B70000E9409194B015C0120E137E240E050E09E
:100B80000E94CA1AD8012C9344E6442E512C612CA1
:100B9000712CA30192010E94CA1AF8012183C50198
:100BA000B401A30192010E94CA1AD80112966C9353
:100BB00020E030E040E85FE3C701B6010E94791908
:100BC00020E030E04AE754E40E94431A0E940919E9
:100BD000F801778366836CE270E0C1010E94A71B75
:100BE0007C015C01FFEFAF1ABF0ADC0111968C910A
:100BF0008C3209F4A5C042E050E0B501CE01019667
:100C00000E94B21B1B82CE0101960E94661B9B01B3
:100C1000AC0160E876E988E990E00E94A61A2B0111
:100C20003C01B7016D5F7F4F42E050E0CE0101967D
:100C30000E94B21B5701B6E0AB0EB11C44E050E07D
:100C4000B501CE0103960E94B21B1F82CE01019610
:100C50000E94661B9B01AC01A2E3B0E00E940B1B4B
:100C600023E030E040E050E00E94EC1A69017A0194
:100C7000D301C201820F931FA41FB51FF801808BFF
:100C8000918BA28BB38BC301B20120EA36E841E01D
:100C900050E00E94EC1ACA01B9010E9437192B01D9
:100CA0003C01C701B6010E9437192CE933E549EC34
:100CB00056E30E94431A9B01AC01C301B2010E949A
:100CC00034186B017C01D80118966D937D938D9338
:100CD0009C931B9720E030E048EC52E40E949C1863
:100CE0000E9404192B013C0184E6849DB001859D7E
:100CF000700D1124882777FD8095982F0E94371951
:100D00009B01AC01C701B6010E94331820E030E01E
:100D100040E752E40E949C186B017C01B2018827D5
:100D200077FD8095982F0E9437199B01AC01C70170
:100D3000B6010E943418F801608F718F828F938FF3
:100D40006CE270E0C5010E94A71BFC0101962181A5
:100D50002C3211F1233571F4D80158964D915D91E3
:100D60006D917C915B97705858964D935D936D9300
:100D70007C935B9721812E3419F4F80120AF0CC0CD
:100D8000233521F4D801D8962C9306C02C3211F0CB
:100D900080E0BCC3F80110AE6CE270E00E94A71BBB
:100DA0007C015C01FFEFAF1ABF0ADC0111968C9148
:100DB0008C3209F4A5C043E050E0B501CE010196A4
:100DC0000E94B21B1C82CE0101960E94661B9B01F1
:100DD000AC0160E876E988E990E00E94A61A2B0150
:100DE0003C01B7016C5F7F4F42E050E0CE010196BD
:100DF0000E94B21B5701B7E0AB0EB11C44E050E0BB
:100E0000B501CE0103960E94B21B1F82CE0101964E
:100E10000E94661B9B01AC01A2E3B0E00E940B1B89
:100E200023E030E040E050E00E94EC1A69017A01D2
:100E3000D301C201820F931FA41FB51FF801848B39
:100E4000958BA68BB78BC301B20120EA36E841E04F
:100E500050E00E94EC1ACA01B9010E9437192B0117
:100E60003C01C701B6010E9437192CE933E549EC72
:100E700056E30E94431A9B01AC01C301B2010E94D8
:100E800034186B017C01D8011C966D937D938D9372
:100E90009C931F9720E030E048EC52E40E949C189D
:100EA0000E9404192B013C0184E6849DB001859DBC
:100EB000700D1124882777FD8095982F0E9437198F
:100EC0009B01AC01C701B6010E94331820E030E05D
:100ED00040E752E40E949C186B017C01B201882714
:100EE00077FD8095982F0E9437199B01AC01C701AF
:100EF000B6010E943418F801648F758F868F978F22
:100F00006CE270E0C5010E94A71BFC0101962181E3
:100F10002C3209F1273571F4D8015C964D915D9121
:100F20006D917C915F9770585C964D935D936D9336
:100F30007C935F972181273519F4F80121AF0BC00D
:100F4000253421F4D801D9962C9305C02C3209F010
:100F50001FCFF80111AE6CE270E00E94A71B7C016C
:100F6000FFEFEF1AFF0ADC0111968C918C3229F009
:100F7000C7010E94481BF80184AF6CE270E0C70112
:100F80000E94A71B7C01FFEFEF1AFF0ADC011196FC
:100F90008C918C3229F0C7010E94481BF80185AF63
:100FA0006CE270E0C7010E94A71B7C01FFEFEF1A03
:100FB000FF0ADC0111968C918C3241F0C7010E942E
:100FC000441BF80164AB75AB86AB97AB6CE270E089
:100FD000C7010E94A71B7C01FFEFEF1AFF0ADC018B
:100FE00011968C918C3241F0C7010E94441BF8018C
:100FF00064A375A386A397A36CE270E0C7010E9467
:10100000A71B6CE270E001960E94A71BDC01119601
:101010002C912C3209F479C201960E94441BF801EC
:1010200060A371A382A393A370C269E771E0C701B3
:101030000E94C11B892B09F4ABCE6CE270E0C701A2
:101040000E94A71B01961C010E94441B6B017C019E
:101050000E9409194B015C0120E137E240E050E0B9
:101060000E94CA1AD8012C9334E6432E512C612CCD
:10107000712CA30192010E94CA1AF8012183C501B3
:10108000B401A30192010E94CA1AD80112966C936E
:1010900020E030E040E85FE3C701B6010E94791923
:1010A00020E030E04AE754E40E94431A0E94091904
:1010B000F801778366836CE270E0C1010E94A71B90
:1010C000DC0111962C91213421F421E0F80123AFA9
:1010D00006C0263509F05CCED801DB961C926CE286
:1010E00070E001960E94A71B7C015C01BFEFAB1A68
:1010F000BB0AFC0181818C3209F4A5C042E050E0BA
:10110000B501CE0101960E94B21B1B82CE01019651
:101110000E94661B9B01AC0160E876E988E990E0DB
:101120000E94A61A2B013C01B7016D5F7F4F42E080
:1011300050E0CE0101960E94B21B5701F6E0AF0EBF
:10114000B11C44E050E0B501CE0103960E94B21BF1
:101150001F82CE0101960E94661B9B01AC01A2E397
:10116000B0E00E940B1B23E030E040E050E00E9422
:10117000EC1A69017A01D301C201820F931FA41FE7
:10118000B51FF801808B918BA28BB38BC301B20189
:1011900020EA36E841E050E00E94EC1ACA01B901A9
:1011A0000E9437192B013C01C701B6010E94371973
:1011B0002CE933E549EC56E30E94431A9B01AC014C
:1011C000C301B2010E9434186B017C01D80118964A
:1011D0006D937D938D939C931B9720E030E048ECBA
:1011E00052E40E949C180E9404192B013C0184E6E1
:1011F000849DB001859D700D1124882777FD809511
:10120000982F0E9437199B01AC01C701B6010E94BB
:10121000331820E030E040E752E40E949C186B0154
:101220007C01B201882777FD8095982F0E9437199D
:101230009B01AC01C701B6010E943418F801608F10
:10124000718F828F938F6CE270E0C5010E94A71BA3
:10125000FC01019621812C3209F1233571F4D8016A
:1012600058964D915D916D917C915B977058589611
:101270004D935D936D937C935B9721812E3419F48C
:10128000F80120AF0BC0233521F4D801D8962C9358
:1012900005C02C3209F07CCDF80110AE6CE270E094
:1012A0000E94A71B7C015C01FFEFAF1ABF0ADC01A3
:1012B00011968C918C3209F4A5C043E050E0B50141
:1012C000CE0101960E94B21B1C82CE0101960E94A3
:1012D000661B9B01AC0160E876E988E990E00E941A
:1012E000A61A2B013C01B7016C5F7F4F42E050E032
:1012F000CE0101960E94B21B5701B7E0AB0EB11CA4
:1013000044E050E0B501CE0103960E94B21B1F825B
:10131000CE0101960E94661B9B01AC01A2E3B0E0E6
:101320000E940B1B23E030E040E050E00E94EC1AEA
:1013300069017A01D301C201820F931FA41FB51F57
:10134000F801848B958BA68BB78BC301B20120EA81
:1013500036E841E050E00E94EC1ACA01B9010E944F
:1013600037192B013C01C701B6010E9437192CE93E
:1013700033E549EC56E30E94431A9B01AC01C301DB
:10138000B2010E9434186B017C01D8011C966D9348
:101390007D938D939C931F9720E030E048EC52E4BE
:1013A0000E949C180E9404192B013C0184E6849D34
:1013B000B001859D700D1124882777FD8095982FA9
:1013C0000E9437199B01AC01C701B6010E94331876
:1013D00020E030E040E752E40E949C186B017C0161
:1013E000B201882777FD8095982F0E9437199B01BD
:1013F000AC01C701B6010E943418F801648F758FE3
:10140000868F978F6CE270E0C5010E94A71BFC01DC
:10141000019621812C3209F1273571F4D8015C96AF
:101420004D915D916D917C915F9770585C964D9355
:101430005D936D937C935F972181273519F4F801B3
:1014400021AF0BC0253421F4D801D9962C9305C0C7
:101450002C3209F09DCCF80111AE6CE270E00E94D4
:10146000A71B7C01FFEFEF1AFF0ADC0111968C919C
:101470008C3241F0C7010E94441BF80160A771A79C
:1014800082A793A76CE270E0C7010E94A71B7C01B2
:10149000FFEFEF1AFF0ADC0111968C918C3241F0BC
:1014A000C7010E94441BF80164A775A786A797A7E8
:1014B0006CE270E0C7010E94A71BDC0111962C9121
:1014C0002C3219F101960E94441B0E9409192B012C
:1014D0003C0120E137E240E050E00E94CA1AF801E6
:1014E000258324E6C22ED12CE12CF12CA7019601F4
:1014F0000E94CA1AD80114962C93C301B201A70105
:1015000096010E94CA1AF801638381E02A960FB6F9
:10151000F894DEBF0FBECDBFDF91CF911F910F9129
:10152000FF90EF90DF90CF90BF90AF909F908F9003
:101530007F906F905F904F903F902F900895CF9342
:10154000DF93FC01E65BFF4F2081222311F080E056
:1015500065C0EC01C55BDF4FA881B981109741F0F0
:10156000ED91FC9111970480F581E02DCD010BC028
:10157000EC01C35BDF4F88819981DC01ED91FC9127
:101580000480F581E02D0995892B09F388819981E3
:10159000DC01ED91FC910680F781E02D09958A3000
:1015A00049F59091EE04E091EC04F091ED04E90F1F
:1015B000F11D10822091EC043091ED04B5E0273646
:1015C0003B0739F44FEE54E05093ED044093EC04A4
:1015D00008C027E635E03093ED042093EC042FEEAD
:1015E00034E03093EB042093EA041092EE0491E08F
:1015F0009093E904E091EC04F091ED049091EE04F5
:1016000021E0290F2093EE04E90FF11D80839091D2
:10161000EE04983718F097E79093EE04DF91CF919E
:101620000895FC01DC01A55BBF4F11961C921E9230
:10163000129611961C921E921092E90413971C9216
:101640001092EE0487E695E09093ED048093EC040D
:101650008FEE94E09093EB048093EA0415AE14AE01
:1016600015821482138212821182108212AE11AE80
:1016700010AE13AE1782168214AA15AA16AA17AABC
:1016800010AA11AA12AA13AA14A615A616A617A67E
:1016900010A611A612A613A614A215A216A217A28E
:1016A00010A211A212A213A21486158616861786FE
:1016B000108611861286138608950F931F93CF9379
:1016C000DF93EC018B010E94110BC55BDF4F198387
:1016D0000883DF91CF911F910F910895FC01E55B85
:1016E000FF4F20813181AB0160E070E021153105B1
:1016F00021F0C9010E94E60408C0FC01E35BFF4F32
:1017000026E0808191810E94E2156AE070E080E02D
:1017100090E00C94C7138091E90408951092E904B5
:101720008091EA049091EB04089581E00895FC0112
:1017300065830895FC0164830895FC016287089520
:10174000FC0163870895FC01648708954095FC01BE
:1017500025854223462B45870895FC0186810895FF
:10176000FC0187810895FC0180850895FC01818535
:10177000089580E00895CF93DF93EC01E881F9812B
:101780000280F381E02DCE010995811103C00E94F2
:10179000DE12F4CFDF91CF910895CF93DF93EC0168
:1017A0008A819B81039719F40E94DE12F9CF81E0B0
:1017B000DF91CF9108958F929F92AF92BF92CF9277
:1017C000DF92EF92FF92CF93DF93EC016B010E94C7
:1017D00098134B015C01E12CF12C0E9498136819BD
:1017E00079098A099B096C157D058E059F0560F4B2
:1017F000E881F9810280F381E02DCE010995811104
:1018000005C00E94DE12E9CF80E001C081E0DF91D7
:10181000CF91FF90EF90DF90CF90BF90AF909F90CF
:101820008F9008958F929F92AF92BF92CF92DF9246
:10183000EF92FF92CF93DF93EC016B010E9498131C
:101840004B015C01E12CF12C0E9498136819790975
:101850008A099B096C157D058E059F0538F48A81E0
:101860009B81039729F40E94DE12EECF80E001C035
:1018700081E0DF91CF91FF90EF90DF90CF90BF900C
:10188000AF909F908F900895FC0185EE91E0918339
:101890008083138212828FEF8483828783871486EA
:1018A0001586108A1786128A118A148A138A089557
:1018B00008950895FC01758364830895FC0177837E
:1018C00066830895FC01738362830895FC0181E1BE
:1018D00092E091838083738362835583448337834B
:1018E000268308956EBD00000DB407FEFDCF8EB5B2
:1018F00008958CB580688CBD08958CB58F778CBDAC
:101900000895FC01268137812115310579F02130B8
:10191000310541F02230310539F02330310531F401
:101920009CE005C094E003C098E001C090E08CB555
:10193000837F892B8CBD84819581019719F48CB5A7
:10194000806202C08CB58F7D8CBD828193810197AE
:101950008430910528F4FC01EF5DFD4F908101C0BA
:1019600091E02CB5892F83702C7F822B8CBD8DB597
:1019700092FB992790F98E7F892B8DBD0C94B6022E
:101980000C94EC02CF93DF93EC010E94660C89E289
:1019900092E099838883DF91CF91089520E030E031
:1019A00040E050E060E070E08FED95E00C94C20CF8
:1019B000CF93DF93EC018D899E89DC01ED91FC9141
:1019C0000680F781E02D099561E08F890E946514FA
:1019D00061E08F890E949E1464E670E080E090E0F0
:1019E0000E94C71381E0DF91CF910895EF92FF929B
:1019F0000F931F93CF93DF931F92CDB7DEB77C0178
:101A00008A0169830E94440C8DE392E0F70191837F
:101A10008083168B058B6981678B0F90DF91CF9147
:101A20001F910F91FF90EF9008950F931F93CF9305
:101A3000DF93EC01062F1FB7F89460E08F890E94B6
:101A40009E148D899E89DC01ED91FC91602F6F774A
:101A50000190F081E02D09958D899E89DC01ED9141
:101A6000FC910190F081E02D60E00995082F61E084
:101A70008F890E949E141FBF802FDF91CF911F91ED
:101A80000F910895EF92FF920F931F93CF93DF93DF
:101A90001F92CDB7DEB77C01162F0FB7F89460E028
:101AA000DC0157968C9149830E949E14F701858929
:101AB0009689DC01ED91FC91612F60680190F081C5
:101AC000E02D0995182FF70185899689DC01ED91A4
:101AD000FC910190F081E02D4981642F099561E02E
:101AE000F70187890E949E140FBF812F0F90DF910D
:101AF000CF911F910F91FF90EF900895AF92BF92F9
:101B0000DF92EF92FF920F931F93CF93DF9300D05A
:101B1000CDB7DEB78C01D62EF22EEFB6F89460E08A
:101B2000DC0157968C9149835A830E949E14F801D8
:101B300085899689DC01ED91FC916D2D6F7701907F
:101B4000F081E02D0995D82E4981A42E5A81B52E19
:101B5000F40EFA1479F0F80185899689DC01ED918B
:101B6000FC910190F081E02D60E00995F5018193F1
:101B70005F01EFCF61E0D80157968C910E949E14CF
:101B8000EFBE8D2D0F900F90DF91CF911F910F9190
:101B9000FF90EF90DF90BF90AF900895AF92BF920B
:101BA000DF92EF92FF920F931F93CF93DF9300D0BA
:101BB000CDB7DEB78C01D62EF22EEFB6F89460E0EA
:101BC000DC0157968C9149835A830E949E14F80138
:101BD00085899689DC01ED91FC916D2D60680190FD
:101BE000F081E02D0995D82E4981A42E5A81B52E79
:101BF000F40EFA1471F0F80185899689D5016D917A
:101C00005D01DC01ED91FC910190F081E02D0995E1
:101C1000F0CF61E0F80187890E949E14EFBE8D2D00
:101C20000F900F90DF91CF911F910F91FF90EF9048
:101C3000DF90BF90AF900895CF93DF93EC018F8931
:101C40000E94D41421E0892B09F420E08A8D822798
:101C5000DF91CF910895FC01808D0C949E14FC01BE
:101C6000238D6227818D0C949E14CF93DF93EC011A
:101C70008A819B81029761F060E0CE010E942F0E65
:101C800060E0CE010E942B0E82E090E09B838A836D
:101C9000DF91CF910895862F86958695887098E07C
:101CA000980F891749F0E82FF0E0EB59FD4F20819C
:101CB000621719F08F5FF5CF80E008951F93CF93DF
:101CC000DF93EC010E941C0E882319F09F8D9F5F0B
:101CD0009F8F9E8D891771F098A1903518F42BE095
:101CE00030E002C02DE130E098A1290F311D28A37A
:101CF0008E8F03C088A18C5E88A388A1803A08F4E7
:101D00006EC08AA19BA1969587959BA38AA38F8D70
:101D1000853028F08AA19BA198609BA38AA388A103
:101D2000805A88A31F8E89A1882309F446C08CA1FC
:101D30008F5F8CA38C3008F452C06AA17BA16F73B3
:101D4000CE010E944B0E182F6AA17BA146E076952A
:101D500067954A95E1F7CE010E944B0E90E1199FDD
:101D600090011124822BBE0167597F4FFB019081A6
:101D7000DE01A859BF4F9923B1F0FB01908121E00A
:101D8000290F2083AE01490F511DFA0185A3FB01E4
:101D900090818C91981778F019A281E08C8FCE01F8
:101DA0000E94350E08C08C939C91973090F09C91C6
:101DB000943478F4E2CF1CA212C08AA19BA188338C
:101DC0009B4069F481E089A31CA2C759DF4F1882A8
:101DD00006C019A28F8598890196988B8F87DF910D
:101DE000CF911F910895CF92DF92EF92FF920F93C0
:101DF0001F93CF93DF93EC018C0104591F4FF8011F
:101E0000808191E0980F9083811136C06E01FAE6CF
:101E1000CF0ED11CF6018081EF56FF4F90818917BC
:101E200048F0CE010E94350E8B899C8901969C8BCF
:101E30008B8B22C0FE01E80FF11DE359FF4F60813B
:101E400070E07E01FBE6EF0EF11CF701808191E06E
:101E5000980F908302C0759567958A95E2F7617037
:101E6000CE010E942B0EF7018081863028F010826F
:101E7000F60180818F5F8083F8018081883008F0CF
:101E80001082DF91CF911F910F91FF90EF90DF9023
:101E9000CF900895FC01228133812430310511F463
:101EA0000C945E0EFC01228133812330310511F444
:101EB0000C94F30E08951F920F920FB60F921124F7
:101EC0002F933F934F935F936F937F938F939F9342
:101ED000AF93BF93EF93FF938091E7059091E8054F
:101EE0000E944A0FFF91EF91BF91AF919F918F9107
:101EF0007F916F915F914F913F912F910F900FBE06
:101F00000F901F9018958BEF0895CF93DF93EC01FE
:101F10008A819B81019749F040E061E0CE010E94F7
:101F2000420D81E090E09B838A8381E0DF91CF9135
:101F300008951F93CF93DF93EC01142FA9010E9402
:101F4000F60C89E992E099838883FE01E65EFE4FF4
:101F50001082188F8FEF898FDF91CF911F91089595
:101F6000FC01828D8430D8F0838D8683848D8783B5
:101F7000858D8087868D81878581811107C09681B7
:101F80008481981719F086818F3F49F4818992895D
:101F90000196928B818BE65EFE4F81E080830895EF
:101FA0002FB7F894FC01E65EFE4F1082FC01128E02
:101FB0002FBF0895CF92DF92EF92FF920F931F935E
:101FC000CF93DF93EC017B018A01E881F9810280E4
:101FD000F381E02D0995D82E882311F1E114F10445
:101FE000E1F001151105C9F0CFB6F8942A8D30E063
:101FF00023503109F801408150E0421753071CF08B
:102000009A8D94509083F801408150E0BE01615E4A
:102010007F4FC7010E949E1BCFBECE010E94D00FF2
:102020008D2DDF91CF911F910F91FF90EF90DF9059
:10203000CF900895CF92DF92EF92FF92CF93DF93EC
:10204000EC01CB01BA0120E034E244E759E40E94FC
:10205000431A20E034E244E752E40E949C180E94B4
:1020600009196B017C01A7016627772766E0CE017D
:102070000E94420D77276F2D5E2D4D2D67E0CE011A
:102080000E94420D4C2D68E0CE010E94420D81E07D
:10209000DF91CF91FF90EF90DF90CF900895CF9395
:1020A000DF93EC018A819B81029749F041E061E076
:1020B000CE010E94420D82E090E09B838A83DF91F3
:1020C000CF9108951F93CF93DF93EC0162E10E94BB
:1020D000150D2A813B812430310519F4982F907A0F
:1020E00041F42A813B8124303105E1F586FD0EC0A3
:1020F00039C08F8598890196988B8F874FEF62E161
:10210000CE01DF91CF911F910C94420D63E1CE017E
:102110000E94150D182F60E1CE010E94150D482F69
:102120006DE0CE010E94420D212FAE01455E5F4F52
:1021300060E0CE010E947E0D1A8F4FEF62E1CE016A
:102140000E94420D6AE1CE010E94150D89588E87CA
:10215000CE010E94B00FFE01E65EFE4F8081882313
:1021600069F20CC02A813B812330310539F683FFA7
:10217000C5CF8B899C8901969C8B8B8BCE010E944D
:102180004F10BCCF8091EA059091EB05009711F0BC
:102190000C94621008958091EC059091ED050097E4
:1021A00011F00C94621008958091EE059091EF0566
:1021B000009711F00C9462100895CF93DF93EC0117
:1021C0008A819B81049771F045E061E0CE010E9415
:1021D000420D40E060E4CE010E94420D84E090E0B8
:1021E0009B838A83DF91CF910895CF93DF93EC0196
:1021F0008A819B81039739F0CE010E94DD10C65E73
:10220000DE4F888101C080E0DF91CF910895CF93A8
:10221000DF93EC018A819B81039771F043E061E0D9
:10222000CE010E94420D40E460E4CE010E94420DC6
:1022300083E090E09B838A83DF91CF910895FF92A2
:102240000F931F93CF93DF93EC018B01F42E8BEF51
:102250008417A0F1E881F9810484F585E02DCE0191
:102260000995CE010E944F1040E06DE0CE010E9422
:10227000420D4A8560E0CE010E94420D4B8560E030
:10228000CE010E94420D4C8560E0CE010E94420DBD
:102290004D8560E0CE010E94420D2F2DA80160E027
:1022A000CE010E94CE0D44E04F0D62E2CE010E94AD
:1022B000420DCE010E94071181E001C080E0DF9154
:1022C000CF911F910F91FF9008951F93CF93DF93AC
:1022D000EC01162F68312CF465305CF0653154F058
:1022E00001C017E147E06DE4CE010E94420D13509A
:1022F00006C015E044E06DE4CE010E94420D4BEFB4
:10230000410F406869E0CE01DF91CF911F910C949D
:10231000420D0F931F93CF93DF93EC018B01FB01D1
:1023200040816DE10E94420DF80141816EE1CE01D4
:102330000E94420DF801428166E2CE01DF91CF9109
:102340001F910F910C94420D0F931F93CF93DF9326
:1023500000D01F92CDB7DEB78C0165307105B4F4A3
:102360009B01220F331F260F371F28593F4F43E091
:1023700050E0B901CE0101960E94951BBE016F5F2E
:102380007F4FC8010E94891181E001C080E00F9059
:102390000F900F90DF91CF911F910F9108951F9390
:1023A000CF93DF93EC01162F472F60E20E94420D7E
:1023B000412F61E2CE01DF91CF911F910C94420D2C
:1023C000FF920F931F93CF93DF93EC010E94D80CE1
:1023D000F82E811102C0F12C9FC0888D823029F027
:1023E000833031F401E010E005C000E010E002C0ED
:1023F0000FEF1FEF68E772E080E396E00E94371767
:102400004AE050E06AE070E080E396E00E94F7174F
:1024100060E872E080E396E00E9437174AE050E0FF
:10242000688D80E396E00E941C1869E872E080E302
:1024300096E00E9437174AE050E0B80180E396E04A
:102440000E94F7170F3F8FEF180729F240E861E06D
:10245000CE010E94420D6AE070E080E090E00E94B0
:10246000C71361E0CE010E94150D803809F0B3CF8B
:1024700060E0888D0E946514898D8F3F51F48091B2
:10248000E905843008F0A7CF91E0980F9093E90513
:10249000898F998DE92FF0E0EE0FFF1FE651FA4F7B
:1024A000D183C083911105C043E050E062EC70E13C
:1024B0000EC0913029F443E050E06BEC70E107C0AE
:1024C000923009F088CF43E050E064ED70E1802F56
:1024D0000E94E01240E06EE0CE010E94420D40E01A
:1024E0006FE0CE010E94420DCE010E944F1060E0CD
:1024F00070E0CE010E94A41168E070E0CE010E945D
:10250000CF1140E050EC64E674E4CE010E941A1052
:102510006DE0CE010E9465118F2DDF91CF911F914B
:102520000F91FF9008950F931F93CF93DF93EC01CA
:10253000662359F00E94981369837A838B839C8366
:10254000DF91CF911F910F9108950E9498130981F7
:102550001A812B813C81601B710B820B930B6132C2
:1025600071058105910530F763E070E080E090E04F
:102570000E94C713EACF60E00C949312FC0113AAE7
:1025800014AA15AA16AA1182128213821482411566
:1025900051056105710521F0CB01BA010C94C713F7
:1025A0000895FB01BA01A901DC01D296FC93EE93D8
:1025B000D19726E0CF010C94E2150895089508956F
:1025C0008230E8F4E82FF0E0EE0FFF1FEC5FFE4FE3
:1025D00071836083813041F0809169008C7F842B0E
:1025E00080936900E89A089580916900440F551F0F
:1025F000440F551F837F842B80936900E99A0895C7
:102600001F920F920FB60F9211242F933F934F9367
:102610005F936F937F938F939F93AF93BF93EF934A
:10262000FF93E0910401F09105010995FF91EF916D
:10263000BF91AF919F918F917F916F915F914F91DA
:102640003F912F910F900FBE0F901F9018951F92E2
:102650000F920FB60F9211242F933F934F935F93D6
:102660006F937F938F939F93AF93BF93EF93FF935A
:10267000E0910601F09107010995FF91EF91BF915B
:10268000AF919F918F917F916F915F914F913F910A
:102690002F910F900FBE0F901F9018951F920F92C1
:1026A0000FB60F9211242F933F938F939F93AF9365
:1026B000BF938091280690912906A0912A06B09197
:1026C0002B063091270623E0230F2D3720F40196A7
:1026D000A11DB11D05C026E8230F0296A11DB11D45
:1026E000209327068093280690932906A0932A0614
:1026F000B0932B0680912C0690912D06A0912E066A
:10270000B0912F060196A11DB11D80932C069093C8
:102710002D06A0932E06B0932F06BF91AF919F91E7
:102720008F913F912F910F900FBE0F901F90189592
:102730002FB7F894609128067091290680912A0697
:1027400090912B062FBF08953FB7F89480912C06E7
:1027500090912D06A0912E06B0912F0626B5A89B2C
:1027600005C02F3F19F00196A11DB11D3FBF66277F
:10277000782F892F9A2F620F711D811D911D42E0C4
:10278000660F771F881F991F4A95D1F708958F927A
:102790009F92AF92BF92CF92DF92EF92FF926B0126
:1027A0007C010E94A4134B015C01C114D104E1041B
:1027B000F104F1F00E94DE120E94A4136819790955
:1027C0008A099B09683E73408105910570F321E0F9
:1027D000C21AD108E108F10888EE880E83E0981E3D
:1027E000A11CB11CC114D104E104F10429F7DDCF0F
:1027F000FF90EF90DF90CF90BF90AF909F908F9021
:102800000895789484B5826084BD84B5816084BD68
:1028100085B5826085BD85B5816085BDEEE6F0E059
:10282000808181608083E1E8F0E0108280818260B5
:102830008083808181608083E0E8F0E08081816036
:102840008083E1EBF0E0808184608083E0EBF0E066
:10285000808181608083EAE7F0E08081846080830A
:1028600080818260808380818160808380818068B4
:1028700080831092C1000895833081F028F4813064
:1028800099F08230A1F008958730A9F08830B9F02E
:102890008430D1F4809180008F7D03C080918000CE
:1028A0008F7780938000089584B58F7702C084B5B8
:1028B0008F7D84BD08958091B0008F7703C0809193
:1028C000B0008F7D8093B0000895CF93DF9390E0A8
:1028D000FC01E857FF4F2491FC01E456FF4F84911F
:1028E000882349F190E0880F991FFC01EC53FF4FBA
:1028F000A591B49186549F4FFC01C591D4919FB787
:10290000611108C0F8948C91209582238C93888162
:1029100082230AC0623051F4F8948C91322F3095A2
:1029200083238C938881822B888304C0F8948C91B4
:10293000822B8C939FBFDF91CF9108950F931F93AC
:10294000CF93DF931F92CDB7DEB7282F30E0F90188
:10295000EC58FF4F8491F901E857FF4F1491F901AA
:10296000E456FF4F04910023C9F0882321F06983C6
:102970000E943C146981E02FF0E0EE0FFF1FE65447
:10298000FF4FA591B4919FB7F8948C91611103C04A
:102990001095812301C0812B8C939FBF0F90DF91F5
:1029A000CF911F910F910895CF93DF93282F30E09F
:1029B000F901EC58FF4F8491F901E857FF4FD4918A
:1029C000F901E456FF4FC491CC2391F081110E948C
:1029D0003C14EC2FF0E0EE0FFF1FE055FF4FA591E8
:1029E000B4912C912D2381E090E021F480E002C08D
:1029F00080E090E0DF91CF9108950E943F1BFC01A1
:102A0000818D228D90E0805C9F4F821B91098F7396
:102A100099270895FC01918D828D981731F0828D50
:102A2000E80FF11D858D90E008958FEF9FEF0895D9
:102A3000FC01918D828D981761F0828DDF01A80FC6
:102A4000B11D5D968C91928D9F5F9F73928F90E0E8
:102A500008958FEF9FEF08958CE996E1892B49F057
:102A600080E090E0892B29F00E949C1681110C9443
:102A700000000895FC01848DDF01A80FB11DA35A49
:102A8000BF4F2C91848D90E001968F739927848F8E
:102A9000A689B7892C93A089B1898C9180648C9385
:102AA000938D848D981306C00288F389E02D808170
:102AB0008F7D80830895CF93DF93EC01888D8823E9
:102AC000C9F0EA89FB89808185FD05C0A889B9899B
:102AD0008C9186FD0FC00FB607FCF5CF808185FF76
:102AE000F2CFA889B9898C9185FFEDCFCE010E94E4
:102AF0003A15E7CFDF91CF910895CF92DF92FF9201
:102B00000F931F93CF93DF931F92CDB7DEB76C0166
:102B100081E0D60158968C9358975B969C915B9771
:102B20005C968C915C97981307C05096ED91FC9140
:102B30005197808185FD2EC0F601038D10E00F5F57
:102B40001F4F0F731127F02EF601848DF81211C05C
:102B50000FB607FCF9CFD6015096ED91FC91519735
:102B6000808185FFF1CFC60169830E943A15698192
:102B7000EBCF838DE80FF11DE35AFF4F6083D60141
:102B80005B960C935B975296ED91FC9153978081E5
:102B900080620CC0D6015696ED91FC9157976083E8
:102BA0005096ED91FC91519780818064808381E003
:102BB00090E00F90DF91CF911F910F91FF90DF90E8
:102BC000CF900895BF92CF92DF92EF92FF92CF9372
:102BD000DF93EC016A017B01B22EE889F98982E07A
:102BE0008083411581EE580761057105A1F060E011
:102BF00079E08DE390E0A70196010E94CA1A215066
:102C00003109410951095695479537952795211561
:102C100080E1380798F0E889F989108260E874E863
:102C20008EE190E0A70196010E94CA1A2150310955
:102C3000410951095695479537952795EC85FD85AE
:102C40003083EE85FF852083188EEC89FD89B08264
:102C5000EA89FB89808180618083EA89FB898081A0
:102C600088608083EA89FB89808180688083EA8923
:102C7000FB8980818F7D8083DF91CF91FF90EF90E2
:102C8000DF90CF90BF9008951F920F920FB60F92D2
:102C900011242F938F939F93EF93FF93E09140061E
:102CA000F09141068081E0914606F091470682FD51
:102CB00012C09081809149068F5F8F7320914A06E0
:102CC000821751F0E0914906F0E0E05DF94F958FF1
:102CD0008093490601C08081FF91EF919F918F9170
:102CE0002F910F900FBE0F901F9018951F920F926B
:102CF0000FB60F9211242F933F934F935F936F93CF
:102D00007F938F939F93AF93BF93EF93FF9380E352
:102D100096E00E943A15FF91EF91BF91AF919F917C
:102D20008F917F916F915F914F913F912F910F9074
:102D30000FBE0F901F90189580E396E00E94FF143D
:102D400021E0892B09F420E0822F089510923306A8
:102D50001092320688EE93E0A0E0B0E08093340653
:102D600090933506A0933606B093370685EC92E033
:102D7000909331068093300685EC90E090933D0669
:102D800080933C0684EC90E090933F0680933E064F
:102D900080EC90E0909341068093400681EC90E0B7
:102DA000909343068093420682EC90E09093450610
:102DB0008093440686EC90E0909347068093460605
:102DC0001092490610924A0610924B0610924C0639
:102DD000089508950E9401140E94E9160E941A01A4
:102DE000CCE2D5E10E94A0012097E1F30E942C15CE
:102DF000F9CFCF92DF92EF92FF920F931F93CF9371
:102E0000DF937C016A01EB0100E010E00C151D0569
:102E100071F06991D701ED91FC910190F081E02D65
:102E2000C7010995892B19F00F5F1F4FEFCFC8011C
:102E3000DF91CF911F910F91FF90EF90DF90CF9096
:102E400008956115710581F0DB010D900020E9F70F
:102E5000AD0141505109461B570BDC01ED91FC912E
:102E60000280F381E02D099480E090E008950C94B5
:102E70002117DC01ED91FC910190F081E02D099486
:102E800067E171E00C9421170F931F93CF93DF93A9
:102E9000EC010E9421178C01CE010E944017800F87
:102EA000911FDF91CF911F910F9108958F929F9263
:102EB000AF92BF92DF92EF92FF920F931F93CF9347
:102EC000DF93CDB7DEB7A1970FB6F894DEBF0FBE84
:102ED000CDBF7C01F42FD52ECB0119A2223008F4EE
:102EE0002AE08E010F5D1F4F822E912CA12CB12C58
:102EF0006F2F7D2DA50194010E94CA1AF22FD32EA7
:102F0000CA01015011096A3014F4E0E301C0E7E39B
:102F1000E60FD801EC93232B242B252B49F7B8017E
:102F2000C7010E942117A1960FB6F894DEBF0FBE0D
:102F3000CDBFDF91CF911F910F91FF90EF90DF9068
:102F4000BF90AF909F908F900895CF92DF92EF92B5
:102F5000FF920F931F93CF93DF93EC016A017B01E4
:102F60002115310579F4E881F9810190F081E02D96
:102F7000642FDF91CF911F910F91FF90EF90DF9021
:102F8000CF9009942A303105E9F477FF1AC06DE239
:102F90000E9439178C0144275527BA014C195D0945
:102FA0006E097F092AE0CE010E945617800F911FFB
:102FB000DF91CF911F910F91FF90EF90DF90CF9015
:102FC00008952AE0B701A601CE01DF91CF911F91AC
:102FD0000F91FF90EF90DF90CF900C9456179A01CD
:102FE000AB01662757FD6095762F0C94A5170F93BC
:102FF0001F93CF93DF93EC019A01AB01662757FD36
:103000006095762F0E94A5178C01CE010E94401773
:10301000800F911FDF91CF911F910F91089521157E
:10302000310541F4DC01ED91FC910190F081E02D3E
:10303000642F09940C9456170F931F93CF93DF932B
:10304000EC019A01462F50E060E070E00E940F18FA
:103050008C01CE010E944017800F911FDF91CF910C
:103060001F910F9108955058BB27AA270ED0D1C1A8
:10307000C2D130F0C7D120F031F49F3F11F41EF4DB
:10308000B7C10EF4E095E7FB9FC1E92FD3D180F3E0
:10309000BA17620773078407950718F071F49EF555
:1030A000EBC10EF4E0950B2EBA2FA02D0B01B90148
:1030B00090010C01CA01A0011124FF27591B99F0AE
:1030C000593F50F4503E68F11A16F040A22F232FBA
:1030D000342F4427585FF3CF469537952795A7950A
:1030E000F0405395C9F77EF41F16BA0B620B730BB1
:1030F000840BBAF09150A1F0FF0FBB1F661F771F22
:10310000881FC2F70EC0BA0F621F731F841F48F4D6
:10311000879577956795B795F7959E3F08F0B3CF5C
:103120009395880F08F09927EE0F97958795089546
:1031300027D108F481E008950CD06BC163D140F031
:103140005AD130F021F45F3F19F03EC1511195C1C1
:103150004FC170D198F39923C9F35523B1F3951B4F
:10316000550BBB27AA2762177307840738F09F5FA8
:103170005F4F220F331F441FAA1FA9F333D00E2E17
:103180003AF0E0E830D091505040E695001CCAF784
:1031900029D0FE2F27D0660F771F881FBB1F261749
:1031A00037074807AB07B0E809F0BB0B802DBF011C
:1031B000FF2793585F4F2AF09E3F510568F004C1E6
:1031C0005CC15F3FECF3983EDCF38695779567959D
:1031D000B795F7959F5FC9F7880F911D96958795CD
:1031E00097F90895E1E0660F771F881FBB1F6217EC
:1031F00073078407BA0720F0621B730B840BBA0BAA
:10320000EE1F88F7E095089504D06894B11135C198
:10321000089518D188F09F5790F0B92F9927B7518A
:10322000A0F0D1F0660F771F881F991F1AF0BA958A
:10323000C9F712C0B13081F01FD1B1E008951CC1AF
:10324000672F782F8827B85F39F0B93FCCF3869580
:1032500077956795B395D9F73EF4909580957095DD
:1032600061957F4F8F4F9F4F0895E89409C097FB5A
:103270003EF490958095709561957F4F8F4F9F4F4D
:103280009923A9F0F92F96E9BB279395F695879591
:1032900077956795B795F111F8CFFAF4BB0F11F454
:1032A00060FF1BC06F5F7F4F8F4F9F4F16C08823FB
:1032B00011F096E911C0772321F09EE8872F762F31
:1032C00005C0662371F096E8862F70E060E02AF072
:1032D0009A95660F771F881FDAF7880F969587955E
:1032E00097F9089588D018F011F08CD038F480C088
:1032F000C4C0E92F9FD0B0F35523C9F3E7FB621791
:10330000730784079507A8F199F3E92FFF2788230E
:103310002AF03197660F771F881FDAF7952F552708
:10332000442332F091505040220F331F441FD2F7F4
:10333000BB27E91BF50B621B730B840BB109C1F2B0
:1033400022F4620F731F841FB11D31972AF0660F9C
:10335000771F881FBB1FEFCF915050405AF041F0AC
:10336000882332F0660F771F881F91505040C1F7B5
:10337000939530C08695779567959F5FD9F7F8CF7D
:10338000990F0008550FAA0BE0E8FEEF1616170676
:10339000E807F907C0F012161306E407F50798F0DE
:1033A000621B730B840B950B39F40A2661F0232BF7
:1033B000242B252B21F408950A2609F4A140A69573
:1033C0008FEF811D811D089597F99F6780E870E058
:1033D00060E008959F3F31F0915020F487957795F4
:1033E0006795B795880F911D9695879597F90895DC
:1033F0009FEF80EC089500240A941616170618060D
:103400000906089500240A941216130614060506E8
:103410000895092E0394000C11F4882352F0BB0F79
:1034200040F4BF2B11F460FF04C06F5F7F4F8F4FDC
:103430009F4F089557FD9058440F551F59F05F3F17
:1034400071F04795880F97FB991F61F09F3F79F0C6
:1034500087950895121613061406551FF2CF469548
:10346000F1DF08C0161617061806991FF1CF8695CA
:103470007105610508940895E894BB2766277727AE
:10348000CB0197F908950BD0C4CFB5DF28F0BADF90
:1034900018F0952309F098CFABCF1124EECFCADFF7
:1034A000A0F3959FD1F3950F50E0551F629FF00157
:1034B000729FBB27F00DB11D639FAA27F00DB11DB0
:1034C000AA1F649F6627B00DA11D661F829F222739
:1034D000B00DA11D621F739FB00DA11D621F839FC0
:1034E000A00D611D221F749F3327A00D611D231F96
:1034F000849F600D211D822F762F6A2F11249F57E4
:1035000050408AF0E1F088234AF0EE0FFF1FBB1F06
:10351000661F771F881F91505040A9F79E3F5105A5
:1035200070F052CFAACF5F3FECF3983EDCF3869564
:1035300077956795B795F795E7959F5FC1F7FE2B50
:10354000880F911D9695879597F90895DB018F93C4
:103550009F930E940B1BBF91AF91A29F800D911D65
:10356000A39F900DB29F900D1124089597FB072EF5
:1035700016F4009407D077FD09D00E94161B07FCB3
:1035800005D03EF4909581959F4F08957095619573
:103590007F4F0895A1E21A2EAA1BBB1BFD010DC08F
:1035A000AA1FBB1FEE1FFF1FA217B307E407F507F3
:1035B00020F0A21BB30BE40BF50B661F771F881FCF
:1035C000991F1A9469F760957095809590959B0165
:1035D000AC01BD01CF010895052E97FB1EF40094A8
:1035E0000E94031B57FD07D00E94CA1A07FC03D094
:1035F0004EF40C94031B50954095309521953F4F08
:103600004F4F5F4F089590958095709561957F4FCE
:103610008F4F9F4F08950E94301BA59F900DB49F20
:10362000900DA49F800D911D11240895AA1BBB1B12
:1036300051E107C0AA1FBB1FA617B70710F0A61BB2
:10364000B70B881F991F5A95A9F780959095BC01D3
:10365000CD010895EE0FFF1F0590F491E02D099420
:10366000A29FB001B39FC001A39F700D811D1124C3
:10367000911DB29F700D811D1124911D089581E04F
:1036800090E0F8940C94AD1D662777270C94F81BF6
:10369000FC0188279927E89421912032E9F3293009
:1036A00010F02E30C8F32B3241F02D3239F46894EB
:1036B00004C00E94F01B820F911D219120532A30DB
:1036C000C0F31EF4909581959F4F08951F93FC01C0
:1036D00099278827BC01E89411911032E9F3193039
:1036E00010F01E30C8F31B3251F01D3249F46894BB
:1036F00006C00E94DB1B610F711D811D911D119180
:1037000010531A30B0F33EF4909580957095619502
:103710007F4F8F4F9F4F1F9108959111CCC18032E1
:1037200019F089508550D0F70895FB01DC0102C0E3
:1037300005900D9241505040D8F70895FB01DC01EF
:1037400002C001900D9241505040D8F70895FC01FD
:103750008191861721F08823D9F799270895319709
:10376000CF010895FB01DC014150504048F0019029
:103770000D920020C9F701C01D9241505040E0F762
:103780000895FB0151915523A9F0BF01DC014D9132
:1037900045174111E1F759F4CD010190002049F09E
:1037A0004D9140154111C9F3FB014111EFCF81E06B
:1037B00090E001970895592F482F372F262F660F35
:1037C000771F881F991F660F771F881F991F620F29
:1037D000731F841F951F660F771F881F991F0895F9
:1037E0007AE0979F902D879F802D910D1124089549
:1037F000A0E0B0E0EEEFFBE10C947C1D8B016115C5
:10380000710521F0DB018C9311969C93EC015E0114
:10381000BFEFAB1ABB0A7501C8808C2D90E00E94E7
:103820008D1B892B11F0E501F2CFEDE2CE1208C01D
:103830007E01F2E0EF0EF11CC980DD24D39409C0B3
:103840002BE2C21205C07E0142E0E40EF11CC980E9
:10385000D12CE701219743E050E066ED70E0CE0106
:103860000E945E1D892BC1F4239645E050E061ED76
:1038700070E0CE010E945E1D892B09F4259601158A
:10388000110519F0D801CD93DC93D11006C160E089
:1038900070E080E89FE70AC143E050E06EEC70E022
:1038A000CE010E945E1D892B59F40115110509F402
:1038B000F9C0B2E0EB0EF11CF801F182E082F2C037
:1038C000F70160E070E0CB01C0E0D0E07F01A0ED47
:1038D000AA2EAC0C29E02A1530F14D2D4260B42EF1
:1038E0002D2D2870D2FE04C0211125C0219623C0A1
:1038F00021112197A5E0B0E09B01AC010E940B1BB8
:10390000660F771F881F991F6A0D711D811D911DFC
:103910006839A9E97A078A07A9E19A0760F0BD2DFD
:10392000B660BB2E08C02EEFA2120AC0D3FC50C056
:103930004D2D4860B42E3196D701CC90DB2CC6CFEC
:103940002C2D2F7D253409F043C0A081AD3241F4E8
:10395000BD2DB061DB2E7F0122E0E20EF11C0CC018
:103960007F01AB3231F04FEFE41AF40A21E030E08E
:1039700006C0A2E0EA0EF11CA18122E030E0A053D3
:10398000AA3018F0E21AF30A23C0F70120E030E071
:103990002038BCE03B075CF4A901440F551F440FDD
:1039A000551F240F351F220F331F2A0F311DAF0162
:1039B0004F5F5F4F7A01A081A053AA3010F4FA0143
:1039C000E7CFD4FE03C0319521953109C20FD31F33
:1039D000D1FE09C00115110531F0E1E0EE1AF10840
:1039E000D801ED92FC920E9435192D2D23702330C1
:1039F00019F04B015C0106C04B015C01B7FAB094B1
:103A0000B7F8B09420E030E0A901C501B4010E94EC
:103A10009818882309F43EC0D7FF06C0D195C195F8
:103A2000D1090DEE10E002C005E011E06801B8E137
:103A3000CB1AD10890E2E92EF12CCE15DF0574F0F7
:103A4000F8012591359145915491C501B4010E9429
:103A5000431A4B015C01CE19DF09EFCF0450110965
:103A6000F594E7940C151D0541F78A2D880F8B2DD1
:103A7000881F8F3F49F020E030E0A901C501B40163
:103A80000E949818811106C082E290E09093CE06C1
:103A90008093CD06C501B40109C060E070E080E804
:103AA0009FEF04C060E070E080EC9FE7CDB7DEB729
:103AB000ECE00C94981D992788270895FB01DC0100
:103AC0004150504088F08D9181341CF08B350CF4BE
:103AD000805E659161341CF06B350CF4605E861B72
:103AE000611171F3990B0895881BFCCF2F923F92BF
:103AF0004F925F926F927F928F929F92AF92BF92FE
:103B0000CF92DF92EF92FF920F931F93CF93DF93A9
:103B1000CDB7DEB7CA1BDB0B0FB6F894DEBF0FBE06
:103B2000CDBF09942A88398848885F846E847D8453
:103B30008C849B84AA84B984C884DF80EE80FD8055
:103B40000C811B81AA81B981CE0FD11D0FB6F894CB
:103B5000DEBF0FBECDBFED01089511E0C0E1D1E0A1
:103B600004C0FE010E942C1B2296C231D107C9F766
:043B7000F894FFCFF7
:103B740001000000DF12DF12564D4450565F317CC5
:103B8400305F564D4450560D0A0047505320414E65
:103B9400442054454C454D45545259204D4F4455AD
:103BA4004C45005253204C52204D45474120302E65
:103BB40032205243303100696E6974206661696C49
:103BC400656400696E6974204F4B202D20006D6878
:103BD4007A00000000002103F9168C03000374032B
:103BE400730324475047474100244750524D430034
:103BF40024504D544B3138352C302A323200245065
:103C04004D544B3030312C3138352C332A3343006A
:103C140024504D544B3138352C312A323300245042
:103C24004D544B3138332A33380024504D544B4CC7
:103C34004F470024504D544B3136312C302A323802
:103C44000024504D544B3031302C3030322A324421
:103C54000000000000950BFD14FD14FD14FD14BBC1
:103C64000BCD0B120CDB0B9A0B9D0BA00BA30BA61D
:103C74000B970BAD0BB00BB30BB60BB90B000000DD
:103C840000FD14580C590CFD14FD145A0C5E0C6202
:103C94000C0500040400000000720C790C7D0C81FA
:103CA4000CC00C5A0C5E0C620C00000000D80CFD19
:103CB40014FD14FD14FD14BB0BCD0B120CDB0B9A7D
:103CC4000B9D0BA00BA30BA60B970BAD0BB00BB36B
:103CD4000BB60BB90B0D0E131516191A1C2325263A
:103CE400292A2C32343A200053532070696E3A004A
:103CF400696E742070696E3A00696E74206E756D19
:103D04006265723A0000000000E011F510DA0F1F3E
:103D140011830FBB0BCD0B120CDB0B9A0B9D0BA06D
:103D24000BA30BA60B970BAD0BB00BB30BB60B850C
:103D34000F000000007D15F916FF1418150A155B15
:103D4400156E616E00696E66006F7666002E000067
:00000001FF
