:100000000C94B1000C9420150C9447150C94280402
:100010000C9428040C9428040C94D9000C94D90056
:100020000C94D9000C94D9000C94D9000C94ED11C7
:100030000C94D9000C94D9000C9454020C94D9005F
:100040000C946E150C94D9000C9481180C94B31870
:100050000C94D9000C94D9000C94D9000C94D900BC
:100060000C94D9000C94D90042617420766F6C74A2
:100070006167653A0053656E64696E672044617418
:1000800061205061636B6574206661696C656421F1
:1000900000496E6974206661696C65642E2E2E00BD
:1000A00047505320414E442054454C454D455452F1
:1000B00059204D4F44554C450072740092740048CD
:1000C000940078C40000000008000201000003044E
:1000D000070000000000000000010204081020409A
:1000E0008001020408102001020408102004040406
:1000F00004040404040202020202020303030303D1
:100100000300000000230026002900000000002555
:100110000028002B0000000000240027002A004EC9
:10012000414E494E495459494E46CDCCCC3D0AD753
:10013000233C17B7D13877CC2B329595E6241FB1E5
:100140004F0A000020410000C84200401C4620BC6D
:10015000BE4CCA1B0E5AAEC59D74D202540EE31893
:10016000F70211241FBECFEFD8E0DEBFCDBF12E0F3
:10017000A0E0B1E0E0E2F3E402C005900D92AE37FA
:10018000B107D9F727E0AEE7B2E001C01D92A53470
:10019000B207E1F711E0C0E6D1E004C02297FE010A
:1001A0000E949D1ECA35D107C9F70E9427190C94D9
:1001B00083210C9400001F93CF93DF931AE0C0E0DB
:1001C000D0E08EE00E945C16C80FD91F1150C9F70D
:1001D000CE016AE070E00E94271E80E090E00E945D
:1001E0009E1C23E231EC40E55BE30E94B01D26EF4C
:1001F00038E24CEB5FE30E94B01D60937E02709387
:100200007F02809380029093810268E670E086EA24
:1002100096E00E94741940917E0250917F02609195
:1002200080027091810222E030E086EA96E0DF9160
:10023000CF911F910C944A1B83E892E00E94A5067F
:10024000882309F430C183E892E00E94A806BC012B
:1002500083E892E00E94BE06882309F424C18091BD
:10026000BE02882321F061E089E00E94DB1620E0D5
:1002700030E040E251E46091AB027091AC028091B9
:10028000AD029091AE020E94011C87FF0EC061E09A
:1002900086E00E94DB1664EF71E080E090E00E944F
:1002A000E71560E086E00E94DB1680918302809370
:1002B000F402809184028093F502809185028093FC
:1002C000F602809188028093F902809187028093E0
:1002D000FA02809186028093FB02809189029091BC
:1002E0008A029093F8028093F7028091AB0290917A
:1002F000AC02A091AD02B091AE028093FC0290934B
:10030000FD02A093FE02B093FF028091AF02909194
:10031000B002A091B102B091B20280930003909319
:100320000103A0930203B093030380918B02909189
:100330008C02A0918D02B0918E0280930403909361
:100340000503A0930603B09307038091BB0280933B
:10035000080380918F0290919002A0919102B09138
:1003600092028093090390930A03A0930B03B09326
:100370000C038091BC0280930D038091A7029091A1
:10038000A802A091A902B091AA0280930E039093B3
:100390000F03A0931003B09311038091BF028093C9
:1003A00012038091C002809313038091B702909151
:1003B000B802A091B902B091BA028093140390934D
:1003C0001503A0931603B09317038091A302909195
:1003D000A402A091A502B091A60280931803909365
:1003E0001903A0931A03B0931B0380919B02909171
:1003F0009C02A0919D02B0919E0280931C03909359
:100400001D03A0931E03B0931F0380919F02909140
:10041000A002A091A102B091A20280932003909328
:100420002103A0932203B09323038091BE02809303
:10043000240380917E0290917F02A0918002B0916E
:1004400081028093250390932603A0932703B09302
:10045000280321E048E361EF72E089E293E00E9423
:10046000950E811106C065E770E086EA96E00E946D
:10047000A21964EF71E080E090E00E94E7156091BE
:100480004F0581E0682760934F0589E00E94DB16E5
:10049000809182028F5F809382028A3020F00E94D6
:1004A000DB001092820208951F920F920FB60F92F6
:1004B00011242F933F934F935F936F937F938F9369
:1004C0009F93AF93BF93EF93FF9383E892E00E94D3
:1004D000B905FF91EF91BF91AF919F918F917F915E
:1004E0006F915F914F913F912F910F900FBE0F90A1
:1004F0001F901895882339F08FEA87BD80916E0090
:10050000826080936E00089561E089E00E94A216E7
:1005100081E080934F0561E089E00E94DB1661E095
:1005200086E00E94A21626E040E052EC61E070E016
:1005300086EA96E00E941F1860EA70E086EA96E07C
:100540000E94A21969E071E086EA96E00E94B4195F
:1005500089E293E00E94770C882349F040E050E064
:1005600069ED73E484E394E00E94AC1206C061E993
:1005700070E086EA96E00E94A21960E875E283E8DE
:1005800092E00E94880681E00E947A0268EE73E0A1
:1005900080E090E00E94E71560E08EE00E94A216E5
:1005A0000C94DB002CE836E042E06AE084E394E05F
:1005B0000E942B1242E064E374E089E293E00E941F
:1005C0005E0E8FE29AE2A0E08093F1029093F20235
:1005D000A093F30220E043E064E082ED92E00E9409
:1005E000FB0462ED72E083E892E00C94770682ED02
:1005F00092E00C94A204CF93CFB7F8948091510568
:10060000811127C0E7EFF0E08491E3EEF0E09491F0
:10061000E82FF0E0EE0FFF1FEB5EFE4FA591B491C7
:100620008C91892321F461E08AE00E94DB1661E06D
:100630008AE00E94A2168CB580618CBD8CB5806466
:100640008CBD61E08DE00E94A21661E08BE00E940B
:10065000A216809151058F5F80935105CFBFCF9136
:1006600008959FB7F89480915105882319F081501F
:100670008093510580915105811105C08CB58F7B08
:100680008CBD109250059FBF089520919405309124
:10069000950528173907B9F49091520580915305B3
:1006A000981789F0E0915205F0E0EC5AFA4F8081FA
:1006B0002091520530E02F5F3F4F2F733327209357
:1006C000520590E008958FEF9FEF08951F93CF9309
:1006D000DF93DC015C968D919C915D97009749F4C6
:1006E00081E090E013969C938E93129780E090E0C7
:1006F0003BC05196ED91FC91529750962C9150979A
:10070000322F30951FB75E964C915E9741FB77274D
:1007100070F941FD6095F8944081772311F0422BE8
:1007200001C043234083EC012197F1F748E0508159
:1007300060FF02C0522B01C053235083EC0121976C
:10074000F1F76695415099F78081772311F0832363
:1007500001C0822B80831FBF5C968D919C915D9719
:100760000197F1F781E090E0DF91CF911F9108951B
:10077000089520919405309195052817390771F453
:100780009091520580915305981741F0E0915205E0
:10079000F0E0EC5AFA4F808190E008958FEF9FEFE0
:1007A000089520919405309195052817390771F423
:1007B000809153052091520590E0805C9F4F821BF1
:1007C000910960E470E00E943B1E089580E090E093
:1007D0000895E0919405F0919505E817F90769F4FB
:1007E000A389B4899C918589809589238C931092E3
:1007F00095051092940581E0089580E00895CF93C7
:10080000DF93EC018A8D9B8D892BF1F0809194050B
:10081000909195058C179D07B9F0009711F00E94F3
:10082000E9038E8D8E7F8E8F1092530510925205A4
:10083000D0939505C0939405EB89FC8980819D89AF
:10084000892B808381E001C080E0DF91CF91089502
:100850001F920F920FB60F9211242F933F934F9335
:100860005F936F937F938F939F93AF93BF93EF9318
:10087000FF93E0919405F0919505309709F451C0EC
:10088000868DA685B785958581FF04C08C918923C7
:1008900029F447C08C91892309F043C0A389B48906
:1008A0009C918589809589238C9386899789019766
:1008B000F1F7208D318DA685B785758558E040E02C
:1008C000C9010197F1F7842F90E095958795482FFE
:1008D0006C91672309F04068515091F7868D81FD36
:1008E00040958091530590E001968F739927209150
:1008F0005205281749F0A0915305B0E0AC5ABA4F01
:100900004C938093530503C0868D8160868F828DC2
:10091000938D0197F1F7A389B4898C919589892BDF
:100920008C93FF91EF91BF91AF919F918F917F91A8
:100930006F915F914F913F912F910F900FBE0F904C
:100940001F90189521E231E0FC01318320830C9443
:10095000E9031F93CF93DF93EC01162F6E8D6695FD
:10096000617081E06827812F0E94DB1661E0812F92
:100970000E94A216812F90E0FC01E752FF4FE49104
:10098000E88BFC01E351FF4FE491F0E0EE0FFF1F15
:10099000E55FFE4F859194919A8B898BDF91CF9182
:1009A0001F9108951F93CF93DF93EC01162F60E002
:1009B000812F0E94A2168E8D81FD04C061E0812FDF
:1009C0000E94DB161C87812F90E0FC01E752FF4F4D
:1009D000E491ED87FC01E351FF4FE491F0E0EE0F6D
:1009E000FF1FEF5FFE4F859194919F878E87DF9168
:1009F000CF911F910895FF920F931F93CF93DF9391
:100A0000EC01F62E522F1B821A8208EE13E020E032
:100A100030E00C831D832E833F8381E291E0998334
:100A200088831F8A1E8A198E188E1B8E1A8E1D8E21
:100A30001C8E8E8D8E7F50FB81F98E8F642FCE01A0
:100A40000E94A9046F2DCE01DF91CF911F910F91CC
:100A5000FF900C94D204CF93DF93EC019A01AB0189
:100A60001B8E1A8E198E188E1F8A1E8A60E079E0FE
:100A70008DE390E00E94711EC9012430310520F001
:100A8000B9016350710902C061E070E07D8F6C8F25
:100A9000EC85E63108F068C0B90176956795643158
:100AA000710518F06351710902C061E070E07F8B3D
:100AB0006E8B069718F0C901059702C081E090E09F
:100AC000998F888FC901880F991F820F931F969560
:100AD0008795969587958D30910510F00C9702C0FB
:100AE00081E090E09B8F8A8F20916800E83050F081
:100AF00091E0EE3008F490E081E001C0880F9A9513
:100B0000EAF701C084E0822B809368002C852830AE
:100B100038F02E3040F0263148F48CE690E008C0E2
:100B20008DE690E005C08BE690E002C080E090E0AA
:100B30009C8B8B8B283030F481E001C0880F2A9584
:100B4000EAF70DC0822F90E02E3010F4089701C014
:100B50000E9791E001C0990F8A95EAF7892F8D8B46
:100B60008C8D9D8D0197F1F7CE01DF91CF910C9483
:100B7000FF03CF93DF93FC01E65BFF4F208122232D
:100B800011F080E065C0EC01C55BDF4FA881B98141
:100B9000109741F0ED91FC9111970480F581E02DC3
:100BA000CD010BC0EC01C35BDF4F88819981DC0173
:100BB000ED91FC910480F581E02D0995892B09F3D5
:100BC00088819981DC01ED91FC910680F781E02D0F
:100BD00009958A3049F590919B05E0919905F0912E
:100BE0009A05E90FF11D10822091990530919A051F
:100BF000B6E024313B0739F44CE955E050939A05AF
:100C00004093990508C024E136E030939A0520937B
:100C100099052CE935E030939805209397051092BB
:100C20009B0591E090939605E0919905F0919A05C6
:100C300090919B0521E0290F20939B05E90FF11D61
:100C4000808390919B05983718F097E790939B05C8
:100C5000DF91CF910895FC01DC01A55BBF4F119698
:100C60001C921E92129611961C921E92109296053C
:100C700013971C9210929B0584E196E090939A053D
:100C8000809399058CE995E090939805809397055A
:100C900015AE14AE15821482138212821182108254
:100CA00012AE11AE10AE13AE1782168214AA15AA98
:100CB00016AA17AA10AA11AA12AA13AA14A615A650
:100CC00016A617A610A611A612A613A614A215A260
:100CD00016A217A210A211A212A213A214861586A0
:100CE00016861786108611861286138608950F932E
:100CF0001F93CF93DF93EC018B010E942B06C55B02
:100D0000DF4F19830883DF91CF911F910F910895D1
:100D1000FC01E55BFF4F20813181AB0160E070E0B9
:100D20002115310521F0C9010E942B0508C0FC01E5
:100D3000E35BFF4F26E0808191810E941F186AE0EB
:100D400070E080E090E00C94E7158091960508959E
:100D500010929605809197059091980508956033BB
:100D60005CF06A3314F480ED05C08FEB860F86309B
:100D700018F489EC860F089580E008952F923F9231
:100D80004F925F926F927F928F929F92AF92BF929B
:100D9000CF92DF92EF92FF920F931F93CF93DF9347
:100DA000CDB7DEB72A970FB6F894DEBF0FBECDBF22
:100DB0008C017B01FB0101900020E9F73197E61BD4
:100DC000F70B6F0124E0C21AD108DB01AC0DBD1D89
:100DD0008C918A3261F55B01AE0EBF1EF50133972F
:100DE0006081C8010E94AF0630E1839F3001112469
:100DF000F50132976081C8010E94AF06D301A80FA8
:100E0000B11DCD0142E0242F30E02C153D0558F4F2
:100E1000F701E20FF31F2081332727FD309582274A
:100E200093274F5FF0CF892B11F080E0E1C46DE292
:100E300071E0C7010E94871F892B09F468C26CE228
:100E400070E0C7010E946D1F01961C010E94121FD5
:100E50006B017C010E94721C4B015C0120E137E2B6
:100E600040E050E00E944F1EF801208344E6442EEB
:100E7000512C612C712CA30192010E944F1ED801AC
:100E800011962C93C501B401A30192010E944F1E3B
:100E9000F801628320E030E040E85FE3C701B6017B
:100EA0000E94E21C20E030E04AE754E40E94B01DBA
:100EB0000E94721CD80117967C936E9316976CE271
:100EC00070E0C1010E946D1F7C015C01BFEFAB1A95
:100ED000BB0AFC0181818C3209F4A5C042E050E0DC
:100EE000B501CE0101960E94781F1B82CE010196AA
:100EF0000E94341F9B01AC0160E876E988E990E02C
:100F00000E94171E2B013C01B7016D5F7F4F42E02D
:100F100050E0CE0101960E94781F5701F6E0AF0E17
:100F2000B11C44E050E0B501CE0103960E94781F49
:100F30001F82CE0101960E94341F9B01AC01A2E3E7
:100F4000B0E00E94901E23E030E040E050E00E94BC
:100F5000711E69017A01D301C201820F931FA41F80
:100F6000B51FF801808B918BA28BB38BC301B201AB
:100F700020EA36E841E050E00E94711ECA01B90142
:100F80000E94A01C2B013C01C701B6010E94A01CBD
:100F90002CE933E549EC56E30E94B01D9B01AC01FE
:100FA000C301B2010E949D1B6B017C01D801189600
:100FB0006D937D938D939C931B9720E030E048ECDC
:100FC00052E40E94051C0E946D1C2B013C0184E62A
:100FD000849DB001859D700D1124882777FD809533
:100FE000982F0E94A01C9B01AC01C701B6010E9472
:100FF0009C1B20E030E040E752E40E94051C6B019E
:101000007C01B201882777FD8095982F0E94A01C53
:101010009B01AC01C701B6010E949D1BF801608FC6
:10102000718F828F938F6CE270E0C5010E946D1FFB
:10103000FC01019621812C3209F1233571F4D8018C
:1010400058964D915D916D917C915B977058589633
:101050004D935D936D937C935B9721812E3419F4AE
:10106000F80120AF0BC0233521F4D801D8962C937A
:1010700005C02C3209F0D9CEF80110AE6CE270E058
:101080000E946D1F7C015C01FFEFAF1ABF0ADC01FB
:1010900011968C918C3209F4A5C043E050E0B50163
:1010A000CE0101960E94781F1C82CE0101960E94FB
:1010B000341F9B01AC0160E876E988E990E00E946A
:1010C000171E2B013C01B7016C5F7F4F42E050E0DF
:1010D000CE0101960E94781F5701B7E0AB0EB11CFC
:1010E00044E050E0B501CE0103960E94781F1F82B4
:1010F000CE0101960E94341F9B01AC01A2E3B0E037
:101100000E94901E23E030E040E050E00E94711EFB
:1011100069017A01D301C201820F931FA41FB51F79
:10112000F801848B958BA68BB78BC301B20120EAA3
:1011300036E841E050E00E94711ECA01B9010E94E8
:10114000A01C2B013C01C701B6010E94A01C2CE988
:1011500033E549EC56E30E94B01D9B01AC01C3018D
:10116000B2010E949D1B6B017C01D8011C966D93FE
:101170007D938D939C931F9720E030E048EC52E4E0
:101180000E94051C0E946D1C2B013C0184E6849D7D
:10119000B001859D700D1124882777FD8095982FCB
:1011A0000E94A01C9B01AC01C701B6010E949C1BC0
:1011B00020E030E040E752E40E94051C6B017C0116
:1011C000B201882777FD8095982F0E94A01C9B0173
:1011D000AC01C701B6010E949D1BF801648F758F99
:1011E000868F978F6CE270E0C5010E946D1FFC0135
:1011F000019621812C3209F1273571F4D8015C96D2
:101200004D915D916D917C915F9770585C964D9377
:101210005D936D937C935F972181273519F4F801D5
:1012200021AF0BC0253421F4D801D9962C9305C0E9
:101230002C3209F0FACDF80111AE6CE270E00E9498
:101240006D1F7C01FFEFEF1AFF0ADC0111968C91F4
:101250008C3229F0C7010E94161FF80184AF6CE29E
:1012600070E0C7010E946D1F7C01FFEFEF1AFF0ABB
:10127000DC0111968C918C3229F0C7010E94161F57
:10128000F80185AF6CE270E0C7010E946D1F7C0120
:10129000FFEFEF1AFF0ADC0111968C918C3241F0BE
:1012A000C7010E94121FF80164AB75AB86AB97AB08
:1012B0006CE270E0C7010E946D1F7C01FFEFEF1A26
:1012C000FF0ADC0111968C918C3241F0C7010E941B
:1012D000121FF80164A375A386A397A36CE270E0C4
:1012E000C7010E946D1F6CE270E001960E946D1FA5
:1012F000DC0111962C912C3209F479C201960E94DE
:10130000121FF80160A371A382A393A370C264E3C8
:1013100071E0C7010E94871F892B09F486CD6CE21A
:1013200070E0C7010E946D1F01961C010E94121FF0
:101330006B017C010E94721C4B015C0120E137E2D1
:1013400040E050E00E944F1ED8012C9334E6432E1B
:10135000512C612C712CA30192010E944F1EF801A7
:101360002183C501B401A30192010E944F1ED8013F
:1013700012966C9320E030E040E85FE3C701B601CD
:101380000E94E21C20E030E04AE754E40E94B01DD5
:101390000E94721CF801778366836CE270E0C101E1
:1013A0000E946D1FDC0111962C91213421F421E063
:1013B000F80123AF06C0263509F037CDD801DB96FA
:1013C0001C926CE270E001960E946D1F7C015C0132
:1013D000BFEFAB1ABB0AFC0181818C3209F4A5C0B6
:1013E00042E050E0B501CE0101960E94781F1B82B9
:1013F000CE0101960E94341F9B01AC0160E876E9A2
:1014000088E990E00E94171E2B013C01B7016D5F37
:101410007F4F42E050E0CE0101960E94781F5701B5
:10142000F6E0AF0EB11C44E050E0B501CE010396EA
:101430000E94781F1F82CE0101960E94341F9B01DB
:10144000AC01A2E3B0E00E94901E23E030E040E057
:1014500050E00E94711E69017A01D301C201820F1E
:10146000931FA41FB51FF801808B918BA28BB38BA8
:10147000C301B20120EA36E841E050E00E94711E4B
:10148000CA01B9010E94A01C2B013C01C701B60191
:101490000E94A01C2CE933E549EC56E30E94B01DE4
:1014A0009B01AC01C301B2010E949D1B6B017C0139
:1014B000D80118966D937D938D939C931B9720E094
:1014C00030E048EC52E40E94051C0E946D1C2B0188
:1014D0003C0184E6849DB001859D700D1124882710
:1014E00077FD8095982F0E94A01C9B01AC01C7013D
:1014F000B6010E949C1B20E030E040E752E40E94CD
:10150000051C6B017C01B201882777FD8095982F1F
:101510000E94A01C9B01AC01C701B6010E949D1B4B
:10152000F801608F718F828F938F6CE270E0C5013C
:101530000E946D1FFC01019621812C3209F1233597
:1015400071F4D80158964D915D916D917C915B97A6
:10155000705858964D935D936D937C935B97218162
:101560002E3419F4F80120AF0BC0233521F4D80133
:10157000D8962C9305C02C3209F057CCF80110AE48
:101580006CE270E00E946D1F7C015C01FFEFAF1AFE
:10159000BF0ADC0111968C918C3209F4A5C043E09E
:1015A00050E0B501CE0101960E94781F1C82CE0149
:1015B00001960E94341F9B01AC0160E876E988E93E
:1015C00090E00E94171E2B013C01B7016C5F7F4F1A
:1015D00042E050E0CE0101960E94781F5701B7E02B
:1015E000AB0EB11C44E050E0B501CE0103960E9461
:1015F000781F1F82CE0101960E94341F9B01AC010F
:10160000A2E3B0E00E94901E23E030E040E050E012
:101610000E94711E69017A01D301C201820F931FDA
:10162000A41FB51FF801848B958BA68BB78BC301C4
:10163000B20120EA36E841E050E00E94711ECA0182
:10164000B9010E94A01C2B013C01C701B6010E94F8
:10165000A01C2CE933E549EC56E30E94B01D9B0128
:10166000AC01C301B2010E949D1B6B017C01D8013A
:101670001C966D937D938D939C931F9720E030E093
:1016800048EC52E40E94051C0E946D1C2B013C0199
:1016900084E6849DB001859D700D1124882777FD17
:1016A0008095982F0E94A01C9B01AC01C701B60138
:1016B0000E949C1B20E030E040E752E40E94051CA1
:1016C0006B017C01B201882777FD8095982F0E94DD
:1016D000A01C9B01AC01C701B6010E949D1BF80133
:1016E000648F758F868F978F6CE270E0C5010E94C2
:1016F0006D1FFC01019621812C3209F1273571F40F
:10170000D8015C964D915D916D917C915F97705879
:101710005C964D935D936D937C935F972181273504
:1017200019F4F80121AF0BC0253421F4D801D99662
:101730002C9305C02C3209F078CBF80111AE6CE285
:1017400070E00E946D1F7C01FFEFEF1AFF0ADC01C1
:1017500011968C918C3241F0C7010E94121FF80142
:1017600060A771A782A793A76CE270E0C7010E94EF
:101770006D1F7C01FFEFEF1AFF0ADC0111968C91BF
:101780008C3241F0C7010E94121FF80164A775A7AF
:1017900086A797A76CE270E0C7010E946D1FDC016D
:1017A00011962C912C3219F101960E94121F0E9461
:1017B000721C2B013C0120E137E240E050E00E9426
:1017C0004F1EF801258324E6C22ED12CE12CF12CEA
:1017D000A70196010E944F1ED80114962C93C301B5
:1017E000B201A70196010E944F1EF801638381E0B8
:1017F0002A960FB6F894DEBF0FBECDBFDF91CF9112
:101800001F910F91FF90EF90DF90CF90BF90AF901E
:101810009F908F907F906F905F904F903F902F9010
:101820000895FC017183608342830895DC018D91EA
:101830009C91DC01ED91FC910484F585E02D0994E7
:10184000DC018D919C91DC01ED91FC910088F18986
:10185000E02D0994DC018D919C91DC01ED91FC91CE
:101860000488F589E02D0994EF92FF920F931F935E
:10187000CF93DF931F92CDB7DEB77C018B01622F30
:1018800049830E942A0CD7018D919C91DC01ED9136
:10189000FC910680F781E02D4981B8010F90DF911E
:1018A000CF911F910F91FF90EF900994DC018D91E2
:1018B0009C91DC01ED91FC910688F789E02D09945B
:1018C0001F93CF93DF93EC01162F88819981DC0160
:1018D000ED91FC910288F389E02D0995612FCE01ED
:1018E0000E94560C1A83DF91CF911F9108951F9388
:1018F000CF93DF93EC0188819981DC01ED91FC911C
:101900000190F081E02D0995182F882321F06A813C
:10191000CE010E94600C812FDF91CF911F9108951D
:10192000DC018D919C91DC01ED91FC91008CF18D9D
:10193000E02D0994DC018D919C91DC01ED91FC91ED
:10194000028CF38DE02D0994DC018D919C91DC01DA
:10195000ED91FC91068CF78DE02D0994DC018D91C1
:101960009C91DC01ED91FC9100A0F1A1E02D099486
:10197000DC018D919C91DC01ED91FC9102A0F3A121
:10198000E02D0994DC018D919C91DC01ED91FC919D
:1019900004A0F5A1E02D0994AF92BF92CF92DF92FF
:1019A000EF92FF920F931F93CF93DF93EC015901B6
:1019B00088819981DC01ED91FC910480F581E02D15
:1019C0000995882309F1A114B10429F0CE010E94E0
:1019D000AE0CF50180830115110529F0CE010E949E
:1019E000A40CD8018C93E114F10429F0CE010E94DB
:1019F000B80CF7018083C114D10441F0CE010E94DC
:101A0000C20CD6018C9302C080E001C081E0DF915E
:101A1000CF911F910F91FF90EF90DF90CF90BF90EB
:101A2000AF90089581E00895FC0165830895FC015D
:101A300064830895FC0162870895FC01638708951B
:101A4000FC01648708954095FC0125854223462BBF
:101A500045870895FC0186810895FC0187810895DA
:101A6000FC0180850895FC018185089580E008953A
:101A7000CF93DF93EC01E881F9810280F381E02DBF
:101A8000CE010995811103C00E94FE14F4CFDF91AD
:101A9000CF910895CF93DF93EC018A819B810397C7
:101AA00019F40E94FE14F9CF81E0DF91CF910895DF
:101AB0008F929F92AF92BF92CF92DF92EF92FF925E
:101AC000CF93DF93EC016B010E94B8154B015C01D1
:101AD000E12CF12C0E94B815681979098A099B0933
:101AE0006C157D058E059F0560F4E881F981028003
:101AF000F381E02DCE010995811105C00E94FE14ED
:101B0000E9CF80E001C081E0DF91CF91FF90EF90BD
:101B1000DF90CF90BF90AF909F908F9008958F925D
:101B20009F92AF92BF92CF92DF92EF92FF92CF93AC
:101B3000DF93EC016B010E94B8154B015C01E12CB5
:101B4000F12C0E94B815681979098A099B096C154E
:101B50007D058E059F0538F48A819B81039729F4C2
:101B60000E94FE14EECF80E001C081E0DF91CF91B2
:101B7000FF90EF90DF90CF90BF90AF909F908F90AD
:101B80000895FC0180EA91E09183808313821282A0
:101B90008FEF84838287838714861586108A178641
:101BA000128A118A148A138A089508950895FC01EF
:101BB000758364830895FC01778366830895FC012F
:101BC000738362830895FC018CEC91E091838083A0
:101BD00073836283558344833783268308956EBD60
:101BE00000000DB407FEFDCF8EB508958CB580685A
:101BF0008CBD08958CB58F778CBD08950C943103FE
:101C00002CB5982F93702C7F922B9CBD9DB582FB99
:101C1000882780F99E7F982B9DBD0895CF93FC0166
:101C2000268137812115310579F02130310541F0C8
:101C30002230310539F02330310531F49CE005C004
:101C400094E003C098E001C090E08CB5837F892BBD
:101C50008CBD84819581019719F48CB5806202C096
:101C60008CB58F7D8CBD82819381019784309105E5
:101C700028F4FC01E452FE4FC08101C0C1E08C2F6A
:101C80000E94000E0E94FB028C2FCF910C94000E3C
:101C9000CF93DF93EC010E94E30D84EE91E09983F2
:101CA0008883DF91CF91089520E030E040E050E05C
:101CB00060E070E08CE896E00C94480ECF93DF93E0
:101CC000EC010E94110C1B821C821D821E821F824D
:101CD00088EC90E09987888783E08A87DF91CF91AD
:101CE00008950F931F93CF93DF9300D0CDB7DEB746
:101CF0008C014A830E94900C40E060E8C8010E9479
:101D00009A0C81E289832A8141E0BE016F5F7F4F97
:101D1000C8010E94340CC8010E94160C0F900F904D
:101D2000DF91CF911F910F9108952F923F924F9283
:101D30005F926F927F928F929F92AF92BF92CF925B
:101D4000DF92EF92FF920F931F93CF93DF9300D018
:101D500000D000D0CDB7DEB75C014B014E83222E00
:101D6000FC0137803394378280E031E0380F3D83C7
:101D7000F5019285981708F491C0632DC5010E9462
:101D8000900C40E860E0C5010E949A0C222D4E8123
:101D9000B401C5010E94340CC5010E94160CFFEF6E
:101DA0002F1609F47DC02D81223060F0F50183816A
:101DB0009481A581B6810196A11DB11D8383948371
:101DC000A583B6830E94B8152B013C01F50100855F
:101DD000118520E031E040E050E060E070E0CB01B0
:101DE0000E94801B9B01AC01D8010E94901E20E044
:101DF00031E040E050E00E94711E200F311F420E82
:101E0000531E611C711C0E94B815A3019201261B70
:101E1000370B480B590BCA01B901121613061406E9
:101E20001506C4F5C5010E94200C882381F19E018E
:101E30002F5F3F4F6901AE014E5F5F4F7A018E0108
:101E40000D5F1F4F2D5F3F4F40E050E060E070E0BE
:101E5000C5010E94CC0C8823D1F04C8189814211AC
:101E60000AC02B81F5019281291305C087FF03C0A9
:101E70009A819315A9F087FD0AC06A81F501E40FE4
:101E8000F11D8385681303C0C5010E94710E0E9475
:101E9000FE14B9CF0E94FE148D8167CF80E001C08F
:101EA00081E026960FB6F894DEBF0FBECDBFDF915E
:101EB000CF911F910F91FF90EF90DF90CF90BF9047
:101EC000AF909F908F907F906F905F904F903F90DA
:101ED0002F900895CF93DF93EC018D899E89DC01CB
:101EE000ED91FC910680F781E02D099561E08F89E5
:101EF0000E94A21661E08F890E94DB1664E670E002
:101F000080E090E00E94E71581E0DF91CF91089595
:101F1000EF92FF920F931F93CF93DF931F92CDB752
:101F2000DEB77C018A0169830E94C10D88EF91E0D0
:101F3000F70191838083168B058B6981678B0F90E6
:101F4000DF91CF911F910F91FF90EF9008950F9324
:101F50001F93CF93DF93EC01062F1FB7F89460E037
:101F60008F890E94DB168D899E89DC01ED91FC91A1
:101F7000602F6F770190F081E02D09958D899E8902
:101F8000DC01ED91FC910190F081E02D60E009957C
:101F9000082F61E08F890E94DB161FBF802FDF9121
:101FA000CF911F910F910895EF92FF920F931F937E
:101FB000CF93DF931F92CDB7DEB77C01162F0FB7FB
:101FC000F89460E0DC0157968C9149830E94DB16FF
:101FD000F70185899689DC01ED91FC91612F60689C
:101FE0000190F081E02D0995182FF70185899689D8
:101FF000DC01ED91FC910190F081E02D4981642F8D
:10200000099561E0F70187890E94DB160FBF812FD8
:102010000F90DF91CF911F910F91FF90EF90089556
:10202000AF92BF92DF92EF92FF920F931F93CF93E5
:10203000DF9300D0CDB7DEB78C01D62EF22EEFB6EF
:10204000F89460E0DC0157968C9149835A830E9492
:10205000DB16F80185899689DC01ED91FC916D2DE7
:102060006F770190F081E02D0995D82E4981A42E3B
:102070005A81B52EF40EFA1479F0F8018589968903
:10208000DC01ED91FC910190F081E02D60E009957B
:10209000F50181935F01EFCF61E0D80157968C91F4
:1020A0000E94DB16EFBE8D2D0F900F90DF91CF9128
:1020B0001F910F91FF90EF90DF90BF90AF90089528
:1020C000AF92BF92DF92EF92FF920F931F93CF9345
:1020D000DF9300D0CDB7DEB78C01D62EF22EEFB64F
:1020E000F89460E0DC0157968C9149835A830E94F2
:1020F000DB16F80185899689DC01ED91FC916D2D47
:1021000060680190F081E02D0995D82E4981A42EB8
:102110005A81B52EF40EFA1471F0F801858996896A
:10212000D5016D915D01DC01ED91FC910190F08193
:10213000E02D0995F0CF61E0F80187890E94DB1658
:10214000EFBE8D2D0F900F90DF91CF911F910F91CA
:10215000FF90EF90DF90BF90AF900895CF93DF9303
:10216000EC018F890E94111721E0892B09F420E0EE
:102170008A8D8227DF91CF910895FC01808D0C9488
:10218000DB16FC01238D6227818D0C94DB16CF9327
:10219000DF93EC018A819B81029761F060E0CE01C0
:1021A0000E94C11060E0CE010E94BD1082E090E06C
:1021B0009B838A83DF91CF910895862F869586959C
:1021C000887098E0980F891749F0E82FF0E0E05EFA
:1021D000FD4F2081621719F08F5FF5CF80E00895E1
:1021E0001F93CF93DF93EC010E94AE10882319F068
:1021F0009F8D9F5F9F8F9E8D891771F098A190355D
:1022000018F42BE030E002C02DE130E098A1290F56
:10221000311D28A38E8F03C088A18C5E88A388A15E
:10222000803A08F46EC08AA19BA1969587959BA3DE
:102230008AA38F8D853028F08AA19BA198609BA3EB
:102240008AA388A1805A88A31F8E89A1882309F4B4
:1022500046C08CA18F5F8CA38C3008F452C06AA159
:102260007BA16F73CE010E94DD10182F6AA17BA1A4
:1022700046E0769567954A95E1F7CE010E94DD101C
:1022800090E1199F90011124822BBE0167597F4F65
:10229000FB019081DE01A859BF4F9923B1F0FB01EA
:1022A000908121E0290F2083AE01490F511DFA01D1
:1022B00085A3FB0190818C91981778F019A281E099
:1022C0008C8FCE010E94C71008C08C939C919730D0
:1022D00090F09C91943478F4E2CF1CA212C08AA1B1
:1022E0009BA188339B4069F481E089A31CA2C75954
:1022F000DF4F188206C019A28F8598890196988BA6
:102300008F87DF91CF911F910895CF92DF92EF9247
:10231000FF920F931F93CF93DF93EC018C0104592D
:102320001F4FF801808191E0980F9083811136C092
:102330006E01FAE6CF0ED11CF6018081EF56FF4FF9
:102340009081891748F0CE010E94C7108B899C8923
:1023500001969C8B8B8B22C0FE01E80FF11DE35987
:10236000FF4F608170E07E01FBE6EF0EF11CF7018C
:10237000808191E0980F908302C0759567958A954A
:10238000E2F76170CE010E94BD10F70180818630B6
:1023900028F01082F60180818F5F8083F8018081B0
:1023A000883008F01082DF91CF911F910F91FF903C
:1023B000EF90DF90CF900895FC012281338124308B
:1023C000310511F40C94F010FC012281338123308B
:1023D000310511F40C94851108951F920F920FB6D8
:1023E0000F9211242F933F934F935F936F937F939B
:1023F0008F939F93AF93BF93EF93FF938091940636
:10240000909195060E94DC11FF91EF91BF91AF91E1
:102410009F918F917F916F915F914F913F912F91FC
:102420000F900FBE0F901F9018958BEF0895CF93CC
:10243000DF93EC018A819B81019749F040E061E0E4
:10244000CE010E94D40F81E090E09B838A8381E0DB
:10245000DF91CF9108951F93CF93DF93EC01142F59
:10246000A9010E94880F84E392E099838883FE018A
:10247000E65EFE4F1082188F8FEF898FDF91CF912C
:102480001F910895FC01828D8430D8F0838D86835E
:10249000848D8783858D8087868D81878581811155
:1024A00007C096818481981719F086818F3F49F47F
:1024B000818992890196928B818BE65EFE4F81E045
:1024C000808308952FB7F894FC01E65EFE4F1082DA
:1024D000FC01128E2FBF0895CF92DF92EF92FF92F0
:1024E0000F931F93CF93DF93EC017B018A01E88167
:1024F000F9810280F381E02D0995D82E882311F10E
:10250000E114F104E1F001151105C9F0CFB6F8941A
:102510002A8D30E023503109F801408150E0421704
:1025200053071CF09A8D94509083F801408150E03D
:10253000BE01615E7F4FC7010E94641FCFBECE0106
:102540000E9462128D2DDF91CF911F910F91FF900C
:10255000EF90DF90CF900895CF92DF92EF92FF92AD
:10256000CF93DF93EC01CB01BA0120E034E244E7E2
:1025700059E40E94B01D20E034E244E752E40E9496
:10258000051C0E94721C6B017C01A701662777273E
:1025900066E0CE010E94D40F77276F2D5E2D4D2D62
:1025A00067E0CE010E94D40F4C2D68E0CE010E945E
:1025B000D40F81E0DF91CF91FF90EF90DF90CF902B
:1025C0000895CF93DF93EC018A819B81029749F0B4
:1025D00041E061E0CE010E94D40F82E090E09B8355
:1025E0008A83DF91CF9108951F93CF93DF93EC01FE
:1025F00062E10E94A70F2A813B812430310519F442
:10260000982F907A41F42A813B8124303105E1F5FD
:1026100086FD0EC039C08F8598890196988B8F876B
:102620004FEF62E1CE01DF91CF911F910C94D40F57
:1026300063E1CE010E94A70F182F60E1CE010E9436
:10264000A70F482F6DE0CE010E94D40F212FAE01BD
:10265000455E5F4F60E0CE010E9410101A8F4FEF71
:1026600062E1CE010E94D40F6AE1CE010E94A70F61
:1026700089588E87CE010E944212FE01E65EFE4F0F
:102680008081882369F20CC02A813B812330310587
:1026900039F683FFC5CF8B899C8901969C8B8B8BE8
:1026A000CE010E94E112BCCF8091970690919806CE
:1026B000009711F00C94F41208958091990690916E
:1026C0009A06009711F00C94F412089580919B06DD
:1026D00090919C06009711F00C94F4120895CF93FA
:1026E000DF93EC018A819B81049771F045E061E002
:1026F000CE010E94D40F40E060E4CE010E94D40FCE
:1027000084E090E09B838A83DF91CF910895CF93FB
:10271000DF93EC018A819B81039739F0CE010E94FF
:102720006F13C65EDE4F888101C080E0DF91CF91DC
:102730000895CF93DF93EC018A819B81039771F019
:1027400043E061E0CE010E94D40F40E460E4CE019A
:102750000E94D40F83E090E09B838A83DF91CF9126
:102760000895FF920F931F93CF93DF93EC018B019A
:10277000F42E8BEF8417A0F1E881F9810484F585AC
:10278000E02DCE010995CE010E94E11240E06DE0FE
:10279000CE010E94D40F4A8560E0CE010E94D40F82
:1027A0004B8560E0CE010E94D40F4C8560E0CE01E5
:1027B0000E94D40F4D8560E0CE010E94D40F2F2DD2
:1027C000A80160E0CE010E94601044E04F0D62E27B
:1027D000CE010E94D40FCE010E94991381E001C066
:1027E00080E0DF91CF911F910F91FF9008951F938B
:1027F000CF93DF93EC01162F442359F06F3024F46C
:102800006F3F1CF41FEF01C01EE041E0410F406725
:1028100018C068312CF465305CF0653114F409C0DF
:1028200017E147E06DE4CE010E94D40F135006C0BB
:1028300015E044E06DE4CE010E94D40F4BEF410F50
:10284000406869E0CE01DF91CF911F910C94D40FC5
:102850000F931F93CF93DF93EC018B01FB0140811A
:102860006DE10E94D40FF80141816EE1CE010E941A
:10287000D40FF801428166E2CE01DF91CF911F9122
:102880000F910C94D40F0F931F93CF93DF9300D02D
:102890001F92CDB7DEB78C0165307105B4F49B0192
:1028A000220F331F260F371F27543F4F43E050E0BE
:1028B000B901CE0101960E945B1FBE016F5F7F4F81
:1028C000C8010E94281481E001C080E00F900F90A1
:1028D0000F90DF91CF911F910F9108951F93CF9388
:1028E000DF93EC01162F472F60E20E94D40F412F97
:1028F00061E2CE01DF91CF911F910C94D40F0F9321
:102900001F93CF93DF93EC010E946A0F082F811170
:1029100002C000E06DC0888D823021F08330C9F79D
:1029200011E001C010E040E861E0CE010E94D40F48
:102930006AE070E080E090E00E94E71561E0CE017F
:102940000E94A70F803829F760E0888D0E94A216A8
:10295000898D8F3F49F4809196068430D0F691E0BE
:10296000980F90939606898F998DE92FF0E0EE0FDE
:10297000FF1FE956F94FD183C083911105C043E091
:1029800050E064E573E10EC0913029F443E050E07B
:102990006DE573E107C0923009F0BBCF43E050E032
:1029A00066E673E1812F0E94001540E06EE0CE01E3
:1029B0000E94D40F40E06FE0CE010E94D40FCE0100
:1029C0000E94E11260E070E0CE010E94431468E0D2
:1029D00070E0CE010E946E1440E050E069ED73E4B7
:1029E000CE010E94AC1240E06DE0CE010E94F713D0
:1029F000802FDF91CF911F910F9108950895089531
:102A00008230E8F4E82FF0E0EE0FFF1FEC5FFE4F9E
:102A100071836083813041F0809169008C7F842BC9
:102A200080936900E89A089580916900440F551FCA
:102A3000440F551F837F842B80936900E99A089582
:102A40001F920F920FB60F9211242F933F934F9323
:102A50005F936F937F938F939F93AF93BF93EF9306
:102A6000FF93E0910401F09105010995FF91EF9129
:102A7000BF91AF919F918F917F916F915F914F9196
:102A80003F912F910F900FBE0F901F9018951F929E
:102A90000F920FB60F9211242F933F934F935F9392
:102AA0006F937F938F939F93AF93BF93EF93FF9316
:102AB000E0910601F09107010995FF91EF91BF9117
:102AC000AF919F918F917F916F915F914F913F91C6
:102AD0002F910F900FBE0F901F9018951F920F927D
:102AE0000FB60F9211242F933F938F939F93AF9321
:102AF000BF9380919E0690919F06A091A006B091F1
:102B0000A10630919D0623E0230F2D3720F4019676
:102B1000A11DB11D05C026E8230F0296A11DB11D00
:102B200020939D0680939E0690939F06A093A006F7
:102B3000B093A1068091A2069091A306A091A4064D
:102B4000B091A5060196A11DB11D8093A206909398
:102B5000A306A093A406B093A506BF91AF919F9141
:102B60008F913F912F910F900FBE0F901F9018954E
:102B70002FB7F89460919E0670919F068091A006F1
:102B80009091A1062FBF08953FB7F8948091A206B7
:102B90009091A306A091A406B091A50626B5A89B86
:102BA00005C02F3F19F00196A11DB11D3FBF66273B
:102BB000782F892F9A2F620F711D811D911D42E080
:102BC000660F771F881F991F4A95D1F708958F9236
:102BD0009F92AF92BF92CF92DF92EF92FF926B01E2
:102BE0007C010E94C4154B015C01C114D104E104B5
:102BF000F104F1F00E94FE140E94C41568197909CD
:102C00008A099B09683E73408105910570F321E0B4
:102C1000C21AD108E108F10888EE880E83E0981EF8
:102C2000A11CB11CC114D104E104F10429F7DDCFCA
:102C3000FF90EF90DF90CF90BF90AF909F908F90DC
:102C40000895789484B5826084BD84B5816084BD24
:102C500085B5826085BD85B5816085BDEEE6F0E015
:102C6000808181608083E1E8F0E010828081826071
:102C70008083808181608083E0E8F0E080818160F2
:102C80008083E1EBF0E0808184608083E0EBF0E022
:102C9000808181608083EAE7F0E0808184608083C6
:102CA0008081826080838081816080838081806870
:102CB00080831092C10008958E3008F08E50877086
:102CC0002091080190E4299F90011124822B809388
:102CD0007C0080917A00806480937A0080917A00F1
:102CE00086FDFCCF809178002091790090E0922BB6
:102CF0000895833081F028F4813099F08230A1F07A
:102D000008958730A9F08830B9F08430D1F48091EB
:102D100080008F7D03C0809180008F77809380003A
:102D2000089584B58F7702C084B58F7D84BD0895E2
:102D30008091B0008F7703C08091B0008F7D809329
:102D4000B0000895CF93DF9390E0FC01E752FF4F6E
:102D50002491FC01E351FF4F8491882349F190E0D5
:102D6000880F991FFC01EB5EFE4FA591B491855F22
:102D70009E4FFC01C591D4919FB7611108C0F89492
:102D80008C91209582238C93888182230AC06230A3
:102D900051F4F8948C91322F309583238C93888151
:102DA000822B888304C0F8948C91822B8C939FBFD4
:102DB000DF91CF9108950F931F93CF93DF931F92CD
:102DC000CDB7DEB7282F30E0F901EB53FF4F8491E8
:102DD000F901E752FF4F1491F901E351FF4F0491BC
:102DE0000023C9F0882321F069830E947916698144
:102DF000E02FF0E0EE0FFF1FE55FFE4FA591B491CD
:102E00009FB7F8948C91611103C01095812301C084
:102E1000812B8C939FBF0F90DF91CF911F910F91CA
:102E20000895CF93DF93282F30E0F901EB53FF4F44
:102E30008491F901E752FF4FD491F901E351FF4F1B
:102E4000C491CC2391F081110E947916EC2FF0E00F
:102E5000EE0FFF1FEF5FFE4FA591B4912C912D2334
:102E600081E090E021F480E002C080E090E0DF911A
:102E7000CF9108950E940D1FFC01818D228D90E05D
:102E8000805C9F4F821B91098F7399270895FC01E5
:102E9000918D828D981731F0828DE80FF11D858D0F
:102EA00090E008958FEF9FEF0895FC01918D828D42
:102EB000981761F0828DDF01A80FB11D5D968C918E
:102EC000928D9F5F9F73928F90E008958FEF9FEF99
:102ED000089589ED98E1892B49F080E090E0892BF5
:102EE00029F00E94D91881110C9400000895FC016A
:102EF000848DDF01A80FB11DA35ABF4F2C91848D83
:102F000090E001968F739927848FA689B7892C93B7
:102F1000A089B1898C9180648C93938D848D981352
:102F200006C00288F389E02D80818F7D808308951B
:102F3000CF93DF93EC01888D8823C9F0EA89FB8960
:102F4000808185FD05C0A889B9898C9186FD0FC057
:102F50000FB607FCF5CF808185FFF2CFA889B9892C
:102F60008C9185FFEDCFCE010E947717E7CFDF91DF
:102F7000CF910895CF92DF92FF920F931F93CF933B
:102F8000DF931F92CDB7DEB76C0181E0D601589672
:102F90008C9358975B969C915B975C968C915C9711
:102FA000981307C05096ED91FC915197808185FD53
:102FB0002EC0F601038D10E00F5F1F4F0F73112716
:102FC000F02EF601848DF81211C00FB607FCF9CF70
:102FD000D6015096ED91FC915197808185FFF1CFFC
:102FE000C60169830E9477176981EBCF838DE80F53
:102FF000F11DE35AFF4F6083D6015B960C935B97FC
:103000005296ED91FC915397808180620CC0D6015D
:103010005696ED91FC91579760835096ED91FC91F7
:10302000519780818064808381E090E00F90DF91F0
:10303000CF911F910F91FF90DF90CF900895BF9295
:10304000CF92DF92EF92FF92CF93DF93EC016A0170
:103050007B01B22EE889F98982E08083411581EEF7
:10306000580761057105A1F060E079E08DE390E01B
:10307000A70196010E944F1E2150310941095109B3
:103080005695479537952795211580E1380798F093
:10309000E889F989108260E874E88EE190E0A70180
:1030A00096010E944F1E2150310941095109569540
:1030B000479537952795EC85FD853083EE85FF850F
:1030C0002083188EEC89FD89B082EA89FB89808192
:1030D00080618083EA89FB89808188608083EA89B6
:1030E000FB89808180688083EA89FB8980818F7D6C
:1030F0008083DF91CF91FF90EF90DF90CF90BF90D2
:1031000008951F920F920FB60F9211242F938F9351
:103110009F93EF93FF93E091B606F091B7068081FD
:10312000E091BC06F091BD0682FD12C090818091B5
:10313000BF068F5F8F732091C006821751F0E09118
:10314000BF06F0E0EA55F94F958F8093BF0601C0A6
:103150008081FF91EF919F918F912F910F900FBEE2
:103160000F901F9018951F920F920FB60F92112477
:103170002F933F934F935F936F937F938F939F937F
:10318000AF93BF93EF93FF9386EA96E00E94771781
:10319000FF91EF91BF91AF919F918F917F916F912F
:1031A0005F914F913F912F910F900FBE0F901F9005
:1031B000189586EA96E00E943C1721E0892B09F4D5
:1031C00020E0822F08951092A9061092A80688EE9A
:1031D00093E0A0E0B0E08093AA069093AB06A093A2
:1031E000AC06B093AD0680E692E09093A70680937C
:1031F000A60685EC90E09093B3068093B20684EC2B
:1032000090E09093B5068093B40680EC90E09093A4
:10321000B7068093B60681EC90E09093B906809350
:10322000B80682EC90E09093BB068093BA0686ECD9
:1032300090E09093BD068093BC061092BF0610925A
:10324000C0061092C1061092C206089508950E9409
:1032500021160E9426190E948402C9E6D7E10E9425
:103260001C012097E1F30E946917F9CFCF92DF92FA
:10327000EF92FF920F931F93CF93DF937C016A012C
:10328000EB0100E010E00C151D0571F06991D7010C
:10329000ED91FC910190F081E02DC7010995892BFA
:1032A00019F00F5F1F4FEFCFC801DF91CF911F9132
:1032B0000F91FF90EF90DF90CF9008956115710509
:1032C00081F0DB010D900020E9F7AD01415051097B
:1032D000461B570BDC01ED91FC910280F381E02D40
:1032E000099480E090E00895EF92FF920F931F936E
:1032F000CF93DF938C017B01C0E0D0E0F701EC0FAE
:10330000FD1F6491662359F0F801A081B181ED9110
:10331000FC91C8010995892B11F02196EFCFCE01C0
:10332000DF91CF911F910F91FF90EF900895DC01F5
:10333000ED91FC910190F081E02D09946CE672E032
:103340000C945E190F931F93CF93DF93EC010E94AF
:1033500074198C01CE010E949E19800F911FDF917C
:10336000CF911F910F9108950F931F93CF93DF93E8
:10337000EC010E945E198C01CE010E949E19800F03
:10338000911FDF91CF911F910F9108958F929F927E
:10339000AF92BF92DF92EF92FF920F931F93CF9362
:1033A000DF93CDB7DEB7A1970FB6F894DEBF0FBE9F
:1033B000CDBF7C01F42FD52ECB0119A2223008F409
:1033C0002AE08E010F5D1F4F822E912CA12CB12C73
:1033D0006F2F7D2DA50194010E944F1EF22FD32E39
:1033E000CA01015011096A3014F4E0E301C0E7E3B7
:1033F000E60FD801EC93232B242B252B49F7B8019A
:10340000C7010E945E19A1960FB6F894DEBF0FBEE9
:10341000CDBFDF91CF911F910F91FF90EF90DF9083
:10342000BF90AF909F908F900895CF92DF92EF92D0
:10343000FF920F931F93CF93DF93EC016A017B01FF
:103440002115310579F4E881F9810190F081E02DB1
:10345000642FDF91CF911F910F91FF90EF90DF903C
:10346000CF9009942A303105E9F477FF1AC06DE254
:103470000E9497198C0144275527BA014C195D0900
:103480006E097F092AE0CE010E94C619800F911FA4
:10349000DF91CF911F910F91FF90EF90DF90CF9030
:1034A00008952AE0B701A601CE01DF91CF911F91C7
:1034B0000F91FF90EF90DF90CF900C94C6194F9230
:1034C0005F926F927F928F929F92AF92BF92CF92B4
:1034D000DF92EF92FF920F931F93CF93DF93EC0154
:1034E0006A017B01B22E9A01AB01C701B6010E94AD
:1034F000131E882319F06FE672E027C026013701FA
:10350000E89477F82FEF3FEF4FE75FE7C301B20191
:103510000E94131E81110DC02FEF3FEF4FE75FE7B1
:10352000C301B2010E94011C18161CF463E772E08B
:103530000CC02FEF3FEF4FE75FE4C701B6010E94D9
:10354000AC1D1816ACF467E772E0CE01DF91CF91A5
:103550001F910F91FF90EF90DF90CF90BF90AF90B1
:103560009F908F907F906F905F904F900C945E191A
:103570002FEF3FEF4FE75FECC701B6010E94011C40
:1035800087FDE1CF20E030E0A901C701B6010E942C
:10359000011C87FF0AC06DE2CE010E9497198C01C1
:1035A000F7FAF094F7F8F09402C000E010E0A12CD4
:1035B00060E070E080E09FE3AB1441F020E030E099
:1035C00040E251E40E94051CA394F6CF9B01AC019C
:1035D000C701B6010E949D1B6B017C010E94721CF9
:1035E0002B013C010E949E1C9B01AC01C701B6014E
:1035F0000E949C1B6B017C012AE0B301A201CE0159
:103600000E94C619080F191FBB2039F06BE772E042
:10361000CE010E945E19080F191F7B2C772041F103
:1036200020E030E040E251E4C701B6010E94B01D45
:103630006B017C010E946D1C4B01AA2497FCA09495
:10364000BA2C2AE030E0B501A401CE010E94151A7F
:10365000080F191FC501B4010E94A01C9B01AC01F9
:10366000C701B6010E949C1B6B017C017A94D6CFE6
:10367000C801DF91CF911F910F91FF90EF90DF90E4
:10368000CF90BF90AF909F908F907F906F905F9002
:103690004F9008950F931F93CF93DF93EC010E94F7
:1036A0005F1A8C01CE010E949E19800F911FDF913D
:1036B000CF911F910F910895CF93DF9300D000D049
:1036C000CDB7DEB79B01AC01611571058105910590
:1036D00069F069833A834B835C830E94FF1E2981D2
:1036E0003A814B815C810E94711E03C060E070E0F2
:1036F000CB010F900F900F900F90DF91CF91089515
:10370000CF92DF92EF92FF926B017C0162177307F9
:103710008407950764F4CA01B9016C197D098E0903
:103720009F090E945C1B6C0D7D1D8E1D9F1DFF90CF
:10373000EF90DF90CF9008955058BB27AA270ED066
:10374000D1C1C2D130F0C7D120F031F49F3F11F484
:103750001EF4B7C10EF4E095E7FB9FC1E92FD3D16A
:1037600080F3BA17620773078407950718F071F49E
:103770009EF5EBC10EF4E0950B2EBA2FA02D0B0198
:10378000B90190010C01CA01A0011124FF27591BA6
:1037900099F0593F50F4503E68F11A16F040A22FAC
:1037A000232F342F4427585FF3CF4695379527951D
:1037B000A795F0405395C9F77EF41F16BA0B620B1C
:1037C000730B840BBAF09150A1F0FF0FBB1F661F63
:1037D000771F881FC2F70EC0BA0F621F731F841FA6
:1037E00048F4879577956795B795F7959E3F08F0CC
:1037F000B3CF9395880F08F09927EE0F979587958B
:10380000089527D108F481E008950CD06BC163D1ED
:1038100040F05AD130F021F45F3F19F03EC1511110
:1038200095C14FC170D198F39923C9F35523B1F3D2
:10383000951B550BBB27AA2762177307840738F01F
:103840009F5F5F4F220F331F441FAA1FA9F333D07E
:103850000E2E3AF0E0E830D091505040E695001C32
:10386000CAF729D0FE2F27D0660F771F881FBB1FEE
:10387000261737074807AB07B0E809F0BB0B802DC8
:10388000BF01FF2793585F4F2AF09E3F510568F014
:1038900004C15CC15F3FECF3983EDCF386957795FD
:1038A0006795B795F7959F5FC9F7880F911D969516
:1038B000879597F90895E1E0660F771F881FBB1F72
:1038C000621773078407BA0720F0621B730B840B1F
:1038D000BA0BEE1F88F7E095089504D06894B111F3
:1038E00035C1089518D188F09F5790F0B92F9927C6
:1038F000B751A0F0D1F0660F771F881F991F1AF0FB
:10390000BA95C9F712C0B13081F01FD1B1E0089566
:103910001CC1672F782F8827B85F39F0B93FCCF3E7
:10392000869577956795B395D9F73EF490958095F0
:10393000709561957F4F8F4F9F4F0895E89409C010
:1039400097FB3EF490958095709561957F4F8F4FD2
:103950009F4F9923A9F0F92F96E9BB279395F695E8
:10396000879577956795B795F111F8CFFAF4BB0F66
:1039700011F460FF1BC06F5F7F4F8F4F9F4F16C0CA
:10398000882311F096E911C0772321F09EE8872F54
:10399000762F05C0662371F096E8862F70E060E010
:1039A0002AF09A95660F771F881FDAF7880F969589
:1039B000879597F9089588D018F011F08CD038F4D5
:1039C00080C0C4C0E92F9FD0B0F35523C9F3E7FBF3
:1039D0006217730784079507A8F199F3E92FFF276A
:1039E00088232AF03197660F771F881FDAF7952F03
:1039F0005527442332F091505040220F331F441F6B
:103A0000D2F7BB27E91BF50B621B730B840BB109C3
:103A1000C1F222F4620F731F841FB11D31972AF087
:103A2000660F771F881FBB1FEFCF915050405AF091
:103A300041F0882332F0660F771F881F9150504065
:103A4000C1F7939530C08695779567959F5FD9F7B5
:103A5000F8CF990F0008550FAA0BE0E8FEEF1616F5
:103A60001706E807F907C0F012161306E407F50772
:103A700098F0621B730B840B950B39F40A2661F0E6
:103A8000232B242B252B21F408950A2609F4A14089
:103A9000A6958FEF811D811D089597F99F6780E896
:103AA00070E060E008959F3F31F0915020F48795D9
:103AB00077956795B795880F911D9695879597F996
:103AC00008959FEF80EC089500240A9416161706B7
:103AD00018060906089500240A94121613061406FF
:103AE00005060895092E0394000C11F4882352F062
:103AF000BB0F40F4BF2B11F460FF04C06F5F7F4F1A
:103B00008F4F9F4F089557FD9058440F551F59F000
:103B10005F3F71F04795880F97FB991F61F09F3FBA
:103B200079F087950895121613061406551FF2CFE3
:103B30004695F1DF08C0161617061806991FF1CF33
:103B400086957105610508940895E894BB2766275A
:103B50007727CB0197F908957CDF08F48FEF08955C
:103B60000BD0C0CFB1DF28F0B6DF18F0952309F0F5
:103B700094CFA7CF1124EACFC6DFA0F3959FD1F34E
:103B8000950F50E0551F629FF001729FBB27F00D0B
:103B9000B11D639FAA27F00DB11DAA1F649F662760
:103BA000B00DA11D661F829F2227B00DA11D621FAF
:103BB000739FB00DA11D621F839FA00D611D221F69
:103BC000749F3327A00D611D231F849F600D211D4D
:103BD000822F762F6A2F11249F5750408AF0E1F0F0
:103BE00088234AF0EE0FFF1FBB1F661F771F881F39
:103BF00091505040A9F79E3F510570F04ECFA6CF8F
:103C00005F3FECF3983EDCF3869577956795B79523
:103C1000F795E7959F5FC1F7FE2B880F911D96954D
:103C2000879597F9089515DF880B990B0895DB01A7
:103C30008F939F930E94901EBF91AF91A29F800D82
:103C4000911DA39F900DB29F900D11240895AA1B62
:103C5000BB1B51E107C0AA1FBB1FA617B70710F077
:103C6000A61BB70B881F991F5A95A9F780959095A9
:103C7000BC01CD01089597FB072E16F4009407D0E0
:103C800077FD09D00E94271E07FC05D03EF49095D1
:103C900081959F4F0895709561957F4F0895A1E29A
:103CA0001A2EAA1BBB1BFD010DC0AA1FBB1FEE1FB6
:103CB000FF1FA217B307E407F50720F0A21BB30B01
:103CC000E40BF50B661F771F881F991F1A9469F77D
:103CD00060957095809590959B01AC01BD01CF01D9
:103CE0000895052E97FB1EF400940E94881E57FD30
:103CF00007D00E944F1E07FC03D04EF40C94881E80
:103D000050954095309521953F4F4F4F5F4F089507
:103D100090958095709561957F4F8F4F9F4F089537
:103D20000E94A11EA59F900DB49F900DA49F800D91
:103D3000911D11240895EE0FFF1F0590F491E02DC1
:103D40000994A29FB001B39FC001A39F700D811D74
:103D50001124911DB29F700D811D1124911D089594
:103D60008F929F92AF92BF92CF92DF92EF92FF928B
:103D7000CF93DF93EC01688179818A819B81611502
:103D800071058105910521F464E279ED8BE597E0F9
:103D90002DE133EF41E050E00E94711E49015A01CC
:103DA0009B01AC01A7EAB1E40E94901E6B017C016B
:103DB000ACEEB4EFA50194010E944721C60ED71EB8
:103DC000E81EF91EF7FE06C081E0C81AD108E10816
:103DD00080E8F80AC882D982EA82FB82C701B6016C
:103DE0009F77DF91CF91FF90EF90DF90CF90BF90C2
:103DF000AF909F908F9008950E94B01E089580E02C
:103E000091E00E94B01E089560930001709301013B
:103E10008093020190930301089581E090E0F8946B
:103E20000C948321662777270C94BE1FFC018827FA
:103E30009927E89421912032E9F3293010F02E30AF
:103E4000C8F32B3241F02D3239F4689404C00E943B
:103E5000B61F820F911D219120532A30C0F31EF40A
:103E6000909581959F4F08951F93FC01992788276E
:103E7000BC01E89411911032E9F3193010F01E30B2
:103E8000C8F31B3251F01D3249F4689406C00E94F9
:103E9000A11F610F711D811D911D119110531A30C9
:103EA000B0F33EF490958095709561957F4F8F4F5C
:103EB0009F4F1F910895FB01DC0102C005900D92F8
:103EC00041505040D8F70895FB01DC0102C0019039
:103ED0000D9241505040D8F70895FC01819186170A
:103EE00021F08823D9F7992708953197CF010895B4
:103EF000FB01DC014150504048F001900D92002040
:103F0000C9F701C01D9241505040E0F70895FB01F0
:103F100051915523A9F0BF01DC014D914517411185
:103F2000E1F759F4CD010190002049F04D91401581
:103F30004111C9F3FB014111EFCF81E090E00197FE
:103F40000895592F482F372F262F660F771F881F68
:103F5000991F660F771F881F991F620F731F841F99
:103F6000951F660F771F881F991F08957AE0979F06
:103F7000902D879F802D910D11240895A0E0B0E031
:103F8000E4ECFFE10C9452218B016115710521F0E5
:103F9000DB018C9311969C93EC015E01BFEFAB1A91
:103FA000BB0A7501C8808C2D90E00E942421892BCA
:103FB00011F0E501F2CFEDE2CE1208C07E01F2E091
:103FC000EF0EF11CC980DD24D39409C02BE2C2128C
:103FD00005C07E0142E0E40EF11CC980D12CE7014E
:103FE000219743E050E067E271E0CE010E942C216E
:103FF000892BC1F4239645E050E062E271E0CE01E6
:104000000E942C21892B09F425960115110519F020
:10401000D801CD93DC93D11006C160E070E080E858
:104020009FE70AC143E050E06FE171E0CE010E94DA
:104030002C21892B59F40115110509F4F9C0B2E0BE
:10404000EB0EF11CF801F182E082F2C0F70160E0B2
:1040500070E0CB01C0E0D0E07F01A0EDAA2EAC0C57
:1040600029E02A1530F14D2D4260B42E2D2D2870F7
:10407000D2FE04C0211125C0219623C02111219711
:10408000A5E0B0E09B01AC010E94901E660F771F77
:10409000881F991F6A0D711D811D911D6839A9E93D
:1040A0007A078A07A9E19A0760F0BD2DB660BB2E9A
:1040B00008C02EEFA2120AC0D3FC50C04D2D48609C
:1040C000B42E3196D701CC90DB2CC6CF2C2D2F7D72
:1040D000253409F043C0A081AD3241F4BD2DB0615B
:1040E000DB2E7F0122E0E20EF11C0CC07F01AB321F
:1040F00031F04FEFE41AF40A21E030E006C0A2E00C
:10410000EA0EF11CA18122E030E0A053AA3018F0A1
:10411000E21AF30A23C0F70120E030E02038BCE0C7
:104120003B075CF4A901440F551F440F551F240F92
:10413000351F220F331F2A0F311DAF014F5F5F4F15
:104140007A01A081A053AA3010F4FA01E7CFD4FE7F
:1041500003C0319521953109C20FD31FD1FE09C08B
:104160000115110531F0E1E0EE1AF108D801ED92E8
:10417000FC920E949E1C2D2D2370233019F04B01C0
:104180005C0106C04B015C01B7FAB094B7F8B0947B
:1041900020E030E0A901C501B4010E94011C882380
:1041A00009F43EC0D7FF06C0D195C195D1090EE3F1
:1041B00011E002C006E511E06801B8E1CB1AD108B0
:1041C00090E2E92EF12CCE15DF0574F0F80125916F
:1041D000359145915491C501B4010E94B01D4B0128
:1041E0005C01CE19DF09EFCF04501109F594E79473
:1041F0000C151D0541F78A2D880F8B2D881F8F3FC9
:1042000049F020E030E0A901C501B4010E94011C81
:10421000811106C082E290E09093440780934307A7
:10422000C501B40109C060E070E080E89FEF04C000
:1042300060E070E080EC9FE7CDB7DEB7ECE00C9477
:104240006E219927882708959111FBCF803219F0AC
:1042500089508550D0F70895FB01DC014150504052
:1042600088F08D9181341CF08B350CF4805E659163
:1042700061341CF06B350CF4605E861B611171F3C8
:10428000990B0895881BFCCFB7FF0C94901E0E94D9
:10429000901E821B930B08952F923F924F925F9234
:1042A0006F927F928F929F92AF92BF92CF92DF9246
:1042B000EF92FF920F931F93CF93DF93CDB7DEB7AB
:1042C000CA1BDB0B0FB6F894DEBF0FBECDBF09943F
:1042D0002A88398848885F846E847D848C849B8496
:1042E000AA84B984C884DF80EE80FD800C811B81A4
:1042F000AA81B981CE0FD11D0FB6F894DEBF0FBED3
:10430000CDBFED01089511E0C0E6D1E004C0FE018B
:104310000E949D1E2296C236D107C9F7F894FFCF9E
:1043200001000000FF14FF14015253204C52204D95
:1043300045474120302E33205243303100000000E9
:104340000066033619D1034503B903B80324475067
:1043500047474100244750524D430024504D544B91
:104360003138352C302A32320024504D544B303005
:10437000312C3138352C332A33430024504D544BE3
:104380003138352C312A32330024504D544B3138DA
:10439000332A33380024504D544B4C4F470024509F
:1043A0004D544B3136312C302A32380024504D5484
:1043B0004B3031302C3030322A32440000000000C3
:1043C000120D3A173A173A173A17380D4A0D8F0D52
:1043D000580D170D1A0D1D0D200D230D140D2A0D4E
:1043E0002D0D300D330D360D000000003A17D50DA0
:1043F000D60D3A173A17D70DDB0DDF0D0500040473
:1044000000000000EF0DF60DFA0D0E0EFE0DD70D9B
:10441000DB0DDF0D000000006A0F3A173A173A175C
:104420003A17380D4A0D8F0D580D170D1A0D1D0D29
:10443000200D230D140D2A0D2D0D300D330D360DCD
:104440000D0E131516191A1C232526292A2C323471
:10445000000000007F1487136C12B1131512380D81
:104460004A0D8F0D580D170D1A0D1D0D200D230D22
:10447000140D2A0D2D0D300D330D17120000000004
:10448000BA1736193C175517471798170D0A006EBB
:0E449000616E00696E66006F7666002E000099
:00000001FF
