:100000000C9482000C94A8110C94CF110C94C00F86
:100010000C94C00F0C94C00F0C94AA000C94AA006E
:100020000C94AA000C94AA000C94AA000C94AA00A8
:100030000C94AA000C94AA000C94AC000C94AA0096
:100040000C94F6110C94AA000C94D8140C940A1574
:100050000C94AA000C94AA000C94AA000C94AA0078
:100060000C94AA000C94AA000000000800020100F1
:100070000003040700000000000000000102040863
:100080001020408001020408102001020408102002
:10009000040404040404040402020202020203032E
:1000A00003030303000000002300260029000000D2
:1000B0000000250028002B0000000000240027007D
:1000C0002A004E414E494E495459494E46CDCCCC5A
:1000D0003D0AD7233C17B7D13877CC2B329595E61C
:1000E000241FB14F0A000020410000C84200401CFC
:1000F0004620BCBE4CCA1B0E5AAEC59D740092026F
:100100003A15CA0211241FBECFEFD8E0DEBFCDBF23
:1001100012E0A0E0B1E0EAEEFCE302C005900D922F
:10012000A834B107D9F725E0A8E4B2E001C01D92D8
:10013000AA32B207E1F710E0C2E0D1E004C0229792
:10014000FE010E94FD19CE3FD107C9F70E947E151E
:100150000C94681E0C9400001F920F920FB60F9221
:1001600011242F933F934F935F936F937F938F93BC
:100170009F93AF93BF93EF93FF9389E492E00E9424
:10018000CE02FF91EF91BF91AF919F918F917F919F
:100190006F915F914F913F912F910F900FBE0F90F4
:1001A0001F901895882359F08FEA87BD80916E00C3
:1001B000826080936E0081E0809348020895809170
:1001C0006E008D7F80936E0010924802089561E06A
:1001D00089E00E94FB1226E040E052EC61E070E012
:1001E00087E894E00E9476146AE071E087E894E082
:1001F0000E94F11528EC42E06BE280EF92E00E9451
:10020000D60B61E080EF92E00E949E0E6091BB02EF
:1002100080EF92E00E94D80E60E875E289E492E0F7
:100220000E949D0363E271E089E492E00E94BA03B8
:1002300065E571E089E492E00E94BA0381E00E94E2
:10024000D20068EE73E080E090E00E946F1266E6F4
:1002500071E088E992E00C94F115CF92DF92EF9271
:10026000FF920F93CF93DF9300D000D000D0CDB793
:10027000DEB780914802811104C089E492E00E94B7
:10028000CE0289E492E00E94CB0381111AC0C09093
:10029000B702D090B802E090B902F090BA020E9482
:1002A00040126C157D058E059F05B8F40E94401222
:1002B0006093B7027093B8028093B9029093BA0228
:1002C0000CC089E492E00E94CE03BC0189E492E074
:1002D0000E94E4038111DBCF17C10E944012C0903D
:1002E000B702D090B802E090B902F090BA026C194F
:1002F0007D098E099F09613D77408105910508F4CC
:1003000003C10E9440126093B7027093B8028093B9
:10031000B9029093BA0280918402882321F061E0AF
:1003200089E00E94341389E492E00E94CE03BC016C
:10033000CE0101960E94ED16BE016F5F7F4F87E8E8
:1003400094E00E94DF15809149028093BF02809162
:100350004A028093C00280914B028093C102809137
:100360004E028093C40280914D028093C502809119
:100370004C028093C60280914F029091500290935C
:10038000C3028093C2028091710290917202A09187
:100390007302B09174028093C7029093C802A09335
:1003A000C902B093CA028091750290917602A09121
:1003B0007702B09178028093CB029093CC02A09305
:1003C000CD02B093CE028091510290915202A09141
:1003D0005302B09154028093CF029093D002A09325
:1003E000D102B093D202809181028093D302809196
:1003F000550290915602A0915702B09158028093F5
:10040000D4029093D502A093D602B093D7028091E4
:1004100082028093D80280916D0290916E02A09129
:100420006F02B09170028093D9029093DA02A09388
:10043000DB02B093DC02809185028093DD02809123
:1004400086028093DE0280917D0290917E02A091CF
:100450007F02B09180028093DF029093E002A0932C
:10046000E102B093E2028091690290916A02A09148
:100470006B02B0916C028093E3029093E402A0932C
:10048000E502B093E6028091610290916202A09130
:100490006302B09164028093E7029093E802A09314
:1004A000E902B093EA028091650290916602A09100
:1004B0006702B09168028093EB029093EC02A093E4
:1004C000ED02B093EE02809184028093EF0262E726
:1004D00071E087E894E00E94D9154AE050E064E3B7
:1004E00070E087E894E00E94691682E3E82E02E05B
:1004F00024E34CEB52E061E080EF92E00E94B1090E
:10050000CE0101960E947F1626960FB6F894DEBFA4
:100510000FBECDBFDF91CF910F91FF90EF90DF9095
:10052000CF9008958BEF91E09093F1028093F002C9
:100530008AE08093F20282E08093F3021092F40248
:1005400081E08093FB031092F6028FE18093F70223
:100550001092F8028FE29AE2A0E08093BC0290939E
:10056000BD02A093BE020E9440126093B702709336
:10057000B8028093B9029093BA0220E043E064E0AD
:1005800088E992E00E94931068E972E089E492E0C1
:100590000C948C0388E992E00C943A10CF93DF938B
:1005A000FC01E65BFF4F2081222311F080E065C053
:1005B000EC01C55BDF4FA881B981109741F0ED9147
:1005C000FC9111970480F581E02DCD010BC0EC0169
:1005D000C35BDF4F88819981DC01ED91FC91048040
:1005E000F581E02D0995892B09F388819981DC013A
:1005F000ED91FC910680F781E02D09958A3049F54F
:1006000090910003E091FE02F091FF02E90FF11DCD
:1006100010822091FE023091FF02B3E029373B07A0
:1006200039F441E053E05093FF024093FE0208C0CA
:1006300029E733E03093FF022093FE0221E033E00C
:100640003093FD022093FC021092000391E09093FE
:10065000FB02E091FE02F091FF029091000321E085
:10066000290F20930003E90FF11D8083909100036F
:10067000983718F097E790930003DF91CF91089592
:10068000FC01DC01A55BBF4F11961C921E921296D5
:1006900011961C921E921092FB0213971C921092BC
:1006A000000389E793E09093FF028093FE0281E0CC
:1006B00093E09093FD028093FC0215AE14AE158278
:1006C0001482138212821182108212AE11AE10AE09
:1006D00013AE1782168214AA15AA16AA17AA10AA70
:1006E00011AA12AA13AA14A615A616A617A610A632
:1006F00011A612A613A614A215A216A217A210A242
:1007000011A212A213A214861586168617861086C9
:1007100011861286138608950F931F93CF93DF934C
:10072000EC018B010E944003C55BDF4F19830883F6
:10073000DF91CF911F910F910895FC01E55BFF4F71
:1007400020813181AB0160E070E02115310521F09D
:10075000C9010E94C31008C0FC01E35BFF4F26E003
:10076000808191810E9476146AE070E080E090E0E0
:100770000C946F12FC01E55BFF4F20813181211544
:10078000310511F0C90105C0FC01E35BFF4F808119
:1007900091810C94F1158091FB0208951092FB0257
:1007A0008091FC029091FD02089560335CF06A3301
:1007B00014F480ED05C08FEB860F863018F489ECB9
:1007C000860F089580E008952F923F924F925F9296
:1007D0006F927F928F929F92AF92BF92CF92DF9251
:1007E000EF92FF920F931F93CF93DF93CDB7DEB7B6
:1007F0002A970FB6F894DEBF0FBECDBF8C017B01E8
:10080000FB0101900020E9F73197E61BF70B6F0120
:1008100024E0C21AD108DB01AC0DBD1D8C918A32D7
:1008200061F55B01AE0EBF1EF50133976081C80113
:100830000E94D50330E1839F30011124F5013297E6
:100840006081C8010E94D503D301A80FB11DCD015D
:1008500042E0242F30E02C153D0558F4F701E20F5B
:10086000F31F2081332727FD3095822793274F5F81
:10087000F0CF892B11F080E0E1C468E871E0C70196
:100880000E947C1C892B09F468C26CE270E0C701ED
:100890000E945B1C01961C010E94011C6B017C01E3
:1008A0000E94DA174B015C0120E137E240E050E0A2
:1008B0000E949B19F801208344E6442E512C612CA0
:1008C000712CA30192010E949B19D80111962C93BF
:1008D000C501B401A30192010E949B19F801628332
:1008E00020E030E040E85FE3C701B6010E944A180B
:1008F00020E030E04AE754E40E9414190E94DA171D
:10090000D80117967C936E9316976CE270E0C10144
:100910000E945B1C7C015C01BFEFAB1ABB0AFC01AF
:1009200081818C3209F4A5C042E050E0B501CE01CE
:1009300001960E946D1C1B82CE0101960E94231C11
:100940009B01AC0160E876E988E990E00E947719A4
:100950002B013C01B7016D5F7F4F42E050E0CE01BB
:1009600001960E946D1C5701F6E0AF0EB11C44E0E9
:1009700050E0B501CE0103960E946D1C1F82CE018E
:1009800001960E94231C9B01AC01A2E3B0E00E94EF
:10099000DC1923E030E040E050E00E94BD1969011D
:1009A0007A01D301C201820F931FA41FB51FF80162
:1009B000808B918BA28BB38BC301B20120EA36E806
:1009C00041E050E00E94BD19CA01B9010E94081817
:1009D0002B013C01C701B6010E9408182CE933E540
:1009E00049EC56E30E9414199B01AC01C301B2010A
:1009F0000E9405176B017C01D80118966D937D93B9
:100A00008D939C931B9720E030E048EC52E40E94C9
:100A10006D170E94D5172B013C0184E6849DB0011F
:100A2000859D700D1124882777FD8095982F0E9451
:100A300008189B01AC01C701B6010E94041720E011
:100A400030E040E752E40E946D176B017C01B20177
:100A5000882777FD8095982F0E9408189B01AC018C
:100A6000C701B6010E940517F801608F718F828F50
:100A7000938F6CE270E0C5010E945B1CFC01019643
:100A800021812C3209F1233571F4D80158964D910A
:100A90005D916D917C915B97705858964D935D93E5
:100AA0006D937C935B9721812E3419F4F80120AF6C
:100AB0000BC0233521F4D801D8962C9305C02C32D5
:100AC00009F0D9CEF80110AE6CE270E00E945B1C18
:100AD0007C015C01FFEFAF1ABF0ADC0111968C911B
:100AE0008C3209F4A5C043E050E0B501CE01019677
:100AF0000E946D1C1C82CE0101960E94231C9B014A
:100B0000AC0160E876E988E990E00E9477192B0152
:100B10003C01B7016C5F7F4F42E050E0CE0101968F
:100B20000E946D1C5701B7E0AB0EB11C44E050E0D1
:100B3000B501CE0103960E946D1C1F82CE01019665
:100B40000E94231C9B01AC01A2E3B0E00E94DC19CF
:100B500023E030E040E050E00E94BD1969017A01D5
:100B6000D301C201820F931FA41FB51FF801848B0C
:100B7000958BA68BB78BC301B20120EA36E841E022
:100B800050E00E94BD19CA01B9010E9408182B014A
:100B90003C01C701B6010E9408182CE933E549EC75
:100BA00056E30E9414199B01AC01C301B2010E94DB
:100BB00005176B017C01D8011C966D937D938D9375
:100BC0009C931F9720E030E048EC52E40E946D17A0
:100BD0000E94D5172B013C0184E6849DB001859DC0
:100BE000700D1124882777FD8095982F0E94081892
:100BF0009B01AC01C701B6010E94041720E030E060
:100C000040E752E40E946D176B017C01B201882716
:100C100077FD8095982F0E9408189B01AC01C701B1
:100C2000B6010E940517F801648F758F868F978F24
:100C30006CE270E0C5010E945B1CFC010196218101
:100C40002C3209F1273571F4D8015C964D915D91F4
:100C50006D917C915F9770585C964D935D936D9309
:100C60007C935F972181273519F4F80121AF0BC0E0
:100C7000253421F4D801D9962C9305C02C3209F0E3
:100C8000FACDF80111AE6CE270E00E945B1C7C01B1
:100C9000FFEFEF1AFF0ADC0111968C918C3229F0DC
:100CA000C7010E94051CF80184AF6CE270E0C70127
:100CB0000E945B1C7C01FFEFEF1AFF0ADC0111961A
:100CC0008C918C3229F0C7010E94051CF80185AF78
:100CD0006CE270E0C7010E945B1C7C01FFEFEF1A21
:100CE000FF0ADC0111968C918C3241F0C7010E9401
:100CF000011CF80164AB75AB86AB97AB6CE270E09E
:100D0000C7010E945B1C7C01FFEFEF1AFF0ADC01A8
:100D100011968C918C3241F0C7010E94011CF801A0
:100D200064A375A386A397A36CE270E0C7010E9439
:100D30005B1C6CE270E001960E945B1CDC0111966A
:100D40002C912C3209F479C201960E94011CF80101
:100D500060A371A382A393A370C26FE871E0C7017F
:100D60000E947C1C892B09F486CD6CE270E0C701DF
:100D70000E945B1C01961C010E94011C6B017C01FE
:100D80000E94DA174B015C0120E137E240E050E0BD
:100D90000E949B19D8012C9334E6432E512C612CD0
:100DA000712CA30192010E949B19F8012183C501B6
:100DB000B401A30192010E949B19D80112966C9371
:100DC00020E030E040E85FE3C701B6010E944A1826
:100DD00020E030E04AE754E40E9414190E94DA1738
:100DE000F801778366836CE270E0C1010E945B1CAE
:100DF000DC0111962C91213421F421E0F80123AF7C
:100E000006C0263509F037CDD801DB961C926CE27E
:100E100070E001960E945B1C7C015C01BFEFAB1A85
:100E2000BB0AFC0181818C3209F4A5C042E050E08C
:100E3000B501CE0101960E946D1C1B82CE01019668
:100E40000E94231C9B01AC0160E876E988E990E0F0
:100E50000E9477192B013C01B7016D5F7F4F42E083
:100E600050E0CE0101960E946D1C5701F6E0AF0ED6
:100E7000B11C44E050E0B501CE0103960E946D1C08
:100E80001F82CE0101960E94231C9B01AC01A2E3AC
:100E9000B0E00E94DC1923E030E040E050E00E9426
:100EA000BD1969017A01D301C201820F931FA41FEA
:100EB000B51FF801808B918BA28BB38BC301B2015C
:100EC00020EA36E841E050E00E94BD19CA01B901AC
:100ED0000E9408182B013C01C701B6010E940818A6
:100EE0002CE933E549EC56E30E9414199B01AC014F
:100EF000C301B2010E9405176B017C01D80118964D
:100F00006D937D938D939C931B9720E030E048EC8C
:100F100052E40E946D170E94D5172B013C0184E614
:100F2000849DB001859D700D1124882777FD8095E3
:100F3000982F0E9408189B01AC01C701B6010E94BE
:100F4000041720E030E040E752E40E946D176B0187
:100F50007C01B201882777FD8095982F0E940818A0
:100F60009B01AC01C701B6010E940517F801608F13
:100F7000718F828F938F6CE270E0C5010E945B1CC1
:100F8000FC01019621812C3209F1233571F4D8013D
:100F900058964D915D916D917C915B9770585896E4
:100FA0004D935D936D937C935B9721812E3419F45F
:100FB000F80120AF0BC0233521F4D801D8962C932B
:100FC00005C02C3209F057CCF80110AE6CE270E08D
:100FD0000E945B1C7C015C01FFEFAF1ABF0ADC01C1
:100FE00011968C918C3209F4A5C043E050E0B50114
:100FF000CE0101960E946D1C1C82CE0101960E94BA
:10100000231C9B01AC0160E876E988E990E00E942E
:1010100077192B013C01B7016C5F7F4F42E050E034
:10102000CE0101960E946D1C5701B7E0AB0EB11CBA
:1010300044E050E0B501CE0103960E946D1C1F8272
:10104000CE0101960E94231C9B01AC01A2E3B0E0FB
:101050000E94DC1923E030E040E050E00E94BD191E
:1010600069017A01D301C201820F931FA41FB51F2A
:10107000F801848B958BA68BB78BC301B20120EA54
:1010800036E841E050E00E94BD19CA01B9010E9452
:1010900008182B013C01C701B6010E9408182CE971
:1010A00033E549EC56E30E9414199B01AC01C301DE
:1010B000B2010E9405176B017C01D8011C966D934B
:1010C0007D938D939C931F9720E030E048EC52E491
:1010D0000E946D170E94D5172B013C0184E6849D68
:1010E000B001859D700D1124882777FD8095982F7C
:1010F0000E9408189B01AC01C701B6010E940417A9
:1011000020E030E040E752E40E946D176B017C0163
:10111000B201882777FD8095982F0E9408189B01BF
:10112000AC01C701B6010E940517F801648F758FE5
:10113000868F978F6CE270E0C5010E945B1CFC01FA
:10114000019621812C3209F1273571F4D8015C9682
:101150004D915D916D917C915F9770585C964D9328
:101160005D936D937C935F972181273519F4F80186
:1011700021AF0BC0253421F4D801D9962C9305C09A
:101180002C3209F078CBF80111AE6CE270E00E94CD
:101190005B1C7C01FFEFEF1AFF0ADC0111968C91BA
:1011A0008C3241F0C7010E94011CF80160A771A7B1
:1011B00082A793A76CE270E0C7010E945B1C7C01D0
:1011C000FFEFEF1AFF0ADC0111968C918C3241F08F
:1011D000C7010E94011CF80164A775A786A797A7FD
:1011E0006CE270E0C7010E945B1CDC0111962C913F
:1011F0002C3219F101960E94011C0E94DA172B0172
:101200003C0120E137E240E050E00E949B19F801E8
:10121000258324E6C22ED12CE12CF12CA7019601C6
:101220000E949B19D80114962C93C301B201A70107
:1012300096010E949B19F801638381E02A960FB6FC
:10124000F894DEBF0FBECDBFDF91CF911F910F91FC
:10125000FF90EF90DF90CF90BF90AF909F908F90D6
:101260007F906F905F904F903F902F9008950895DA
:101270008091F1039091F203DC01ED91FC910484E3
:10128000F585E02D0994CF93DF93EC0161E08A812D
:101290000E94341389858CBD8A858DBD7894DF9139
:1012A000CF910895FC01F8948CB581878DB5828724
:1012B0008CB5837F8CBD8CB58F7D8CBD8CB58C7FC0
:1012C0008CBD8DB58E7F8DBD60E082810C94341312
:1012D000F8942091FB03233021F42091F70321118E
:1012E0000FC02091FB03233011F4789407C0DC0178
:1012F000ED91FC910288F389E02D099580E0089535
:10130000DC01ED91FC910488F589E02D61E00995FF
:1013100081E008958EBD00000DB407FEFDCF8EB5AF
:101320000895CF93DF931F92CDB7DEB7DC01ED9127
:10133000FC910480F581E02D6983099569818823FA
:1013400059F08091F903861711F06F3F29F49091BD
:10135000F50381E0911101C080E00F90DF91CF9102
:1013600008952F923F924F925F927F928F929F9219
:10137000AF92BF92CF92DF92EF92FF920F931F93A3
:10138000CF93DF93EC01962E5A01722E802E10E03F
:10139000CE2CD12CE12CF12CE881F9810190F08147
:1013A000E02D01E0272DA501692DCE0109950E94B0
:1013B00040121B012C010E9440126219730984091A
:1013C00095096C157D058E059F0540F4692DCE01AC
:1013D0000E949109882379F381E004C01F5F811680
:1013E000D8F680E0DF91CF911F910F91FF90EF90A1
:1013F000DF90CF90BF90AF909F908F907F905F9045
:101400004F903F902F900895EF92FF921F93CF93AC
:10141000DF931F92CDB7DEB77C01DC01ED91FC912B
:10142000008CF18DE02D698309956981862F8F7776
:101430000E948A0980E00E948A09182FD701ED9145
:10144000FC91028CF38DE02DC7010995812F0F903F
:10145000DF91CF911F91FF90EF9008950F931F930D
:10146000CF93DF9300D0CDB7DEB78C01DC01ED91D7
:10147000FC91008CF18DE02D4A8369830995698187
:10148000862F80680E948A094A81842F0E948A09D7
:10149000D801ED91FC91028CF38DE02DC8010F90E5
:1014A0000F90DF91CF911F910F9109941F93CF93CC
:1014B000DF93EC01162F8091FB03681709F461C0DC
:1014C000623009F440C070F4662309F444C061300E
:1014D00009F057C061E0CE010E94040A482F437E04
:1014E00044603FC06330C1F0643009F04AC061E03D
:1014F000CE010E94040A482F437E4C6061E0CE0179
:101500000E942E0A8885882381F1E881F981068866
:10151000F789E02D61E014C061E0CE010E94040A69
:10152000482F437E406161E0CE010E942E0A8885EB
:101530008823D9F0E881F9810688F789E02D60E0F9
:10154000CE01099512C061E0CE010E94040A482F25
:10155000437E486006C061E0CE010E94040A482F25
:10156000437E61E0CE010E942E0A8091FB0381112F
:1015700006C067E2CE010E94040A87FFF6CF1093EF
:10158000FB03DF91CF911F910895CF93DF93EC017F
:10159000603208F06FE16F838885882311F06695CB
:1015A0006F8361E1CE010E94040A482F407E8F8143
:1015B000482B61E1CE01DF91CF910C942E0ACF929E
:1015C000DF92EF92FF920F931F93CF93DF93EC0183
:1015D000F62ED42EC52E122FE881F9810488F589C4
:1015E000E02D61E0099567E2CE010E94040A87FFC1
:1015F000FACF40E065E2CE010E942E0A1E3308F0C9
:101600001DE3E11004C0002319F000E401C000E86C
:10161000E881F981008CF18DE02DCE01099580E8FB
:101620000E948A0983E0810F0E948A098F2D0E94FF
:101630008A098D810E948A09802F0E948A090D2DB6
:10164000ED2CFC2C8E2D801B811730F4F70181913D
:101650007F010E948A09F6CFE881F981028CF38D1F
:10166000E02DCE010995E881F9810488F589E02D06
:1016700064E0CE0109950E9440126B017C018B81D0
:101680000E946A13892B81F0E881F9810488F58929
:10169000E02D61E0CE01DF91CF911F910F91FF907E
:1016A000EF90DF90CF9009940E9440126C197D0951
:1016B0008E099F09683E73408105910528F7DFCFA9
:1016C000CF93DF93EC011092FA031092F90310927A
:1016D000F8031092F7031092F6031092F50310929C
:1016E000F4031092F30368E20E94040A82FF0AC026
:1016F0006DE3CE010E94040A482F44606DE3CE01E1
:101700000E942E0A40E465E2CE010E942E0AE88182
:10171000F9810488F589E02D63E0CE01DF91CF9156
:101720000994DF92EF92FF920F931F93CF93DF9371
:10173000EC018B01E881F9810488F589E02D61E0F5
:10174000099501151105E1F0E881F981008CF18D11
:10175000E02DCE0109958EEB0E948A097801D12CEB
:10176000F70181917F010E948A09D394F0E1DF1291
:10177000F7CFE881F981028CF38DE02DCE01099538
:101780006DE3CE010E94040A8E7F91E0012B09F4E3
:1017900090E0482F492B6DE3CE01DF91CF911F914F
:1017A0000F91FF90EF90DF900C942E0A8F929F92F2
:1017B000AF92BF92DF92EF92FF920F931F93CF935E
:1017C000DF93CDB7DEB7AE970FB6F894DEBF0FBE8E
:1017D000CDBF7C01D42E8EE28E010F5F1F4FD8014A
:1017E000E82F1D92EA95E9F791E0998334E03A8376
:1017F00042E04B8393E09D834E833F8340E44887E0
:1018000035E039879A8796E09B8793E39C8737E09A
:101810003D8798E09F8799E0998B99E19B8B92E4B3
:101820009C8B55E25D8B4E8B46E24F8B388F38E2B6
:10183000398F30E13A8F39E23B8F3CED3C8F8D8F11
:1018400088E88E8F8FE28F8F8DE288A380E389A353
:1018500037E33BA330E93CA338E33DA39EA39CE3DD
:101860009FA39FE898A79DE399A792E19AA79FE677
:101870009BA78CA78FEF8DA76F3131F06B3231F0C2
:10188000663531F489ED05C08EE403C08CE601C0F5
:1018900084EE8E876F3141F06B3221F0663521F492
:1018A00080E003C080E401C080EC888B2AA361E063
:1018B000D70112968C910E94341361E0F701828166
:1018C0000E94FB120E9451110E9440124B015C01C8
:1018D0004AEA6FE2C7010E942E0A6FE2C7010E9426
:1018E000040A8A3A59F00E944012681979098A0953
:1018F0009B09623371058105910550F30E944012E6
:101900004B015C0145E56FE2C7010E942E0A6FE2C0
:10191000C7010E94040A853559F00E9440126819D7
:1019200079098A099B09623371058105910550F394
:10193000B12CF801EB0DF11DEB0DF11D60816F3F36
:1019400031F04181C7010E942E0AB394F2CF60E0CA
:1019500070E0C7010E94910BD701ED91FC911197A6
:101960000084F185E02D18966C91C7010995D70187
:10197000ED91FC910488F589E02D61E0C70109959E
:101980000E9440124B015C0167E2C7010E94040AF9
:1019900087FD0BC00E944012681979098A099B09CA
:1019A000623371058105910578F30E944012681930
:1019B00079098A099B09623371058105910588F4CB
:1019C00043E050E068E379E0F70184810E948811E8
:1019D000F092F203E092F103D7011596DC9281E0D8
:1019E00001C080E0AE960FB6F894DEBF0FBECDBF4B
:1019F000DF91CF911F910F91FF90EF90DF90BF90FB
:101A0000AF909F908F900895CF93DF93EC01611179
:101A10000DC064E2CE010E94040A90E09195819588
:101A2000910995958795DF91CF91089541E063E203
:101A30000E942E0A63E2CE010E94040A81FFFACFBF
:101A4000E8CFCF93DF93EC018091FB038330A9F4BF
:101A50008091F703811111C060E0CE010E94040D56
:101A6000863A9F4F54F4E881F9810488F589E02D86
:101A700061E0CE01099581E001C080E0DF91CF9166
:101A80000895FF920F931F93CF93DF93EC01809102
:101A9000FB03833001F568E2CE010E94040A82FD57
:101AA00028C019C08091FA038D3330F4E091FA0315
:101AB000F0E0E450FC4F1082E881F981028CF38D54
:101AC000E02DCE010995E881F9810488F589E02DA2
:101AD00063E0CE01099560E0CE010E94040D909371
:101AE000F4038093F303DF91CF911F910F91FF9047
:101AF0000895E881F9810488F589E02D61E0CE013F
:101B00000995E881F981008CF18DE02DCE010995D0
:101B100080E00E948A0980E00E948A098093F7038E
:101B20008091F7038334D0F48091F7038093F70317
:101B300080E00E948A098093F8038E81811109C098
:101B40009091F8038D81981721F08091F8038F3FD1
:101B500039F48091F703833018F017C082E4E6CFA0
:101B60001092F703E881F981028CF38DE02DCE010C
:101B70000995E881F9810288F389E02DCE01DF9192
:101B8000CF911F910F91FF9009948091F70383509B
:101B90008093FA0380E00E948A098093F90380E031
:101BA0000E948A09982F90789093F503982F90744B
:101BB0009093F603E881F9810684F785E02D682F7C
:101BC000CE010995F12C8091FA03F81608F06ACF3E
:101BD0000F2D10E080E00E948A09F801E450FC4FCC
:101BE0008083F394F0CF4F925F926F927F929F9297
:101BF000AF92BF92EF920F931F93CF93DF93EC01BD
:101C0000162F5A01922E6DE30E94040A482F446059
:101C10006DE3CE010E942E0A0E9440122B013C016E
:101C2000CE010E94210D8823C1F0E881F98100884E
:101C3000F189E02DE12C292DA501612FCE01099517
:101C4000DF91CF911F910F91EF90BF90AF909F9038
:101C50007F906F905F904F9008950E94401264199A
:101C6000750986099709683E734081059105E8F674
:101C7000E881F9810480F581E02DCE010995D0CF6E
:101C80004F925F926F927F929F92AF92BF92CF924C
:101C9000DF92EF92FF920F93CF93DF93EC015B0102
:101CA000942E1092F603F090F903C090F303D090B5
:101CB000F4036DE30E94040A482F44606DE3CE01F3
:101CC0000E942E0A0E9440122B013C01CE010E946C
:101CD000210D882301F1E881F9810088F189E02D47
:101CE000EE24E39400E0292DA5016F2DCE01099586
:101CF000D092F403C092F303DF91CF910F91FF9044
:101D0000EF90DF90CF90BF90AF909F907F906F90BB
:101D10005F904F9008950E944012641975098609DA
:101D20009709683E734081059105A8F6E881F9811D
:101D30000480F581E02DCE010995C8CFCF93DF93C4
:101D4000EC016887662311F04FE001C04AE163E1CE
:101D5000CE010E942E0A8885882341F061E1CE01E0
:101D60000E94040A482F4F71406602C04F814068AC
:101D700061E1CE01DF91CF910C942E0A1F93CF9396
:101D8000DF93EC01162F662311F04DE501C045E508
:101D90006AE5CE010E942E0A112311F04CE701C022
:101DA00040E76CE5CE01DF91CF911F910C942E0A94
:101DB000FC016683089520917B0430917C042817F0
:101DC0003907B9F49091390480913A04981789F051
:101DD000E0913904F0E0E55CFB4F8081209139040B
:101DE00030E02F5F3F4F2F7333272093390490E06B
:101DF00008958FEF9FEF08951F93CF93DF93DC013A
:101E00005C968D919C915D97009749F481E090E0FC
:101E100013969C938E93129780E090E03BC051966E
:101E2000ED91FC91529750962C915097322F30950E
:101E30001FB75E964C915E9741FB772770F941FD85
:101E40006095F8944081772311F0422B01C0432321
:101E50004083EC012197F1F748E0508160FF02C018
:101E6000522B01C053235083EC012197F1F7669563
:101E7000415099F78081772311F0832301C0822B91
:101E800080831FBF5C968D919C915D970197F1F7C0
:101E900081E090E0DF91CF911F9108950895209106
:101EA0007B0430917C042817390781F49091390420
:101EB00080913A04981751F0E0913904F0E0E55C24
:101EC000FB4F8081992787FD909508958FEF9FEFB5
:101ED000089520917B0430917C042817390771F410
:101EE00080913A042091390490E0805C9F4F821BDE
:101EF000910960E470E00E948719089580E090E005
:101F00000895E0917B04F0917C04E817F90769F4E7
:101F1000A389B4899C918589809589238C9310929B
:101F20007C0410927B0481E0089580E00895CF93B3
:101F3000DF93EC018A8D9B8D892BF1F080917B04DE
:101F400090917C048C179D07B9F0009711F00E94C6
:101F5000810F8E8D8E7F8E8F10923A0410923904ED
:101F6000D0937C04C0937B04EB89FC8980819D899C
:101F7000892B808381E001C080E0DF91CF910895BB
:101F80001F920F920FB60F9211242F933F934F93EE
:101F90005F936F937F938F939F93AF93BF93EF93D1
:101FA000FF93E0917B04F0917C04309709F451C0D9
:101FB000868DA685B785958581FF04C08C91892380
:101FC00029F447C08C91892309F043C0A389B489BF
:101FD0009C918589809589238C938689978901971F
:101FE000F1F7208D318DA685B785758558E040E0E5
:101FF000C9010197F1F7842F90E095958795482FB7
:102000006C91672309F04068515091F7868D81FDEE
:10201000409580913A0490E001968F739927209122
:102020003904281749F0A0913A04B0E0A55CBB4FF1
:102030004C9380933A0403C0868D8160868F828D95
:10204000938D0197F1F7A389B4898C919589892B98
:102050008C93FF91EF91BF91AF919F918F917F9161
:102060006F915F914F913F912F910F900FBE0F9005
:102070001F9018952BE132E0FC01318320830C94F2
:10208000810F1F93CF93DF93EC01162F6E8D669512
:10209000617081E06827812F0E94341361E0812FF5
:1020A0000E94FB12812F90E0FC01E458FF4FE49165
:1020B000E88BFC01E057FF4FE491F0E0EE0FFF1FCB
:1020C000E255FF4F859194919A8B898BDF91CF9147
:1020D0001F9108951F93CF93DF93EC01162F60E0BB
:1020E000812F0E94FB128E8D81FD04C061E0812F43
:1020F0000E9434131C87812F90E0FC01E458FF4FAD
:10210000E491ED87FC01E057FF4FE491F0E0EE0F22
:10211000FF1FEC55FF4F859194919F878E87DF912C
:10212000CF911F910895FF920F931F93CF93DF9349
:10213000EC01F62E522F1B821A8208EE13E020E0EB
:1021400030E00C831D832E833F838BE192E09983E3
:1021500088831F8A1E8A198E188E1B8E1A8E1D8EDA
:102160001C8E8E8D8E7F50FB81F98E8F642FCE0159
:102170000E9441106F2DCE01DF91CF911F910F91E1
:10218000FF900C946A10CF93DF93EC019A01AB019E
:102190001B8E1A8E198E188E1F8A1E8A60E079E0B7
:1021A0008DE390E00E94BD19C9012430310520F073
:1021B000B9016350710902C061E070E07D8F6C8FDE
:1021C000EC85E63108F068C0B90176956795643111
:1021D000710518F06351710902C061E070E07F8BF6
:1021E0006E8B069718F0C901059702C081E090E058
:1021F000998F888FC901880F991F820F931F969519
:102200008795969587958D30910510F00C9702C0B3
:1022100081E090E09B8F8A8F20916800E83050F039
:1022200091E0EE3008F490E081E001C0880F9A95CB
:10223000EAF701C084E0822B809368002C85283067
:1022400038F02E3040F0263148F48CE690E008C09B
:102250008DE690E005C08BE690E002C080E090E063
:102260009C8B8B8B283030F481E001C0880F2A953D
:10227000EAF70DC0822F90E02E3010F4089701C0CD
:102280000E9791E001C0990F8A95EAF7892F8D8BFF
:102290008C8D9D8D0197F1F7CE01DF91CF910C943C
:1022A000970FCF93CFB7F89480917D04811127C009
:1022B000EAE9F0E08491E6E8F0E09491E82FF0E0BC
:1022C000EE0FFF1FE854FF4FA591B4918C91892325
:1022D00021F461E08AE00E94341361E08AE00E9408
:1022E000FB128CB580618CBD8CB580648CBD61E0C7
:1022F0008DE00E94FB1261E08BE00E94FB12809156
:102300007D048F5F80937D04CFBFCF9108950895A2
:102310008230E8F4E82FF0E0EE0FFF1FEA5FFE4F97
:1023200071836083813041F0809169008C7F842BC0
:1023300080936900E89A089580916900440F551FC1
:10234000440F551F837F842B80936900E99A089579
:102350001F920F920FB60F9211242F933F934F931A
:102360005F936F937F938F939F93AF93BF93EF93FD
:10237000FF93E0910601F09107010995FF91EF911C
:10238000BF91AF919F918F917F916F915F914F918D
:102390003F912F910F900FBE0F901F9018951F9295
:1023A0000F920FB60F9211242F933F934F935F9389
:1023B0006F937F938F939F93AF93BF93EF93FF930D
:1023C000E0910801F09109010995FF91EF91BF910A
:1023D000AF919F918F917F916F915F914F913F91BD
:1023E0002F910F900FBE0F901F9018951F920F9274
:1023F0000FB60F9211242F933F938F939F93AF9318
:10240000BF9380917F0490918004A0918104B0914A
:10241000820430917E0423E0230F2D3720F40196AF
:10242000A11DB11D05C026E8230F0296A11DB11DF7
:1024300020937E0480937F0490938004A093810472
:10244000B09382048091830490918404A0918504C8
:10245000B09186040196A11DB11D809383049093D1
:102460008404A0938504B0938604BF91AF919F919B
:102470008F913F912F910F900FBE0F901F90189545
:102480002FB7F89460917F0470918004809181044B
:10249000909182042FBF08953FB7F89480918304F0
:1024A00090918404A0918504B091860426B5A89BE0
:1024B00005C02F3F19F00196A11DB11D3FBF662732
:1024C000782F892F9A2F620F711D811D911D42E077
:1024D000660F771F881F991F4A95D1F70895CF92ED
:1024E000DF92EF92FF92CF93DF936B017C010E940A
:1024F0004C12EB01C114D104E104F10489F00E94F3
:1025000003170E944C126C1B7D0B683E734090F3C6
:1025100081E0C81AD108E108F108C851DC4FEACFC0
:10252000DF91CF91FF90EF90DF90CF900895789456
:1025300084B5826084BD84B5816084BD85B58260C8
:1025400085BD85B5816085BDEEE6F0E08081816066
:102550008083E1E8F0E01082808182608083808166
:1025600081608083E0E8F0E0808181608083E1EB3E
:10257000F0E0808184608083E0EBF0E08081816026
:102580008083EAE7F0E080818460808380818260DC
:1025900080838081816080838081806880831092C5
:1025A000C1000895833081F028F4813099F08230A1
:1025B000A1F008958730A9F08830B9F08430D1F4C3
:1025C000809180008F7D03C0809180008F77809301
:1025D0008000089584B58F7702C084B58F7D84BD57
:1025E00008958091B0008F7703C08091B0008F7DF7
:1025F0008093B0000895CF93DF9390E0FC01E458FE
:10260000FF4F2491FC01E057FF4F8491882349F14B
:1026100090E0880F991FFC01E854FF4FA591B491F9
:1026200082559F4FFC01C591D4919FB7611108C09D
:10263000F8948C91209582238C93888182230AC000
:10264000623051F4F8948C91322F309583238C931F
:102650008881822B888304C0F8948C91822B8C9380
:102660009FBFDF91CF9108950F931F93CF93DF9377
:102670001F92CDB7DEB7282F30E0F901E859FF4FA0
:102680008491F901E458FF4F1491F901E057FF4F8D
:1026900004910023C9F0882321F069830E94D2129B
:1026A0006981E02FF0E0EE0FFF1FE255FF4FA5918B
:1026B000B4919FB7F8948C91611103C01095812358
:1026C00001C0812B8C939FBF0F90DF91CF911F9101
:1026D0000F910895CF93DF93282F30E0F901E85947
:1026E000FF4F8491F901E458FF4FD491F901E0576D
:1026F000FF4FC491CC2391F081110E94D212EC2F94
:10270000F0E0EE0FFF1FEC55FF4FA591B4912C9117
:102710002D2381E090E021F480E002C080E090E091
:10272000DF91CF910895FC01818D228D90E0805C36
:102730009F4F821B91098F7399270895FC01918DFA
:10274000828D981731F0828DE80FF11D858D90E014
:1027500008958FEF9FEF0895FC01918D828D98175A
:1027600061F0828DDF01A80FB11D5D968C91928D75
:102770009F5F9F73928F90E008958FEF9FEF089572
:1027800080E395E1892B49F080E090E0892B29F0E6
:102790000E94301581110C9400000895FC01848D75
:1027A000DF01A80FB11DA35ABF4F2C91848D90E07B
:1027B00001968F739927848FA689B7892C93A08956
:1027C000B1898C9180648C93938D848D981306C00D
:1027D0000288F389E02D80818F7D80830895CF93D7
:1027E000DF93EC01888D8823C9F0EA89FB89808119
:1027F00085FD05C0A889B9898C9186FD0FC00FB6EB
:1028000007FCF5CF808185FFF2CFA889B9898C912B
:1028100085FFEDCFCE010E94CE13E7CFDF91CF91A0
:102820000895CF92DF92FF920F931F93CF93DF9380
:102830001F92CDB7DEB76C0181E0D60158968C931C
:1028400058975B969C915B975C968C915C979813DC
:1028500007C05096ED91FC915197808185FD2EC067
:10286000F601038D10E00F5F1F4F0F731127F02E3D
:10287000F601848DF81211C00FB607FCF9CFD6010E
:102880005096ED91FC915197808185FFF1CFC60163
:1028900069830E94CE136981EBCF838DE80FF11D10
:1028A000E35AFF4F6083D6015B960C935B97529679
:1028B000ED91FC915397808180620CC0D6015696B1
:1028C000ED91FC91579760835096ED91FC91519753
:1028D00080818064808381E090E00F90DF91CF91D0
:1028E0001F910F91FF90DF90CF900895BF92CF92EC
:1028F000DF92EF92FF92CF93DF93EC016A017B01AD
:10290000B22EE889F98982E08083411581EE58076B
:1029100061057105A1F060E079E08DE390E0A70129
:1029200096010E949B192150310941095109569580
:10293000479537952795211580E1380798F0E88964
:10294000F989108260E874E88EE190E0A7019601B1
:102950000E949B192150310941095109569547950B
:1029600037952795EC85FD853083EE85FF8520839F
:10297000188EEC89FD89B082EA89FB8980818061AB
:102980008083EA89FB89808188608083EA89FB896A
:10299000808180688083EA89FB8980818F7D808344
:1029A000DF91CF91FF90EF90DF90CF90BF9008958F
:1029B0001F920F920FB60F9211242F938F939F9314
:1029C000EF93FF93E0919704F09198048081E09158
:1029D0009D04F0919E0482FD12C090818091A0041C
:1029E0008F5F8F732091A104821751F0E091A004B2
:1029F000F0E0E957FB4F958F8093A00401C08081E0
:102A0000FF91EF919F918F912F910F900FBE0F909B
:102A10001F9018951F920F920FB60F9211242F93AB
:102A20003F934F935F936F937F938F939F93AF9356
:102A3000BF93EF93FF9387E894E00E94CE13FF913A
:102A4000EF91BF91AF919F918F917F916F915F9126
:102A50004F913F912F910F900FBE0F901F9018959F
:102A600087E894E00E94931321E0892B09F420E089
:102A7000822F089510928A041092890488EE93E0C0
:102A8000A0E0B0E080938B0490938C04A0938D041D
:102A9000B0938E048BE292E0909388048093870435
:102AA00085EC90E0909394048093930484EC90E000
:102AB000909396048093950480EC90E09093980412
:102AC0008093970481EC90E090939A04809399040A
:102AD00082EC90E090939C0480939B0486EC90E0C1
:102AE00090939E0480939D041092A0041092A104E0
:102AF0001092A2041092A304089508950E949712C0
:102B00000E947D150E94E700C0ECD3E10E942D01D8
:102B10002097E1F30E94C013F9CFCF92DF92EF929A
:102B2000FF920F931F93CF93DF937C016A01EB0118
:102B300000E010E00C151D0571F06991D701ED91D1
:102B4000FC910190F081E02DC7010995892B19F0C6
:102B50000F5F1F4FEFCFC801DF91CF911F910F91F2
:102B6000FF90EF90DF90CF9008956115710581F08F
:102B7000DB010D900020E9F7AD0141505109461BE2
:102B8000570BDC01ED91FC910280F381E02D09945B
:102B900080E090E00895DC01ED91FC91DB0114965A
:102BA0004D915C9115976D917C910280F381E02DA0
:102BB00009940C94B51567E372E00C94B5150F9366
:102BC0001F93CF93DF93EC010E94CB158C01CE01B4
:102BD0000E94DB15800F911FDF91CF911F910F9104
:102BE00008950F931F93CF93DF93EC010E94B515C7
:102BF0008C01CE010E94DB15800F911FDF91CF91D8
:102C00001F910F9108958F929F92AF92BF92CF9292
:102C1000DF92EF92FF920F931F93CF93DF93CDB785
:102C2000DEB7A1970FB6F894DEBF0FBECDBF7C0113
:102C3000C42EE52FCB01D22E19A221E02D1510F0C4
:102C40002AE0D22E8E010F5D1F4F8D2C912CA12CCE
:102C5000B12C6C2D7E2FA50194010E949B198C2D07
:102C6000D29E80191124015011098A3014F4805D1C
:102C700001C0895CF80180832115310541055105AA
:102C800021F0C22EE32FCA01E4CFB801C7010E9490
:102C9000B515A1960FB6F894DEBF0FBECDBFDF917C
:102CA000CF911F910F91FF90EF90DF90CF90BF9049
:102CB000AF909F908F9008952115310541F4DC016C
:102CC000ED91FC910190F081E02D642F09940C941A
:102CD00003160F931F93CF93DF93EC019A01AB017F
:102CE00060E070E00E945C168C01CE010E94DB1552
:102CF000800F911FDF91CF911F910F910895FC01DB
:102D0000808191810C94A81ACF93DF93EC01888184
:102D10009981009711F00E94A81A198218821D82C9
:102D20001C821B821A82DF91CF9108950F931F930B
:102D3000CF93DF93EC018B016F5F7F4F8881998187
:102D40000E94371B009731F0998388831B830A8385
:102D500081E001C080E0DF91CF911F910F91089534
:102D6000CF93DF93EC0188819981892B29F08A81A7
:102D70009B818617970760F4CE010E9496168823E0
:102D800041F08C819D81892B19F4E881F9811082B1
:102D900081E0DF91CF910895EF92FF920F931F93FF
:102DA000CF93DF93EC017B018A01BA010E94B01638
:102DB000811104C0CE010E94841607C01D830C83BC
:102DC000B701888199810E94661CCE01DF91CF9165
:102DD0001F910F91FF90EF900895FC0111821082D6
:102DE00013821282158214826115710559F0FB015C
:102DF00001900020E9F7AF0141505109461B570BE4
:102E00000C94CC16089508955058BB27AA270ED0CD
:102E1000D1C1C2D130F0C7D120F031F49F3F11F4BD
:102E20001EF4B7C10EF4E095E7FB9FC1E92FD3D1A3
:102E300080F3BA17620773078407950718F071F4D7
:102E40009EF5EBC10EF4E0950B2EBA2FA02D0B01D1
:102E5000B90190010C01CA01A0011124FF27591BDF
:102E600099F0593F50F4503E68F11A16F040A22FE5
:102E7000232F342F4427585FF3CF46953795279556
:102E8000A795F0405395C9F77EF41F16BA0B620B55
:102E9000730B840BBAF09150A1F0FF0FBB1F661F9C
:102EA000771F881FC2F70EC0BA0F621F731F841FDF
:102EB00048F4879577956795B795F7959E3F08F005
:102EC000B3CF9395880F08F09927EE0F97958795C4
:102ED000089527D108F481E008950CD06BC163D127
:102EE00040F05AD130F021F45F3F19F03EC151114A
:102EF00095C14FC170D198F39923C9F35523B1F30C
:102F0000951B550BBB27AA2762177307840738F058
:102F10009F5F5F4F220F331F441FAA1FA9F333D0B7
:102F20000E2E3AF0E0E830D091505040E695001C6B
:102F3000CAF729D0FE2F27D0660F771F881FBB1F27
:102F4000261737074807AB07B0E809F0BB0B802D01
:102F5000BF01FF2793585F4F2AF09E3F510568F04D
:102F600004C15CC15F3FECF3983EDCF38695779536
:102F70006795B795F7959F5FC9F7880F911D96954F
:102F8000879597F90895E1E0660F771F881FBB1FAB
:102F9000621773078407BA0720F0621B730B840B58
:102FA000BA0BEE1F88F7E095089504D06894B1112C
:102FB00035C1089518D188F09F5790F0B92F9927FF
:102FC000B751A0F0D1F0660F771F881F991F1AF034
:102FD000BA95C9F712C0B13081F01FD1B1E00895A0
:102FE0001CC1672F782F8827B85F39F0B93FCCF321
:102FF000869577956795B395D9F73EF4909580952A
:10300000709561957F4F8F4F9F4F0895E89409C049
:1030100097FB3EF490958095709561957F4F8F4F0B
:103020009F4F9923A9F0F92F96E9BB279395F69521
:10303000879577956795B795F111F8CFFAF4BB0F9F
:1030400011F460FF1BC06F5F7F4F8F4F9F4F16C003
:10305000882311F096E911C0772321F09EE8872F8D
:10306000762F05C0662371F096E8862F70E060E049
:103070002AF09A95660F771F881FDAF7880F9695C2
:10308000879597F9089588D018F011F08CD038F40E
:1030900080C0C4C0E92F9FD0B0F35523C9F3E7FB2C
:1030A0006217730784079507A8F199F3E92FFF27A3
:1030B00088232AF03197660F771F881FDAF7952F3C
:1030C0005527442332F091505040220F331F441FA4
:1030D000D2F7BB27E91BF50B621B730B840BB109FD
:1030E000C1F222F4620F731F841FB11D31972AF0C1
:1030F000660F771F881FBB1FEFCF915050405AF0CB
:1031000041F0882332F0660F771F881F915050409E
:10311000C1F7939530C08695779567959F5FD9F7EE
:10312000F8CF990F0008550FAA0BE0E8FEEF16162E
:103130001706E807F907C0F012161306E407F507AB
:1031400098F0621B730B840B950B39F40A2661F01F
:10315000232B242B252B21F408950A2609F4A140C2
:10316000A6958FEF811D811D089597F99F6780E8CF
:1031700070E060E008959F3F31F0915020F4879512
:1031800077956795B795880F911D9695879597F9CF
:1031900008959FEF80EC089500240A9416161706F0
:1031A00018060906089500240A9412161306140638
:1031B00005060895092E0394000C11F4882352F09B
:1031C000BB0F40F4BF2B11F460FF04C06F5F7F4F53
:1031D0008F4F9F4F089557FD9058440F551F59F03A
:1031E0005F3F71F04795880F97FB991F61F09F3FF4
:1031F00079F087950895121613061406551FF2CF1D
:103200004695F1DF08C0161617061806991FF1CF6C
:1032100086957105610508940895E894BB27662793
:103220007727CB0197F908950BD0C4CFB5DF28F0ED
:10323000BADF18F0952309F098CFABCF1124EECF69
:10324000CADFA0F3959FD1F3950F50E0551F629F01
:10325000F001729FBB27F00DB11D639FAA27F00DEF
:10326000B11DAA1F649F6627B00DA11D661F829F16
:103270002227B00DA11D621F739FB00DA11D621FFB
:10328000839FA00D611D221F749F3327A00D611D18
:10329000231F849F600D211D822F762F6A2F1124FA
:1032A0009F5750408AF0E1F088234AF0EE0FFF1F4D
:1032B000BB1F661F771F881F91505040A9F79E3F84
:1032C000510570F052CFAACF5F3FECF3983EDCF38C
:1032D000869577956795B795F795E7959F5FC1F7C1
:1032E000FE2B880F911D9695879597F90895DB0120
:1032F0008F939F930E94DC19BF91AF91A29F800D85
:10330000911DA39F900DB29F900D1124089597FBDE
:10331000072E16F4009407D077FD09D00E94E71914
:1033200007FC05D03EF4909581959F4F08957095C8
:1033300061957F4F0895A1E21A2EAA1BBB1BFD01C8
:103340000DC0AA1FBB1FEE1FFF1FA217B307E40784
:10335000F50720F0A21BB30BE40BF50B661F771FDC
:10336000881F991F1A9469F76095709580959095BC
:103370009B01AC01BD01CF010895052E97FB1EF402
:1033800000940E94D41957FD07D00E949B1907FC96
:1033900003D04EF40C94D419509540953095219556
:1033A0003F4F4F4F5F4F0895909580957095619571
:1033B0007F4F8F4F9F4F08950E94011AA59F900D38
:1033C000B49F900DA49F800D911D11240895AA1BF8
:1033D000BB1B51E107C0AA1FBB1FA617B70710F000
:1033E000A61BB70B881F991F5A95A9F78095909532
:1033F000BC01CD010895EE0FFF1F0590F491E02D63
:103400000994A29FB001B39FC001A39F700D811DBD
:103410001124911DB29F700D811D1124911D0895DD
:10342000CF93DF938230910510F482E090E0E09139
:103430002605F091270520E030E0A0E0B0E03097CD
:1034400039F14081518148175907B8F04817590799
:1034500071F482819381109729F013969C938E9337
:1034600012972CC0909327058093260527C021151D
:10347000310531F04217530718F0A901DB0101C0F3
:10348000EF019A01BD01DF010280F381E02DD7CF6A
:1034900021153105F9F0281B390B2430310580F452
:1034A0008A819B816115710521F0FB0193838283E1
:1034B00004C09093270580932605FE01329644C0F0
:1034C000FE01E20FF31F819391932250310939835A
:1034D00028833AC02091240530912505232B41F4FF
:1034E000209102013091030130932505209324059A
:1034F00020910001309101012115310541F42DB7D2
:103500003EB74091040150910501241B350BE09119
:103510002405F0912505E217F307A0F42E1B3F0BBD
:103520002817390778F0AC014E5F5F4F2417350735
:1035300048F04E0F5F1F509325054093240581935B
:10354000919302C0E0E0F0E0CF01DF91CF910895C8
:10355000CF93DF93009709F487C0FC013297138261
:103560001282C0912605D0912705209781F42081F1
:103570003181280F391F80912405909125058217EC
:10358000930779F5F0932505E09324056DC0DE01DE
:1035900020E030E0AE17BF0750F412964D915C91D9
:1035A00013979D014115510509F1DA01F3CFB3835A
:1035B000A28340815181840F951F8A179B0771F464
:1035C0008D919C911197840F951F02969183808312
:1035D00012968D919C9113979383828321153105C7
:1035E00029F4F0932705E09326053EC0D9011396F0
:1035F000FC93EE9312974D915D91A40FB51FEA17BE
:10360000FB0779F480819181840F951F0296D9017F
:1036100011969C938E938281938113969C938E93A3
:103620001297E0E0F0E08A819B81009719F0FE019B
:10363000EC01F9CFCE01029628813981820F931FC8
:1036400020912405309125052817390769F4309712
:1036500029F4109227051092260502C013821282C7
:10366000D0932505C0932405DF91CF910895A0E064
:10367000B0E0EDE3FBE10C94351EEC01CB012097AB
:1036800019F40E94101AB8C0FE01E60FF71F9E0140
:1036900022503109E217F30708F4ACC0D9010D91AB
:1036A0001C91119706171707B8F00530110508F49B
:1036B0009FC0A801445051094617570708F498C005
:1036C00002501109061B170B019311936D937C9304
:1036D000CF010E94A81A8CC05B01A01AB10A4E014A
:1036E000800E911EA0912605B0912705612C712CAA
:1036F00060E070E0109709F449C0A815B905C9F554
:10370000ED90FC901197670142E0C40ED11CCA14E1
:10371000DB0478F147018A189B08640142E0C40E7B
:10372000D11C1296BC9012971396AC91B5E0CB16B3
:10373000D10440F0B282A38391828082D9018D931B
:103740009C9309C00E5F1F4F0E0D1F1DF9011183C1
:103750000083EB2DFA2F6115710531F0DB01139613
:10376000FC93EE93129744C0F0932705E09326054F
:103770003FC06D917C9111976616770608F43B0166
:10378000BD0112960D90BC91A02DB4CF609124057F
:103790007091250568157905E9F468167906D0F465
:1037A00040910001509101014115510541F44DB77F
:1037B0005EB76091040170910501461B570BE41739
:1037C000F507C0F4F0932505E0932405F9019183F2
:1037D00080830EC00E94101A7C01009759F0A80146
:1037E000BE010E94521CCE010E94A81AC70104C04B
:1037F000CE0102C080E090E0CDB7DEB7EEE00C94E1
:10380000511E662777270C94B31CFC018827992743
:10381000E89421912032E9F3293010F02E30C8F3DA
:103820002B3241F02D3239F4689404C00E94AB1C55
:10383000820F911D219120532A30C0F31EF49095E0
:1038400081959F4F08951F93FC0199278827BC01FC
:10385000E89411911032E9F3193010F01E30C8F3DA
:103860001B3251F01D3249F4689406C00E94961C28
:10387000610F711D811D911D119110531A30B0F30C
:103880003EF490958095709561957F4F8F4F9F4F37
:103890001F9108959111CAC1803219F08950855045
:1038A000D0F70895FB01DC0102C001900D92415058
:1038B0005040D8F70895FC018191861721F08823A4
:1038C000D9F7992708953197CF010895FB01DC01BD
:1038D00001900D920020E1F70895FB01DC014150B9
:1038E000504048F001900D920020C9F701C01D9290
:1038F00041505040E0F70895FB0151915523A9F044
:10390000BF01DC014D9145174111E1F759F4CD019B
:103910000190002049F04D9140154111C9F3FB0180
:103920004111EFCF81E090E001970895592F482F82
:10393000372F262F660F771F881F991F660F771F57
:10394000881F991F620F731F841F951F660F771FB3
:10395000881F991F08957AE0979F902D879F802D4B
:10396000910D11240895A0E0B0E0E9EBFCE10C9486
:10397000371E8B016115710521F0DB018C931196C7
:103980009C93EC015E01BFEFAB1ABB0A7501C880C6
:103990008C2D90E00E944A1C892B11F0E501F2CF9A
:1039A000EDE2CE1208C07E01F2E0EF0EF11CC980FC
:1039B000DD24D39409C02BE2C21205C07E0142E08F
:1039C000E40EF11CC980D12CE701219743E050E0BF
:1039D0006AEC70E0CE010E94191E892BC1F4239677
:1039E00045E050E065EC70E0CE010E94191E892B85
:1039F00009F425960115110519F0D801CD93DC9332
:103A0000D11006C160E070E080E89FE70AC143E0A2
:103A100050E062EC70E0CE010E94191E892B59F42F
:103A20000115110509F4F9C0B2E0EB0EF11CF80123
:103A3000F182E082F2C0F70160E070E0CB01C0E00B
:103A4000D0E07F01A0EDAA2EAC0C29E02A1530F1C0
:103A50004D2D4260B42E2D2D2870D2FE04C02111B0
:103A600025C0219623C021112197A5E0B0E09B013C
:103A7000AC010E94DC19660F771F881F991F6A0D21
:103A8000711D811D911D6839A9E97A078A07A9E18D
:103A90009A0760F0BD2DB660BB2E08C02EEFA212B3
:103AA0000AC0D3FC50C04D2D4860B42E3196D701CA
:103AB000CC90DB2CC6CF2C2D2F7D253409F043C0B4
:103AC000A081AD3241F4BD2DB061DB2E7F0122E03B
:103AD000E20EF11C0CC07F01AB3231F04FEFE41A63
:103AE000F40A21E030E006C0A2E0EA0EF11CA18158
:103AF00022E030E0A053AA3018F0E21AF30A23C003
:103B0000F70120E030E02038BCE03B075CF4A9017D
:103B1000440F551F440F551F240F351F220F331F0D
:103B20002A0F311DAF014F5F5F4F7A01A081A05373
:103B3000AA3010F4FA01E7CFD4FE03C031952195E5
:103B40003109C20FD31FD1FE09C00115110531F093
:103B5000E1E0EE1AF108D801ED92FC920E940618FD
:103B60002D2D2370233019F04B015C0106C04B0151
:103B70005C01B7FAB094B7F8B09420E030E0A90146
:103B8000C501B4010E946917882309F43EC0D7FF1C
:103B900006C0D195C195D10901EE10E002C009EF30
:103BA00010E06801B8E1CB1AD10890E2E92EF12CBF
:103BB000CE15DF0574F0F8012591359145915491AA
:103BC000C501B4010E9414194B015C01CE19DF0933
:103BD000EFCF04501109F594E7940C151D0541F73A
:103BE0008A2D880F8B2D881F8F3F49F020E030E011
:103BF000A901C501B4010E946917811106C082E2C2
:103C000090E09093290580932805C501B40109C06F
:103C100060E070E080E89FEF04C060E070E080EC5E
:103C20009FE7CDB7DEB7ECE00C94531E99278827A9
:103C30000895FB01DC014150504088F08D918134A2
:103C40001CF08B350CF4805E659161341CF06B3593
:103C50000CF4605E861B611171F3990B0895881B4B
:103C6000FCCF2F923F924F925F926F927F928F92F2
:103C70009F92AF92BF92CF92DF92EF92FF920F93FB
:103C80001F93CF93DF93CDB7DEB7CA1BDB0B0FB605
:103C9000F894DEBF0FBECDBF09942A8839884888C2
:103CA0005F846E847D848C849B84AA84B984C88458
:103CB000DF80EE80FD800C811B81AA81B981CE0F4F
:103CC000D11D0FB6F894DEBF0FBECDBFED01089534
:103CD00011E0C2E0D1E004C0FE010E94FD1922966D
:0A3CE000C430D107C9F7F894FFCFF4
:103CEA0000002A0580008711871147505320414E52
:103CFA00442054454C454D45545259204D4F445546
:103D0A004C450024504D544B3331342C302C312C3B
:103D1A00302C312C302C302C302C302C302C302CB8
:103D2A00302C302C302C302C302C302C302C302CA9
:103D3A00302A32380024504D544B3232302C313034
:103D4A0030302A31460024504D544B3630352A3310
:103D5A00310053697A65206F66206461746120704E
:103D6A0061636B6167653A00244750474741002405
:103D7A004750524D430024504D544B3138352C3066
:103D8A002A32320024504D544B3030312C313835E0
:103D9A002C332A33430024504D544B3138352C31BF
:103DAA002A32330024504D544B3138332A333800E9
:103DBA0024504D544B4C4F470024504D544B3136F0
:103DCA00312C302A32380024504D544B3031302CAB
:103DDA003030322A32440000000000F30DB1096885
:103DEA0009400E9E0EC50A410D3709DF0A600B56BF
:103DFA000ABE0E5209430900000000FC0E8D156927
:103E0A000FDB0E4F0F4E0F0000000011148D15939B
:103E1A0013AC139E13EF130D0A006E616E00696EE8
:083E2A0066006F7666002E00B1
:00000001FF
