:100000000C9489000C948C120C94B3120C94A903D8
:100010000C94A9030C94A9030C94B1000C94B100A6
:100020000C94B1000C94B1000C94B1000C94320FFC
:100030000C94B1000C94B1000C94B3000C94B1007A
:100040000C94DA120C94B1000C94D0150C94021696
:100050000C94B1000C94B1000C94B1000C94B1005C
:100060000C94B1000C94B100727400927400489426
:100070000078C4000000000800020100000304072B
:100080000000000000000000010204081020408071
:1000900001020408102001020408102004040404D2
:1000A0000404040402020202020203030303030322
:1000B00000000000230026002900000000002500A9
:1000C00028002B0000000000240027002A004E41D9
:1000D0004E494E495459494E46CDCCCC3D0AD723C2
:1000E0003C17B7D13877CC2B329595E6241FB14F0A
:1000F0000A000020410000C84200401C4620BCBE4F
:100100004CCA1B0E5AAEC59D7400EE00A50C3216EB
:10011000160111241FBECFEFD8E0DEBFCDBF13E024
:10012000A0E0B1E0ECE8FAE302C005900D92A03245
:10013000B107D9F726E0A0E2B3E001C01D92A83DC7
:10014000B207E1F711E0C0E1D1E004C02297FE015F
:100150000E94B81ACA30D107C9F70E9476160C94CB
:10016000391D0C9400001F920F920FB60F921124AC
:100170002F933F934F935F936F937F938F939F93AF
:10018000AF93BF93EF93FF9381E293E00E94650AE0
:10019000FF91EF91BF91AF919F918F917F916F915F
:1001A0005F914F913F912F910F900FBE0F901F9035
:1001B0001895882359F08FEA87BD80916E00826080
:1001C00080936E0081E080932003089580916E00FB
:1001D0008D7F80936E001092200308952FE136E00A
:1001E00042E06AE087EC93E00E94700F8FE29AE2AF
:1001F000A0E08093930390939403A09395030E94AF
:10020000241360938F0370939003809391039093D2
:10021000920320E043E064E080E793E00E947C04E6
:1002200060E773E081E293E00C94230B80E793E0B6
:100230000C94230461E089E00E94F11381E0809333
:10024000E20461E089E00E942A1426E040E052ECDA
:1002500061E070E089E396E00E946E1568E071E06D
:1002600089E396E00E94D01661E271E089E396E0AE
:100270000E94D01687EC93E00E94B711811107C04D
:1002800066E371E089E396E00E94D01614C062E450
:1002900071E089E396E00E94C3164AE050E062EB09
:1002A00071E089E396E00E947B176DE471E089E3D9
:1002B00096E00E94C31640E050E069ED73E487ECDD
:1002C00093E00E94F10F60E875E281E293E00E9402
:1002D000340B61E571E081E293E00E94510B63E829
:1002E00071E081E293E00E94510B81E00E94D9000D
:1002F00068EE73E080E090E00E94531364E971E0DF
:1003000080E793E00C94D01680912003811104C003
:1003100081E293E00E94650A81E293E00E94620B11
:10032000882309F4E8C081E293E00E94650BBC01D8
:1003300081E293E00E943A05882309F4DCC08091B1
:100340005C03882321F061E089E00E942A148091F7
:1003500021038093960380912203809397038091D9
:100360002303809398038091260380939B038091BD
:10037000250380939C038091240380939D038091A7
:1003800027039091280390939A0380939903809177
:10039000490390914A03A0914B03B0914C03809381
:1003A0009E0390939F03A093A003B093A103809119
:1003B0004D0390914E03A0914F03B0915003809351
:1003C000A2039093A303A093A403B093A5038091E9
:1003D000290390912A03A0912B03B0912C038093C1
:1003E000A6039093A703A093A803B093A9038091B9
:1003F00059038093AA0380912D0390912E03A0911D
:100400002F03B09130038093AB039093AC03A09380
:10041000AD03B093AE0380915A038093AF038091F4
:10042000450390914603A0914703B0914803809300
:10043000B0039093B103A093B203B093B303809140
:100440005D038093B40380915E038093B503809134
:10045000550390915603A0915703B0915803809390
:10046000B6039093B703A093B803B093B9038091F8
:10047000410390914203A0914303B09144038093C0
:10048000BA039093BB03A093BC03B093BD038091C8
:10049000390390913A03A0913B03B0913C038093C0
:1004A000BE039093BF03A093C003B093C103809198
:1004B0003D0390913E03A0913F03B0914003809390
:1004C000C2039093C303A093C403B093C503809168
:1004D0005C038093C60344E363E973E087EC93E035
:1004E0000E94F6106091E20481E068276093E204C4
:1004F00089E00C942A140895CF93CFB7F894809193
:10050000E404811127C0E6EAF0E08491E2E9F0E03A
:100510009491E82FF0E0EE0FFF1FEC53FF4FA591F1
:10052000B4918C91892321F461E08AE00E942A141D
:1005300061E08AE00E94F1138CB580618CBD8CB5BE
:1005400080648CBD61E08DE00E94F11361E08BE07E
:100550000E94F1138091E4048F5F8093E404CFBF85
:10056000CF9108959FB7F8948091E404882319F0FF
:1005700081508093E4048091E404811105C08CB51E
:100580008F7B8CBD1092E3049FBF089520912705B7
:100590003091280528173907B9F49091E504809126
:1005A000E604981789F0E091E504F0E0E951FB4F8B
:1005B00080812091E50430E02F5F3F4F2F73332778
:1005C0002093E50490E008958FEF9FEF08951F9327
:1005D000CF93DF93DC015C968D919C915D970097A2
:1005E00049F481E090E013969C938E93129780E0FB
:1005F00090E03BC05196ED91FC91529750962C9112
:100600005097322F30951FB75E964C915E9741FB05
:10061000772770F941FD6095F8944081772311F0B8
:10062000422B01C043234083EC012197F1F748E0BE
:10063000508160FF02C0522B01C053235083EC0154
:100640002197F1F76695415099F78081772311F052
:10065000832301C0822B80831FBF5C968D919C9168
:100660005D970197F1F781E090E0DF91CF911F91C5
:1006700008950895209127053091280528173907F6
:1006800071F49091E5048091E604981741F0E091AF
:10069000E504F0E0E951FB4F808190E008958FEF91
:1006A0009FEF0895209127053091280528173907D5
:1006B00071F48091E6042091E50490E0805C9F4F06
:1006C000821B910960E470E00E94421A089580E064
:1006D00090E00895E0912705F0912805E817F907C3
:1006E00069F4A389B4899C918589809589238C9329
:1006F000109228051092270581E0089580E0089562
:10070000CF93DF93EC018A8D9B8D892BF1F0809143
:100710002705909128058C179D07B9F0009711F0D7
:100720000E946A038E8D8E7F8E8F1092E604109247
:10073000E504D0932805C0932705EB89FC898081C7
:100740009D89892B808381E001C080E0DF91CF917A
:1007500008951F920F920FB60F9211242F933F937B
:100760004F935F936F937F938F939F93AF93BF93B9
:10077000EF93FF93E0912705F0912805309709F456
:1007800051C0868DA685B785958581FF04C08C9163
:10079000892329F447C08C91892309F043C0A38998
:1007A000B4899C918589809589238C9386899789C2
:1007B0000197F1F7208D318DA685B785758558E0B5
:1007C00040E0C9010197F1F7842F90E09595879556
:1007D000482F6C91672309F04068515091F7868D3E
:1007E00081FD40958091E60490E001968F739927F2
:1007F0002091E504281749F0A091E604B0E0A95142
:10080000BB4F4C938093E60403C0868D8160868F36
:10081000828D938D0197F1F7A389B4898C91958985
:10082000892B8C93FF91EF91BF91AF919F918F9105
:100830007F916F915F914F913F912F910F900FBEDC
:100840000F901F90189524EA31E0FC01318320833A
:100850000C946A031F93CF93DF93EC01162F6E8DD8
:100860006695617081E06827812F0E942A1461E0FB
:10087000812F0E94F113812F90E0FC01E857FF4F78
:10088000E491E88BFC01E456FF4FE491F0E0EE0FB9
:10089000FF1FE654FF4F859194919A8B898BDF91CE
:1008A000CF911F9108951F93CF93DF93EC01162FE3
:1008B00060E0812F0E94F1138E8D81FD04C061E004
:1008C000812F0E942A141C87812F90E0FC01E85799
:1008D000FF4FE491ED87FC01E456FF4FE491F0E017
:1008E000EE0FFF1FE055FF4F859194919F878E87F4
:1008F000DF91CF911F910895FF920F931F93CF9394
:10090000DF93EC01F62E522F1B821A8208EE13E0C1
:1009100020E030E00C831D832E833F8384EA91E046
:10092000998388831F8A1E8A198E188E1B8E1A8EB1
:100930001D8E1C8E8E8D8E7F50FB81F98E8F642FC5
:10094000CE010E942A046F2DCE01DF91CF911F911D
:100950000F91FF900C945304CF93DF93EC019A0115
:10096000AB011B8E1A8E198E188E1F8A1E8A60E0AC
:1009700079E08DE390E00E94781AC90124303105B6
:1009800020F0B9016350710902C061E070E07D8F11
:100990006C8FEC85E63108F068C0B90176956795F3
:1009A0006431710518F06351710902C061E070E0B3
:1009B0007F8B6E8B069718F0C901059702C081E006
:1009C00090E0998F888FC901880F991F820F931F1C
:1009D00096958795969587958D30910510F00C9793
:1009E00002C081E090E09B8F8A8F20916800E83000
:1009F00050F091E0EE3008F490E081E001C0880F03
:100A00009A95EAF701C084E0822B809368002C85D8
:100A1000283038F02E3040F0263148F48CE690E053
:100A200008C08DE690E005C08BE690E002C080E053
:100A300090E09C8B8B8B283030F481E001C0880FD4
:100A40002A95EAF70DC0822F90E02E3010F4089717
:100A500001C00E9791E001C0990F8A95EAF7892F9E
:100A60008D8B8C8D9D8D0197F1F7CE01DF91CF910C
:100A70000C9480032F923F924F925F926F927F92DD
:100A80008F929F92AF92BF92CF92DF92EF92FF929E
:100A90000F931F93CF93DF93CDB7DEB72A970FB68F
:100AA000F894DEBF0FBECDBF8C017B01FB0101902E
:100AB0000020E9F7E61BF70B3597DB01AE0FBF1FF0
:100AC0008C918A3241F421E0822F90E08E179F07AB
:100AD00010F42F5FF9CF60EB71E0C7010E94451B56
:100AE000892B09F468C26CE270E0C7010E942B1BDD
:100AF00001961C010E94D01A6B017C010E9495187E
:100B00004B015C0120E137E240E050E00E94561AC0
:100B1000D8012C9344E6442E512C612C712CA30156
:100B200092010E94561AF8012183C501B401A30164
:100B300092010E94561AD80112966C9320E030E080
:100B400040E85FE3C701B6010E94051920E030E0EC
:100B50004AE754E40E94CF190E949518F801778360
:100B600066836CE270E0C1010E942B1B7C015C017A
:100B7000FFEFAF1ABF0ADC0111968C918C3209F499
:100B8000A5C042E050E0B501CE0101960E94361B9F
:100B90001B82CE0101960E94F21A9B01AC0160E813
:100BA00076E988E990E00E94321A2B013C01B701F6
:100BB0006D5F7F4F42E050E0CE0101960E94361BF0
:100BC0005701B6E0AB0EB11C44E050E0B501CE01D8
:100BD00003960E94361B1F82CE0101960E94F21AD4
:100BE0009B01AC01A2E3B0E00E94971A23E030E041
:100BF00040E050E00E94781A69017A01D301C201F5
:100C0000820F931FA41FB51FF801808B918BA28BBD
:100C1000B38BC301B20120EA36E841E050E00E9404
:100C2000781ACA01B9010E94C3182B013C01C701FF
:100C3000B6010E94C3182CE933E549EC56E30E9443
:100C4000CF199B01AC01C301B2010E94C0176B0117
:100C50007C01D80118966D937D938D939C931B977F
:100C600020E030E048EC52E40E9428180E949018DE
:100C70002B013C0184E6849DB001859D700D1124FB
:100C8000882777FD8095982F0E94C3189B01AC019F
:100C9000C701B6010E94BF1720E030E040E752E4F0
:100CA0000E9428186B017C01B201882777FD80958E
:100CB000982F0E94C3189B01AC01C701B6010E9486
:100CC000C017F801608F718F828F938F6CE270E094
:100CD000C5010E942B1BFC01019621812C3211F1D0
:100CE000233571F4D80158964D915D916D917C91A9
:100CF0005B97705858964D935D936D937C935B977B
:100D000021812E3419F4F80120AF0CC0233521F4D1
:100D1000D801D8962C9306C02C3211F080E0BCC3C9
:100D2000F80110AE6CE270E00E942B1B7C015C01AC
:100D3000FFEFAF1ABF0ADC0111968C918C3209F4D7
:100D4000A5C043E050E0B501CE0101960E94361BDC
:100D50001C82CE0101960E94F21A9B01AC0160E850
:100D600076E988E990E00E94321A2B013C01B70134
:100D70006C5F7F4F42E050E0CE0101960E94361B2F
:100D80005701B7E0AB0EB11C44E050E0B501CE0115
:100D900003960E94361B1F82CE0101960E94F21A12
:100DA0009B01AC01A2E3B0E00E94971A23E030E07F
:100DB00040E050E00E94781A69017A01D301C20133
:100DC000820F931FA41FB51FF801848B958BA68BF0
:100DD000B78BC301B20120EA36E841E050E00E943F
:100DE000781ACA01B9010E94C3182B013C01C7013E
:100DF000B6010E94C3182CE933E549EC56E30E9482
:100E0000CF199B01AC01C301B2010E94C0176B0155
:100E10007C01D8011C966D937D938D939C931F97B5
:100E200020E030E048EC52E40E9428180E9490181C
:100E30002B013C0184E6849DB001859D700D112439
:100E4000882777FD8095982F0E94C3189B01AC01DD
:100E5000C701B6010E94BF1720E030E040E752E42E
:100E60000E9428186B017C01B201882777FD8095CC
:100E7000982F0E94C3189B01AC01C701B6010E94C4
:100E8000C017F801648F758F868F978F6CE270E0C2
:100E9000C5010E942B1BFC01019621812C3209F116
:100EA000273571F4D8015C964D915D916D917C91DF
:100EB0005F9770585C964D935D936D937C935F97AD
:100EC0002181273519F4F80121AF0BC0253421F415
:100ED000D801D9962C9305C02C3209F01FCFF80108
:100EE00011AE6CE270E00E942B1B7C01FFEFEF1A49
:100EF000FF0ADC0111968C918C3229F0C7010E9407
:100F0000D41AF80184AF6CE270E0C7010E942B1B79
:100F10007C01FFEFEF1AFF0ADC0111968C918C32F5
:100F200029F0C7010E94D41AF80185AF6CE270E085
:100F3000C7010E942B1B7C01FFEFEF1AFF0ADC01A7
:100F400011968C918C3241F0C7010E94D01AF801A1
:100F500064AB75AB86AB97AB6CE270E0C7010E94E7
:100F60002B1B7C01FFEFEF1AFF0ADC0111968C911D
:100F70008C3241F0C7010E94D01AF80164A375A316
:100F800086A397A36CE270E0C7010E942B1B6CE262
:100F900070E001960E942B1BDC0111962C912C32E3
:100FA00009F479C201960E94D01AF80160A371A3D6
:100FB00082A393A370C267EB71E0C7010E94451B37
:100FC000892B09F4ABCE6CE270E0C7010E942B1BA9
:100FD00001961C010E94D01A6B017C010E94951899
:100FE0004B015C0120E137E240E050E00E94561ADC
:100FF000D8012C9334E6432E512C612C712CA30183
:1010000092010E94561AF8012183C501B401A3017F
:1010100092010E94561AD80112966C9320E030E09B
:1010200040E85FE3C701B6010E94051920E030E007
:101030004AE754E40E94CF190E949518F80177837B
:1010400066836CE270E0C1010E942B1BDC011196EB
:101050002C91213421F421E0F80123AF06C026357C
:1010600009F05CCED801DB961C926CE270E0019630
:101070000E942B1B7C015C01BFEFAB1ABB0AFC0179
:1010800081818C3209F4A5C042E050E0B501CE0167
:1010900001960E94361B1B82CE0101960E94F21A15
:1010A0009B01AC0160E876E988E990E00E94321A81
:1010B0002B013C01B7016D5F7F4F42E050E0CE0154
:1010C00001960E94361B5701F6E0AF0EB11C44E0BA
:1010D00050E0B501CE0103960E94361B1F82CE015F
:1010E00001960E94F21A9B01AC01A2E3B0E00E94BB
:1010F000971A23E030E040E050E00E94781A69013E
:101100007A01D301C201820F931FA41FB51FF801FA
:10111000808B918BA28BB38BC301B20120EA36E89E
:1011200041E050E00E94781ACA01B9010E94C31838
:101130002B013C01C701B6010E94C3182CE933E51D
:1011400049EC56E30E94CF199B01AC01C301B201E7
:101150000E94C0176B017C01D80118966D937D9396
:101160008D939C931B9720E030E048EC52E40E9462
:1011700028180E9490182B013C0184E6849DB00140
:10118000859D700D1124882777FD8095982F0E94EA
:10119000C3189B01AC01C701B6010E94BF1720E034
:1011A00030E040E752E40E9428186B017C01B20154
:1011B000882777FD8095982F0E94C3189B01AC016A
:1011C000C701B6010E94C017F801608F718F828F2E
:1011D000938F6CE270E0C5010E942B1BFC0101960D
:1011E00021812C3209F1233571F4D80158964D91A3
:1011F0005D916D917C915B97705858964D935D937E
:101200006D937C935B9721812E3419F4F80120AF04
:101210000BC0233521F4D801D8962C9305C02C326D
:1012200009F07CCDF80110AE6CE270E00E942B1B3F
:101230007C015C01FFEFAF1ABF0ADC0111968C91B3
:101240008C3209F4A5C043E050E0B501CE0101960F
:101250000E94361B1C82CE0101960E94F21A9B014D
:10126000AC0160E876E988E990E00E94321A2B012F
:101270003C01B7016C5F7F4F42E050E0CE01019628
:101280000E94361B5701B7E0AB0EB11C44E050E0A2
:10129000B501CE0103960E94361B1F82CE01019636
:1012A0000E94F21A9B01AC01A2E3B0E00E94971ADF
:1012B00023E030E040E050E00E94781A69017A01B2
:1012C000D301C201820F931FA41FB51FF801848BA5
:1012D000958BA68BB78BC301B20120EA36E841E0BB
:1012E00050E00E94781ACA01B9010E94C3182B016C
:1012F0003C01C701B6010E94C3182CE933E549EC53
:1013000056E30E94CF199B01AC01C301B2010E94B8
:10131000C0176B017C01D8011C966D937D938D9352
:101320009C931F9720E030E048EC52E40E9428187C
:101330000E9490182B013C0184E6849DB001859D9C
:10134000700D1124882777FD8095982F0E94C3186F
:101350009B01AC01C701B6010E94BF1720E030E03D
:1013600040E752E40E9428186B017C01B2018827F3
:1013700077FD8095982F0E94C3189B01AC01C7018F
:10138000B6010E94C017F801648F758F868F978F02
:101390006CE270E0C5010E942B1BFC0101962181CB
:1013A0002C3209F1273571F4D8015C964D915D918D
:1013B0006D917C915F9770585C964D935D936D93A2
:1013C0007C935F972181273519F4F80121AF0BC079
:1013D000253421F4D801D9962C9305C02C3209F07C
:1013E0009DCCF80111AE6CE270E00E942B1B7C01D9
:1013F000FFEFEF1AFF0ADC0111968C918C3241F05D
:10140000C7010E94D01AF80160A771A782A793A70D
:101410006CE270E0C7010E942B1B7C01FFEFEF1A0A
:10142000FF0ADC0111968C918C3241F0C7010E94B9
:10143000D01AF80164A775A786A797A76CE270E099
:10144000C7010E942B1BDC0111962C912C3219F143
:1014500001960E94D01A0E9495182B013C0120E1B0
:1014600037E240E050E00E94561AF801258324E656
:10147000C22ED12CE12CF12CA70196010E94561A04
:10148000D80114962C93C301B201A70196010E94C2
:10149000561AF801638381E02A960FB6F894DEBFEE
:1014A0000FBECDBFDF91CF911F910F91FF90EF90B5
:1014B000DF90CF90BF90AF909F908F907F906F9074
:1014C0005F904F903F902F900895CF93DF93FC0152
:1014D000E65BFF4F2081222311F080E065C0EC0124
:1014E000C55BDF4FA881B981109741F0ED91FC9168
:1014F00011970480F581E02DCD010BC0EC01C35B99
:10150000DF4F88819981DC01ED91FC910480F581A8
:10151000E02D0995892B09F388819981DC01ED91F2
:10152000FC910680F781E02D09958A3049F590916C
:101530002E05E0912C05F0912D05E90FF11D10828B
:1015400020912C0530912D05B5E0273A3B0739F461
:101550004FE255E050932D0540932C0508C027EA33
:1015600035E030932D0520932C052FE235E03093A4
:101570002B0520932A0510922E0591E090932905C2
:10158000E0912C05F0912D0590912E0521E0290F79
:1015900020932E05E90FF11D808390912E05983739
:1015A00018F097E790932E05DF91CF910895FC01F5
:1015B000DC01A55BBF4F11961C921E9212961196EC
:1015C0001C921E921092290513971C9210922E05C0
:1015D00087EA95E090932D0580932C058FE295E0A6
:1015E00090932B0580932A0515AE14AE15821482B4
:1015F000138212821182108212AE11AE10AE13AE9F
:101600001782168214AA15AA16AA17AA10AA11AA36
:1016100012AA13AA14A615A616A617A610A611A6F6
:1016200012A613A614A215A216A217A210A211A206
:1016300012A213A2148615861686178610861186A6
:101640001286138608950F931F93CF93DF93EC01B7
:101650008B010E94D70AC55BDF4F19830883DF9196
:10166000CF911F910F910895FC01E55BFF4F208101
:101670003181AB0160E070E02115310521F0C90135
:101680000E94AC0408C0FC01E35BFF4F26E08081B0
:1016900091810E946E156AE070E080E090E00C9409
:1016A0005313FC01E55BFF4F20813181211531058A
:1016B00011F0C90105C0FC01E35BFF4F80819181FE
:1016C0000C94D016809129050895109229058091D7
:1016D0002A0590912B05089581E00895FC0165830A
:1016E0000895FC0164830895FC0162870895FC015C
:1016F00063870895FC01648708954095FC01258562
:101700004223462B45870895FC0186810895FC01FC
:1017100087810895FC0180850895FC0181850895E5
:1017200080E00895CF93DF93EC01E881F981028096
:10173000F381E02DCE010995811103C00E946A1248
:10174000F4CFDF91CF910895CF93DF93EC018A819D
:101750009B81039719F40E946A12F9CF81E0DF910F
:10176000CF9108958F929F92AF92BF92CF92DF92C6
:10177000EF92FF92CF93DF93EC016B010E94241351
:101780004B015C01E12CF12C0E94241368197909AA
:101790008A099B096C157D058E059F0560F4E8811B
:1017A000F9810280F381E02DCE010995811105C0F8
:1017B0000E946A12E9CF80E001C081E0DF91CF9101
:1017C000FF90EF90DF90CF90BF90AF909F908F9061
:1017D00008958F929F92AF92BF92CF92DF92EF9235
:1017E000FF92CF93DF93EC016B010E9424134B0116
:1017F0005C01E12CF12C0E942413681979098A09F3
:101800009B096C157D058E059F0538F48A819B81A7
:10181000039729F40E946A12EECF80E001C081E0B4
:10182000DF91CF91FF90EF90DF90CF90BF90AF907E
:101830009F908F900895FC0183E292E091838083D2
:10184000138212828FEF84838287838714861586A2
:10185000108A1786128A118A148A138A08950895A5
:101860000895FC01758364830895FC017783668382
:101870000895FC01738362830895FC018FE492E074
:101880009183808373836283558344833783268364
:1018900008956EBD00000DB407FEFDCF8EB508950E
:1018A0008CB580688CBD08958CB58F778CBD0895FC
:1018B000FC01268137812115310579F02130310570
:1018C00041F02230310539F02330310531F49CE00C
:1018D00005C094E003C098E001C090E08CB5837F20
:1018E000892B8CBD84819581019719F48CB5806218
:1018F00002C08CB58F7D8CBD82819381019784302D
:10190000910528F4FC01E15AFD4F908101C091E05E
:101910002CB5892F83702C7F822B8CBD8DB592FBCB
:10192000992790F98E7F892B8DBD0C947C020C94A5
:10193000B202CF93DF93EC010E943D0C87E692E068
:1019400099838883DF91CF91089520E030E040E0D3
:1019500050E060E070E08FE196E00C94990CCF933A
:10196000DF93EC018D899E89DC01ED91FC9106806D
:10197000F781E02D099561E08F890E94F11361E004
:101980008F890E942A1464E670E080E090E00E9453
:10199000531381E0DF91CF910895EF92FF920F935F
:1019A0001F93CF93DF931F92CDB7DEB77C018A01DF
:1019B00069830E941B0C8BE792E0F701918380837F
:1019C000168B058B6981678B0F90DF91CF911F91EB
:1019D0000F91FF90EF9008950F931F93CF93DF9394
:1019E000EC01062F1FB7F89460E08F890E942A143B
:1019F0008D899E89DC01ED91FC91602F6F770190BC
:101A0000F081E02D09958D899E89DC01ED91FC9195
:101A10000190F081E02D60E00995082F61E08F8949
:101A20000E942A141FBF802FDF91CF911F910F9129
:101A30000895EF92FF920F931F93CF93DF931F921E
:101A4000CDB7DEB77C01162F0FB7F89460E0DC014C
:101A500057968C9149830E942A14F70185899689AB
:101A6000DC01ED91FC91612F60680190F081E02D27
:101A70000995182FF70185899689DC01ED91FC9174
:101A80000190F081E02D4981642F099561E0F70113
:101A900087890E942A140FBF812F0F90DF91CF9169
:101AA0001F910F91FF90EF900895AF92BF92DF9238
:101AB000EF92FF920F931F93CF93DF9300D0CDB798
:101AC000DEB78C01D62EF22EEFB6F89460E0DC0182
:101AD00057968C9149835A830E942A14F80185896C
:101AE0009689DC01ED91FC916D2D6F770190F0816D
:101AF000E02D0995D82E4981A42E5A81B52EF40ED9
:101B0000FA1479F0F80185899689DC01ED91FC9150
:101B10000190F081E02D60E00995F50181935F016E
:101B2000EFCF61E0D80157968C910E942A14EFBE46
:101B30008D2D0F900F90DF91CF911F910F91FF90FE
:101B4000EF90DF90BF90AF900895AF92BF92DF9279
:101B5000EF92FF920F931F93CF93DF9300D0CDB7F7
:101B6000DEB78C01D62EF22EEFB6F89460E0DC01E1
:101B700057968C9149835A830E942A14F8018589CB
:101B80009689DC01ED91FC916D2D60680190F081EA
:101B9000E02D0995D82E4981A42E5A81B52EF40E38
:101BA000FA1471F0F80185899689D5016D915D016E
:101BB000DC01ED91FC910190F081E02D0995F0CFD1
:101BC00061E0F80187890E942A14EFBE8D2D0F90E5
:101BD0000F90DF91CF911F910F91FF90EF90DF90C9
:101BE000BF90AF900895CF93DF93EC018F890E944F
:101BF000601421E0892B09F420E08A8D8227DF918F
:101C0000CF910895FC01808D0C942A14FC01238D42
:101C10006227818D0C942A14CF93DF93EC018A8183
:101C20009B81029761F060E0CE010E94060E60E0A9
:101C3000CE010E94020E82E090E09B838A83DF91B6
:101C4000CF910895862F86958695887098E0980F95
:101C5000891749F0E82FF0E0ED55FD4F208162171C
:101C600019F08F5FF5CF80E008951F93CF93DF9336
:101C7000EC010E94F30D882319F09F8D9F5F9F8FC9
:101C80009E8D891771F098A1903518F42BE030E003
:101C900002C02DE130E098A1290F311D28A38E8FBD
:101CA00003C088A18C5E88A388A1803A08F46EC026
:101CB0008AA19BA1969587959BA38AA38F8D85303A
:101CC00028F08AA19BA198609BA38AA388A1805A2F
:101CD00088A31F8E89A1882309F446C08CA18F5F39
:101CE0008CA38C3008F452C06AA17BA16F73CE0123
:101CF0000E94220E182F6AA17BA146E07695679577
:101D00004A95E1F7CE010E94220E90E1199F9001C1
:101D10001124822BBE0167597F4FFB019081DE01A8
:101D2000A859BF4F9923B1F0FB01908121E0290F01
:101D30002083AE01490F511DFA0185A3FB0190815B
:101D40008C91981778F019A281E08C8FCE010E94B7
:101D50000C0E08C08C939C91973090F09C91943419
:101D600078F4E2CF1CA212C08AA19BA188339B40C9
:101D700069F481E089A31CA2C759DF4F188206C00D
:101D800019A28F8598890196988B8F87DF91CF91C3
:101D90001F910895CF92DF92EF92FF920F931F93BE
:101DA000CF93DF93EC018C0104591F4FF801808120
:101DB00091E0980F9083811136C06E01FAE6CF0E44
:101DC000D11CF6018081EF56FF4F9081891748F0B2
:101DD000CE010E940C0E8B899C8901969C8B8B8B6B
:101DE00022C0FE01E80FF11DE359FF4F608170E052
:101DF0007E01FBE6EF0EF11CF701808191E0980F68
:101E0000908302C0759567958A95E2F76170CE015F
:101E10000E94020EF7018081863028F01082F601C0
:101E200080818F5F8083F8018081883008F0108284
:101E3000DF91CF911F910F91FF90EF90DF90CF90A6
:101E40000895FC01228133812430310511F40C9472
:101E5000350EFC01228133812330310511F40C94BD
:101E6000CA0E08951F920F920FB60F9211242F934E
:101E70003F934F935F936F937F938F939F93AF9312
:101E8000BF93EF93FF9380912706909128060E94BD
:101E9000210FFF91EF91BF91AF919F918F917F9112
:101EA0006F915F914F913F912F910F900FBE0F90C7
:101EB0001F9018958BEF0895CF93DF93EC018A81E3
:101EC0009B81019749F040E061E0CE010E94190D2D
:101ED00081E090E09B838A8381E0DF91CF91089538
:101EE0001F93CF93DF93EC01142FA9010E94CD0C17
:101EF00087ED92E099838883FE01E65EFE4F1082B3
:101F0000188F8FEF898FDF91CF911F910895FC017A
:101F1000828D8430D8F0838D8683848D8783858DF0
:101F20008087868D81878581811107C09681848114
:101F3000981719F086818F3F49F48189928901961B
:101F4000928B818BE65EFE4F81E0808308952FB7F0
:101F5000F894FC01E65EFE4F1082FC01128E2FBF4A
:101F60000895CF92DF92EF92FF920F931F93CF933A
:101F7000DF93EC017B018A01E881F9810280F38122
:101F8000E02D0995D82E882311F1E114F104E1F038
:101F900001151105C9F0CFB6F8942A8D30E0235011
:101FA0003109F801408150E0421753071CF09A8D27
:101FB00094509083F801408150E0BE01615E7F4FF4
:101FC000C7010E94221BCFBECE010E94A70F8D2DFC
:101FD000DF91CF911F910F91FF90EF90DF90CF9005
:101FE0000895CF92DF92EF92FF92CF93DF93EC01AF
:101FF000CB01BA0120E034E244E759E40E94CF1952
:1020000020E034E244E752E40E9428180E94951828
:102010006B017C01A7016627772766E0CE010E944D
:10202000190D77276F2D5E2D4D2D67E0CE010E9493
:10203000190D4C2D68E0CE010E94190D81E0DF9151
:10204000CF91FF90EF90DF90CF900895CF93DF93E3
:10205000EC018A819B81029749F041E061E0CE0169
:102060000E94190D82E090E09B838A83DF91CF91DB
:1020700008951F93CF93DF93EC0162E10E94EC0C73
:102080002A813B812430310519F4982F907A41F44C
:102090002A813B8124303105E1F586FD0EC039C02F
:1020A0008F8598890196988B8F874FEF62E1CE01DB
:1020B000DF91CF911F910C94190D63E1CE010E9425
:1020C000EC0C182F60E1CE010E94EC0C482F6DE063
:1020D000CE010E94190D212FAE01455E5F4F60E0D9
:1020E000CE010E94550D1A8F4FEF62E1CE010E9482
:1020F000190D6AE1CE010E94EC0C89588E87CE0141
:102100000E94870FFE01E65EFE4F8081882369F200
:102110000CC02A813B812330310539F683FFC5CFBE
:102120008B899C8901969C8B8B8BCE010E942610FB
:10213000BCCF80912A0690912B06009711F00C9449
:102140003910089580912C0690912D06009711F07A
:102150000C943910089580912E0690912F060097C7
:1021600011F00C9439100895CF93DF93EC018A811C
:102170009B81049771F045E061E0CE010E94190D4A
:1021800040E060E4CE010E94190D84E090E09B8362
:102190008A83DF91CF910895CF93DF93EC018A81F9
:1021A0009B81039739F0CE010E94B410C65EDE4FCA
:1021B000888101C080E0DF91CF910895CF93DF93B4
:1021C000EC018A819B81039771F043E061E0CE01CD
:1021D0000E94190D40E460E4CE010E94190D83E0D5
:1021E00090E09B838A83DF91CF910895FF920F93B4
:1021F0001F93CF93DF93EC018B01F42E8BEF8417A9
:10220000A0F1E881F9810484F585E02DCE010995DE
:10221000CE010E94261040E06DE0CE010E94190D13
:102220004A8560E0CE010E94190D4B8560E0CE0129
:102230000E94190D4C8560E0CE010E94190D4D855C
:1022400060E0CE010E94190D2F2DA80160E0CE01A3
:102250000E94A50D44E04F0D62E2CE010E94190DCF
:10226000CE010E94DE1081E001C080E0DF91CF91BD
:102270001F910F91FF9008951F93CF93DF93EC016F
:10228000162F68312CF465305CF0653154F001C0D4
:1022900017E147E06DE4CE010E94190D135006C00E
:1022A00015E044E06DE4CE010E94190D4BEF410FA3
:1022B000406869E0CE01DF91CF911F910C94190D18
:1022C0000F931F93CF93DF93EC018B01FB014081B0
:1022D0006DE10E94190DF80141816EE1CE010E946D
:1022E000190DF801428166E2CE01DF91CF911F9175
:1022F0000F910C94190D0F931F93CF93DF9300D080
:102300001F92CDB7DEB78C0165307105B4F49B0127
:10231000220F331F260F371F28593F4F43E050E04D
:10232000B901CE0101960E94191BBE016F5F7F4F5C
:10233000C8010E94601181E001C080E00F900F9001
:102340000F90DF91CF911F910F9108951F93CF931D
:10235000DF93EC01162F472F60E20E94190D412FE9
:1023600061E2CE01DF91CF911F910C94190DFF9284
:102370000F931F93CF93DF93EC010E94AF0CF82EC5
:10238000811102C0F12C9FC0888D823029F08330EA
:1023900031F401E010E005C000E010E002C00FEFF2
:1023A0001FEF66EB72E089E396E00E94C3164AE0F5
:1023B00050E06AE070E089E396E00E9483176EEBDC
:1023C00072E089E396E00E94C3164AE050E0688D0F
:1023D00089E396E00E94A81767EC72E089E396E033
:1023E0000E94C3164AE050E0B80189E396E00E94DB
:1023F00083170F3F8FEF180729F240E861E0CE0105
:102400000E94190D6AE070E080E090E00E94531392
:1024100061E0CE010E94EC0C803809F0B3CF60E09F
:10242000888D0E94F113898D8F3F51F48091290688
:10243000843008F0A7CF91E0980F90932906898FF8
:10244000998DE92FF0E0EE0FFF1FE65DF94FD18384
:10245000C083911105C043E050E069E970E10EC00E
:10246000913029F443E050E062EA70E107C0923015
:1024700009F088CF43E050E06BEA70E1802F0E94C2
:102480006C1240E06EE0CE010E94190D40E06FE05A
:10249000CE010E94190DCE010E94261060E070E06E
:1024A000CE010E947B1168E070E0CE010E94A6116F
:1024B00040E050EC64E674E4CE010E94F10F6DE060
:1024C000CE010E943C118F2DDF91CF911F910F9172
:1024D000FF900895089508958230E8F4E82FF0E021
:1024E000EE0FFF1FEC5FFE4F71836083813041F080
:1024F000809169008C7F842B80936900E89A08950D
:1025000080916900440F551F440F551F837F842B12
:1025100080936900E99A08951F920F920FB60F9267
:1025200011242F933F934F935F936F937F938F93D8
:102530009F93AF93BF93EF93FF93E0910401F091CA
:1025400005010995FF91EF91BF91AF919F918F91F7
:102550007F916F915F914F913F912F910F900FBE9F
:102560000F901F9018951F920F920FB60F92112483
:102570002F933F934F935F936F937F938F939F938B
:10258000AF93BF93EF93FF93E0910601F0910701A2
:102590000995FF91EF91BF91AF919F918F917F919D
:1025A0006F915F914F913F912F910F900FBE0F90C0
:1025B0001F9018951F920F920FB60F9211242F9310
:1025C0003F938F939F93AF93BF93809131069091E8
:1025D0003206A0913306B09134063091300623E0E4
:1025E000230F2D3720F40196A11DB11D05C026E84B
:1025F000230F0296A11DB11D209330068093310652
:1026000090933206A0933306B0933406809135063A
:1026100090913606A0913706B09138060196A11D1B
:10262000B11D8093350690933606A0933706B0937C
:102630003806BF91AF919F918F913F912F910F904D
:102640000FBE0F901F9018952FB7F8946091310628
:102650007091320680913306909134062FBF089511
:102660003FB7F8948091350690913606A0913706D1
:10267000B091380626B5A89B05C02F3F19F00196EA
:10268000A11DB11D3FBF6627782F892F9A2F620F9A
:10269000711D811D911D42E0660F771F881F991FD4
:1026A0004A95D1F708958F929F92AF92BF92CF92A1
:1026B000DF92EF92FF926B017C010E9430134B017D
:1026C0005C01C114D104E104F104F1F00E946A122A
:1026D0000E943013681979098A099B09683E734082
:1026E0008105910570F321E0C21AD108E108F108D3
:1026F00088EE880E83E0981EA11CB11CC114D10481
:10270000E104F10429F7DDCFFF90EF90DF90CF9047
:10271000BF90AF909F908F900895789484B5826019
:1027200084BD84B5816084BD85B5826085BD85B575
:10273000816085BDEEE6F0E0808181608083E1E824
:10274000F0E010828081826080838081816080835C
:10275000E0E8F0E0808181608083E1EBF0E080815F
:1027600084608083E0EBF0E0808181608083EAE731
:10277000F0E08081846080838081826080838081BA
:10278000816080838081806880831092C100089579
:10279000833081F028F4813099F08230A1F00895DF
:1027A0008730A9F08830B9F08430D1F4809180006E
:1027B0008F7D03C0809180008F7780938000089583
:1027C00084B58F7702C084B58F7D84BD08958091D4
:1027D000B0008F7703C08091B0008F7D8093B000F0
:1027E0000895CF93DF9390E0FC01E857FF4F2491C9
:1027F000FC01E456FF4F8491882349F190E0880F53
:10280000991FFC01EC53FF4FA591B49186549F4F43
:10281000FC01C591D4919FB7611108C0F8948C91C7
:10282000209582238C93888182230AC0623051F4E0
:10283000F8948C91322F309583238C938881822B4E
:10284000888304C0F8948C91822B8C939FBFDF9176
:10285000CF9108950F931F93CF93DF931F92CDB71E
:10286000DEB7282F30E0F901EC58FF4F8491F901D1
:10287000E857FF4F1491F901E456FF4F04910023EC
:10288000C9F0882321F069830E94C8136981E02F71
:10289000F0E0EE0FFF1FE654FF4FA591B4919FB7F4
:1028A000F8948C91611103C01095812301C0812B94
:1028B0008C939FBF0F90DF91CF911F910F9108953F
:1028C000CF93DF93282F30E0F901EC58FF4F84912C
:1028D000F901E857FF4FD491F901E456FF4FC49135
:1028E000CC2391F081110E94C813EC2FF0E0EE0F81
:1028F000FF1FE055FF4FA591B4912C912D2381E04E
:1029000090E021F480E002C080E090E0DF91CF9180
:1029100008950E94CB1AFC01818D228D90E0805C8D
:102920009F4F821B91098F7399270895FC01918D08
:10293000828D981731F0828DE80FF11D858D90E022
:1029400008958FEF9FEF0895FC01918D828D981768
:1029500061F0828DDF01A80FB11D5D968C91928D83
:102960009F5F9F73928F90E008958FEF9FEF089580
:1029700088E296E1892B49F080E090E0892B29F0EC
:102980000E94281681110C9400000895FC01848D8A
:10299000DF01A80FB11DA35ABF4F2C91848D90E089
:1029A00001968F739927848FA689B7892C93A08964
:1029B000B1898C9180648C93938D848D981306C01B
:1029C0000288F389E02D80818F7D80830895CF93E5
:1029D000DF93EC01888D8823C9F0EA89FB89808127
:1029E00085FD05C0A889B9898C9186FD0FC00FB6F9
:1029F00007FCF5CF808185FFF2CFA889B9898C913A
:102A000085FFEDCFCE010E94C614E7CFDF91CF91B5
:102A10000895CF92DF92FF920F931F93CF93DF938E
:102A20001F92CDB7DEB76C0181E0D60158968C932A
:102A300058975B969C915B975C968C915C979813EA
:102A400007C05096ED91FC915197808185FD2EC075
:102A5000F601038D10E00F5F1F4F0F731127F02E4B
:102A6000F601848DF81211C00FB607FCF9CFD6011C
:102A70005096ED91FC915197808185FFF1CFC60171
:102A800069830E94C6146981EBCF838DE80FF11D25
:102A9000E35AFF4F6083D6015B960C935B97529687
:102AA000ED91FC915397808180620CC0D6015696BF
:102AB000ED91FC91579760835096ED91FC91519761
:102AC00080818064808381E090E00F90DF91CF91DE
:102AD0001F910F91FF90DF90CF900895BF92CF92FA
:102AE000DF92EF92FF92CF93DF93EC016A017B01BB
:102AF000B22EE889F98982E08083411581EE58077A
:102B000061057105A1F060E079E08DE390E0A70137
:102B100096010E94561A21503109410951095695D2
:102B2000479537952795211580E1380798F0E88972
:102B3000F989108260E874E88EE190E0A7019601BF
:102B40000E94561A2150310941095109569547955D
:102B500037952795EC85FD853083EE85FF852083AD
:102B6000188EEC89FD89B082EA89FB8980818061B9
:102B70008083EA89FB89808188608083EA89FB8978
:102B8000808180688083EA89FB8980818F7D808352
:102B9000DF91CF91FF90EF90DF90CF90BF9008959D
:102BA0001F920F920FB60F9211242F938F939F9322
:102BB000EF93FF93E0914906F0914A068081E091FE
:102BC0004F06F091500682FD12C09081809152060E
:102BD0008F5F8F7320915306821751F0E091520658
:102BE000F0E0E75CF94F958F8093520601C0808139
:102BF000FF91EF919F918F912F910F900FBE0F90AA
:102C00001F9018951F920F920FB60F9211242F93B9
:102C10003F934F935F936F937F938F939F93AF9364
:102C2000BF93EF93FF9389E396E00E94C614FF9150
:102C3000EF91BF91AF919F918F917F916F915F9134
:102C40004F913F912F910F900FBE0F901F901895AD
:102C500089E396E00E948B1421E0892B09F420E09F
:102C6000822F089510923C0610923B0688EE93E066
:102C7000A0E0B0E080933D0690933E06A0933F060F
:102C8000B093400683E093E090933A068093390630
:102C900085EC90E0909346068093450684EC90E0A6
:102CA000909348068093470680EC90E090934A0604
:102CB0008093490681EC90E090934C0680934B06FC
:102CC00082EC90E090934E0680934D0686EC90E067
:102CD0009093500680934F0610925206109253061E
:102CE0001092540610925506089508950E948D136F
:102CF0000E9475160E941A01C8EBD4E10E9484015B
:102D00002097E1F30E94B814F9CFCF92DF92EF92AF
:102D1000FF920F931F93CF93DF937C016A01EB0126
:102D200000E010E00C151D0571F06991D701ED91DF
:102D3000FC910190F081E02DC7010995892B19F0D4
:102D40000F5F1F4FEFCFC801DF91CF911F910F9100
:102D5000FF90EF90DF90CF9008956115710581F09D
:102D6000DB010D900020E9F7AD0141505109461BF0
:102D7000570BDC01ED91FC910280F381E02D099469
:102D800080E090E008950C94AD16DC01ED91FC918B
:102D90000190F081E02D09946FE073E00C94AD1682
:102DA0000F931F93CF93DF93EC010E94AD168C011C
:102DB000CE010E94CC16800F911FDF91CF911F9101
:102DC0000F9108958F929F92AF92BF92DF92EF92F0
:102DD000FF920F931F93CF93DF93CDB7DEB7A197E9
:102DE0000FB6F894DEBF0FBECDBF7C01F42FD52EF9
:102DF000CB0119A2223008F42AE08E010F5D1F4F8B
:102E0000822E912CA12CB12C6F2F7D2DA501940128
:102E10000E94561AF22FD32ECA01015011096A30AE
:102E200014F4E0E301C0E7E3E60FD801EC93232BB1
:102E3000242B252B49F7B801C7010E94AD16A19696
:102E40000FB6F894DEBF0FBECDBFDF91CF911F91BB
:102E50000F91FF90EF90DF90BF90AF909F908F9079
:102E60000895CF92DF92EF92FF920F931F93CF932B
:102E7000DF93EC016A017B012115310579F4E881CA
:102E8000F9810190F081E02D642FDF91CF911F91A6
:102E90000F91FF90EF90DF90CF9009942A30310589
:102EA000E9F477FF1AC06DE20E94C5168C01442731
:102EB0005527BA014C195D096E097F092AE0CE0138
:102EC0000E94E216800F911FDF91CF911F910F9109
:102ED000FF90EF90DF90CF9008952AE0B701A60110
:102EE000CE01DF91CF911F910F91FF90EF90DF9076
:102EF000CF900C94E2169A01AB01662757FD6095BE
:102F0000762F0C9431170F931F93CF93DF93EC011F
:102F10009A01AB01662757FD6095762F0E94311705
:102F20008C01CE010E94CC16800F911FDF91CF91B2
:102F30001F910F9108952115310541F4DC01ED91A8
:102F4000FC910190F081E02D642F09940C94E2161D
:102F50000F931F93CF93DF93EC019A01462F50E01C
:102F600060E070E00E949B178C01CE010E94CC169D
:102F7000800F911FDF91CF911F910F9108955058AD
:102F8000BB27AA270ED0D1C1C2D130F0C7D120F0C3
:102F900031F49F3F11F41EF4B7C10EF4E095E7FB46
:102FA0009FC1E92FD3D180F3BA1762077307840753
:102FB000950718F071F49EF5EBC10EF4E0950B2E19
:102FC000BA2FA02D0B01B90190010C01CA01A0017B
:102FD0001124FF27591B99F0593F50F4503E68F1D6
:102FE0001A16F040A22F232F342F4427585FF3CF17
:102FF000469537952795A795F0405395C9F77EF4E8
:103000001F16BA0B620B730B840BBAF09150A1F030
:10301000FF0FBB1F661F771F881FC2F70EC0BA0FB6
:10302000621F731F841F48F4879577956795B7953E
:10303000F7959E3F08F0B3CF9395880F08F0992736
:10304000EE0F97958795089527D108F481E00895AC
:103050000CD06BC163D140F05AD130F021F45F3F06
:1030600019F03EC1511195C14FC170D198F3992308
:10307000C9F35523B1F3951B550BBB27AA2762173C
:103080007307840738F09F5F5F4F220F331F441F81
:10309000AA1FA9F333D00E2E3AF0E0E830D09150B9
:1030A0005040E695001CCAF729D0FE2F27D0660FA6
:1030B000771F881FBB1F261737074807AB07B0E8E5
:1030C00009F0BB0B802DBF01FF2793585F4F2AF0FB
:1030D0009E3F510568F004C15CC15F3FECF3983E30
:1030E000DCF3869577956795B795F7959F5FC9F758
:1030F000880F911D9695879597F90895E1E0660FE1
:10310000771F881FBB1F621773078407BA0720F059
:10311000621B730B840BBA0BEE1F88F7E0950895C2
:1031200004D06894B11135C1089518D188F09F5723
:1031300090F0B92F9927B751A0F0D1F0660F771F03
:10314000881F991F1AF0BA95C9F712C0B13081F0E3
:103150001FD1B1E008951CC1672F782F8827B85F71
:1031600039F0B93FCCF3869577956795B395D9F744
:103170003EF490958095709561957F4F8F4F9F4F4E
:103180000895E89409C097FB3EF49095809570955A
:1031900061957F4F8F4F9F4F9923A9F0F92F96E9A3
:1031A000BB279395F695879577956795B795F11118
:1031B000F8CFFAF4BB0F11F460FF1BC06F5F7F4FB5
:1031C0008F4F9F4F16C0882311F096E911C07723C7
:1031D00021F09EE8872F762F05C0662371F096E8D0
:1031E000862F70E060E02AF09A95660F771F881F9F
:1031F000DAF7880F9695879597F9089588D018F093
:1032000011F08CD038F480C0C4C0E92F9FD0B0F347
:103210005523C9F3E7FB6217730784079507A8F1E5
:1032200099F3E92FFF2788232AF03197660F771F3C
:10323000881FDAF7952F5527442332F091505040DC
:10324000220F331F441FD2F7BB27E91BF50B621B6C
:10325000730B840BB109C1F222F4620F731F841F38
:10326000B11D31972AF0660F771F881FBB1FEFCF64
:10327000915050405AF041F0882332F0660F771F8A
:10328000881F91505040C1F7939530C0869577952F
:1032900067959F5FD9F7F8CF990F0008550FAA0BD4
:1032A000E0E8FEEF16161706E807F907C0F0121659
:1032B0001306E407F50798F0621B730B840B950B5C
:1032C00039F40A2661F0232B242B252B21F40895B1
:1032D0000A2609F4A140A6958FEF811D811D08954E
:1032E00097F99F6780E870E060E008959F3F31F0B4
:1032F000915020F4879577956795B795880F911D24
:103300009695879597F908959FEF80EC089500248E
:103310000A941616170618060906089500240A943A
:1033200012161306140605060895092E0394000CC0
:1033300011F4882352F0BB0F40F4BF2B11F460FF4F
:1033400004C06F5F7F4F8F4F9F4F089557FD905878
:10335000440F551F59F05F3F71F04795880F97FB59
:10336000991F61F09F3F79F0879508951216130613
:103370001406551FF2CF4695F1DF08C01616170642
:103380001806991FF1CF8695710561050894089577
:10339000E894BB2766277727CB0197F908950BD0D0
:1033A000C4CFB5DF28F0BADF18F0952309F098CF25
:1033B000ABCF1124EECFCADFA0F3959FD1F3950FC9
:1033C00050E0551F629FF001729FBB27F00DB11DA9
:1033D000639FAA27F00DB11DAA1F649F6627B00D39
:1033E000A11D661F829F2227B00DA11D621F739F22
:1033F000B00DA11D621F839FA00D611D221F749F30
:103400003327A00D611D231F849F600D211D822F76
:10341000762F6A2F11249F5750408AF0E1F08823BD
:103420004AF0EE0FFF1FBB1F661F771F881F9150CA
:103430005040A9F79E3F510570F052CFAACF5F3F91
:10344000ECF3983EDCF3869577956795B795F795FD
:10345000E7959F5FC1F7FE2B880F911D9695879585
:1034600097F90895DB018F939F930E94971ABF915C
:10347000AF91A29F800D911DA39F900DB29F900DC3
:103480001124089597FB072E16F4009407D077FDBA
:1034900009D00E94A21A07FC05D03EF490958195B0
:1034A0009F4F0895709561957F4F0895A1E21A2E60
:1034B000AA1BBB1BFD010DC0AA1FBB1FEE1FFF1FD8
:1034C000A217B307E407F50720F0A21BB30BE40B28
:1034D000F50B661F771F881F991F1A9469F760956F
:1034E0007095809590959B01AC01BD01CF01089529
:1034F000052E97FB1EF400940E948F1A57FD07D0EB
:103500000E94561A07FC03D04EF40C948F1A509563
:103510004095309521953F4F4F4F5F4F08959095BF
:103520008095709561957F4F8F4F9F4F08950E94B2
:10353000BC1AA59F900DB49F900DA49F800D911D66
:1035400011240895AA1BBB1B51E107C0AA1FBB1F72
:10355000A617B70710F0A61BB70B881F991F5A951F
:10356000A9F780959095BC01CD010895EE0FFF1F3E
:103570000590F491E02D0994A29FB001B39FC00182
:10358000A39F700D811D1124911DB29F700D811D8F
:103590001124911D089581E090E0F8940C94391D58
:1035A000662777270C947C1BFC0188279927E894D1
:1035B00021912032E9F3293010F02E30C8F32B325C
:1035C00041F02D3239F4689404C00E94741B820FBC
:1035D000911D219120532A30C0F31EF490958195BE
:1035E0009F4F08951F93FC0199278827BC01E894F9
:1035F00011911032E9F3193010F01E30C8F31B326C
:1036000051F01D3249F4689406C00E945F1B610F9F
:10361000711D811D911D119110531A30B0F33EF4AC
:1036200090958095709561957F4F8F4F9F4F1F911B
:103630000895FB01DC0102C005900D9241505040FD
:10364000D8F70895FB01DC0102C001900D924150B2
:103650005040D8F70895FC018191861721F0882306
:10366000D9F7992708953197CF010895FB01DC011F
:103670004150504048F001900D920020C9F701C020
:103680001D9241505040E0F70895FB0151915523A0
:10369000A9F0BF01DC014D9145174111E1F759F443
:1036A000CD010190002049F04D9140154111C9F321
:1036B000FB014111EFCF81E090E001970895592F70
:1036C000482F372F262F660F771F881F991F660FE9
:1036D000771F881F991F620F731F841F951F660F26
:1036E000771F881F991F08957AE0979F902D879FD5
:1036F000802D910D11240895A0E0B0E0E2E8FBE1F7
:103700000C94081D8B016115710521F0DB018C9370
:1037100011969C93EC015E01BFEFAB1ABB0A7501D9
:10372000C8808C2D90E00E94E21C892B11F0E501ED
:10373000F2CFEDE2CE1208C07E01F2E0EF0EF11CF6
:10374000C980DD24D39409C02BE2C21205C07E01DA
:1037500042E0E40EF11CC980D12CE701219743E03F
:1037600050E066ED70E0CE010E94EA1C892BC1F4A6
:10377000239645E050E061ED70E0CE010E94EA1C26
:10378000892B09F425960115110519F0D801CD935F
:10379000DC93D11006C160E070E080E89FE70AC1C9
:1037A00043E050E06EEC70E0CE010E94EA1C892BF1
:1037B00059F40115110509F4F9C0B2E0EB0EF11C42
:1037C000F801F182E082F2C0F70160E070E0CB0125
:1037D000C0E0D0E07F01A0EDAA2EAC0C29E02A15B4
:1037E00030F14D2D4260B42E2D2D2870D2FE04C034
:1037F000211125C0219623C021112197A5E0B0E019
:103800009B01AC010E94971A660F771F881F991FB2
:103810006A0D711D811D911D6839A9E97A078A0712
:10382000A9E19A0760F0BD2DB660BB2E08C02EEF4F
:10383000A2120AC0D3FC50C04D2D4860B42E319660
:10384000D701CC90DB2CC6CF2C2D2F7D253409F051
:1038500043C0A081AD3241F4BD2DB061DB2E7F01AC
:1038600022E0E20EF11C0CC07F01AB3231F04FEFD1
:10387000E41AF40A21E030E006C0A2E0EA0EF11CEE
:10388000A18122E030E0A053AA3018F0E21AF30A36
:1038900023C0F70120E030E02038BCE03B075CF4B7
:1038A000A901440F551F440F551F240F351F220F28
:1038B000331F2A0F311DAF014F5F5F4F7A01A08187
:1038C000A053AA3010F4FA01E7CFD4FE03C031951B
:1038D00021953109C20FD31FD1FE09C00115110571
:1038E00031F0E1E0EE1AF108D801ED92FC920E946D
:1038F000C1182D2D2370233019F04B015C0106C037
:103900004B015C01B7FAB094B7F8B09420E030E016
:10391000A901C501B4010E942418882309F43EC0FE
:10392000D7FF06C0D195C195D1090DEE10E002C0B8
:1039300005E011E06801B8E1CB1AD10890E2E92E68
:10394000F12CCE15DF0574F0F801259135914591E4
:103950005491C501B4010E94CF194B015C01CE19ED
:10396000DF09EFCF04501109F594E7940C151D05FC
:1039700041F78A2D880F8B2D881F8F3F49F020E05B
:1039800030E0A901C501B4010E942418811106C0CC
:1039900082E290E09093D7068093D606C501B401E9
:1039A00009C060E070E080E89FEF04C060E070E074
:1039B00080EC9FE7CDB7DEB7ECE00C94241D99278F
:1039C000882708959111FBCF803219F089508550D6
:1039D000D0F70895FB01DC014150504088F08D91F3
:1039E00081341CF08B350CF4805E659161341CF0E1
:1039F0006B350CF4605E861B611171F3990B0895B1
:103A0000881BFCCF2F923F924F925F926F927F92D2
:103A10008F929F92AF92BF92CF92DF92EF92FF92DE
:103A20000F931F93CF93DF93CDB7DEB7CA1BDB0B8A
:103A30000FB6F894DEBF0FBECDBF09942A8839882F
:103A400048885F846E847D848C849B84AA84B98436
:103A5000C884DF80EE80FD800C811B81AA81B98142
:103A6000CE0FD11D0FB6F894DEBF0FBECDBFED0156
:103A7000089511E0C0E1D1E004C0FE010E94B81A2F
:0C3A80002296C231D107C9F7F894FFCF9D
:103A8C00010000006B126B1247505320414E442032
:103A9C0054454C454D45545259204D4F44554C4579
:103AAC00005253204C52204D45474120302E31209E
:103ABC00416C70686100696E6974206661696C653F
:103ACC006400696E6974204F4B202D20006D687A5C
:103ADC000024504D544B3331342C302C312C302CA1
:103AEC00312C302C302C302C302C302C302C302CE9
:103AFC00302C302C302C302C302C302C302C302ADC
:103B0C0032380024504D544B3232302C313030305E
:103B1C002A31460024504D544B3630352A3331006F
:103B2C0000000000E70285165203C6023A0339036F
:103B3C0024475047474100244750524D43002450DE
:103B4C004D544B3138352C302A32320024504D54E0
:103B5C004B3030312C3138352C332A334300245040
:103B6C004D544B3138352C312A32330024504D54BE
:103B7C004B3138332A33380024504D544B4C4F477B
:103B8C000024504D544B3136312C302A323800241D
:103B9C00504D544B3031302C3030322A32440000EE
:103BAC000000006C0B8914891489148914920BA4DD
:103BBC000BE90BB20B710B740B770B7A0B7D0B6E45
:103BCC000B840B870B8A0B8D0B900B00000000896C
:103BDC00142F0C300C89148914310C350C390C054C
:103BEC0000040400000000490C500C540C580C97B5
:103BFC000C310C350C390C00000000AF0C89148909
:103C0C001489148914920BA40BE90BB20B710B746D
:103C1C000B770B7A0B7D0B6E0B840B870B8A0B8D42
:103C2C000B900B0D0E131516191A1C232526292A79
:103C3C002C32343A200053532070696E3A00696E6E
:103C4C00742070696E3A00696E74206E756D6265D1
:103C5C00723A0000000000B711CC10B10FF6105AE8
:103C6C000F920BA40BE90BB20B710B740B770B7A45
:103C7C000B7D0B6E0B840B870B8A0B8D0B5C0F0073
:103C8C00000000091585168B14A4149614E7140D66
:103C9C000A006E616E00696E66006F7666002E001B
:00000001FF
